S0030000FC
S3510000A000C8FCFF1F390C01003DA4000041A4000041A4000041A4000041A4000041A4000041A4000041A4000041A4000041A4000041A4000041A4000041A4000041A4000041A4000041A4000041A40000B5
S3510000A04C41A4000041A4000041A4000041A4000041A4000041A4000041A4000041A4000041A4000041A4000041A4000041A4000041A4000041A4000041A4000041A4000041A4000041A4000041A40000C3
S3510000A09841A4000041A4000041A4000041A4000041A4000041A4000041A4000041A4000041A4000041A4000041A4000041A4000041A4000041A4000041A4000041A4000041A4000041A4000041A4000077
S3510000A0E441A4000041A4000041A4000041A4000041A4000041A4000041A4000041A4000041A4000041A4000041A4000041A4000041A4000041A4000041A4000041A4000041A4000041A4000041A400002B
S3510000A13041A4000041A4000041A4000041A4000041A4000041A4000041A4000041A4000041A4000009C0000041A4000041A4000041A400002DE4000041A4000041A4000041A4000041A4000041A40000CE
S3510000A17C41A4000041A4000041A4000041A4000041A4000041A4000041A4000041A4000041A4000041A4000041A4000041A4000041A4000041A4000041A4000041A4000041A4000041A4000041A4000092
S31D0000A1C841A4000041A4000041A4000041A4000041A4000041A400001B
S3510000A4104CF2205142F20E00C4F2050001804DF6281142F20E00C4F205000180D22142F20000C4F20500018070470000704700007047000038B54BF6803148F24400C4F20400006800F07060000E401CA2
S3510000A45CB1FBF0F548F23801C4F20401086840F4785008604FF440714BF24400C4F2040001604FF440714BF24000C4F20400016048F23401C4F20401086840F4005008604DF20301C4F20601087800F009
S3510000A4A8F300087000214DF20200C4F2060001704FF47A7068434FF4E11108F011F884B24DF20002C4F20602117804F4F8500012C0B2C0B200F01F000843C0B21070E1B24DF20100C4F2060001704DF2DB
S3510000A4F40301C4F20601087840F00C000870BDE8384070470FB44DF20400C4F20600007800F080000028F6D000A890F90000C1B24DF20700C4F20600017004B0704700000FB408B502A890F90000FFF78A
S3510000A540E3FFBDE8084004B07047000070B506460D4614462068012802D0022804D00AE070B26168884706E0F0B241B2A0680170A068401CA0602868401C2860BDE87040704700000FB42DE9F00F002577
S3510000A58C089C2146641C002008700A98002822D00998D0F80080B8F1000F18D1302020706D1C38E00B9898FBF0FA0B980AFB00F0A8EB0006002E03DAF04300F1310600E03036D0462046641C71B2017006
S3510000A5D86D1CB8F1000FE7D11FE00998D0F80090B9F1000F16D1302020706D1C15E00B98B9FBF0FB0B980BFB00F0A9EB00070A2F01D2303700E03737D9462046641C79B201706D1CB9F1000FE9D1284600
S3510000A624BDE8F00F04B070470FB410B5029C05E030200499059AFFF787FF641C03988442F6DBBDE8104004B0704700000FB410B5029C05E020200499059AFFF775FF641C03988442F6DBBDE8104004B064
S3510000A670704700000FB42DE9F84793B080461746002007901D9C6DE2BAF1250F13D0BAF10A0F05D0504607A94246FFF757FF60E20D2007A94246FFF751FF0A2007A94246FFF74CFF55E20026002008908A
S3510000A6BC2BE0641C94F900002B280BDC2B2800DB14E023281EDC20281CDB202811D0232815D017E0302815DC2D2813DB2D2802D0302809D00EE046F001060EE046F002060BE046F0040608E046F0080672
S3510000A70805E046F0100602E0641E0120089008980028D0D04FF000090020089029E0641C94F900A0AAF1300009281FD84FEA80008744F0BF00F012B800F010B800F00EB800F00CB800F00AB800F008B82F
S3510000A75400F006B800F004B800F002B800F000B8AAF130010A2009FB00F001EB000902E0641E0120089008980028D2D0641C94F900002E2827D10020089020E0641C94F900003038092817D84FEA800040
S3510000A7A08744F0BF00F015B800F013B800F011B800F00FB800F00DB800F00BB800F009B800F007B800F005B800F003B8641E0120089008980028DBD000E0641E641C94F900004C2805D0682803D06C2888
S3510000A7EC01D0FFE7641E641C94F900A0BAF16E0F24DCBAF16E0F00DBA0E1BAF1580F04DCBAF1580F00F09E80A0E1AAF16200072800F29C814FEA80008744F0BF00F0FCB800F051B900F02DB800F090B9DC
S3510000A83800F08EB900F08CB900F08AB900F023B8BAF16F0F04DCBAF16F0F00F0DB807FE1AAF17000082800F27B814FEA80008744F0BF00F0E7B800F073B900F071B900F037B900F06DB900F0E9B800F0EF
S3510000A88469B900F067B900F061B83F1D381F006806900AA806A901220A23FFF771FE05460AA8401909900698002803DA2D2005906D1C11E006F00200002803D02B2005906D1C09E006F00400002803D058
S3510000A8D0202005906D1C01E0002005900020049006F00800002811D00598002804D0059807A94246FFF72AFE012004902846494607AA4346FFF792FE4D4613E006F0010000280FD12846494607AA4346CD
S3510000A91CFFF798FE0598002804D0059807A94246FFF70EFE012004900498002840F0BB800598002800F0B780059807A94246FFF7FFFDB0E03F1D381F006800900AA800A900221023FFF710FE05460AA86A
S3510000A968401909900020049006F00800002817D006F0100000280BD0302007A94246FFF7E1FD782007A94246FFF7DCFD012004902846494607AA4346FFF744FE4D461EE006F0010000281AD106F0100021
S3510000A9B4002800D0AD1C2846494607AA4346FFF745FE06F0100000280BD0302007A94246FFF7BAFD782007A94246FFF7B5FD0120049006F01000002861D0049800285ED1302007A94246FFF7A7FD7820A9
S3510000AA0007A94246FFF7A2FDAD1C52E03F1D381F006800900AA800A900220823FFF7B2FD054622E03F1D381F006800900AA800A900220223FFF7A6FD054616E03F1D381F006800900AA800A90022102375
S3510000AA4CFFF79AFD05460AE03F1D381F006800900AA800A900220A23FFF78EFD05460AA84019099006F00800002807D02846494607AA4346FFF7D4FD4D4614E006F00100002810D12846494607AA434678
S3510000AA98FFF7DAFD09E009990998401E099091F9000007A94246FFF74DFD099890F900000028F0D106F0010000284ED02846494607AA4346FFF7C0FD47E03F1D381F006840B20190019807A94246FFF7B4
S3510000AAE433FD3CE03F1D381F006802900298002835D0029805F0A4FF054606F00100002810D12846494607AA4346FFF79FFD09E002990298401C029091F9000007A94246FFF712FD029890F900000028FC
S3510000AB30F0D106F00100002813D02846494607AA4346FFF785FD0CE03F1D381F0068039007990398016004E0504607A94246FFF7F5FC641C94F900A0BAF1000F7FF48CAD079813B0BDE8F84704B07047CE
S3510000AB7C0FB430B583B001200090DFF82800019006A96FF003000840041D00A806992246FFF76AFD0546284603B0BDE8304004B07047C04635A5000010B50021DFF81E000175002406E00022A100DFF824
S3510000ABC812004250641CE4B2052CF6D3BDE8104070479834FF1F00000FB4DFF83200007D052801D3012010E0009ADFF82200007D8100DFF81A004250DFF81200007D411CC9B2DFF80A000175002004B019
S3510000AC1470479834FF1F000010B5002406E0A100DFF81A0040588047641CE4B2DFF80E00007D8442F3D3BDE810407047C0469834FF1F00000FB418B581B0002401F0ACFAFFF7F6FB01F074F9FFF7AAFF8D
S3510000AC6072B600204FF4806100AA03F093FD0446002C04D0DFF8B6002146FFF77FFF0098DFF8AE1004F01AFC0446002C04D0DFF8A6002146FFF772FF62B61F2005F0E6FDDFF896108860DFF892008168A5
S3510000ACAC0020814203D1DFF88A00FFF761FFDFF87E00806800211F2205F058FE0D2005F0CFFDDFF86A10C860DFF86200C1680020814208D1DFF85E00FFF74AFFDFF84E00806805F0C3FDDFF84600C068FE
S3510000ACF800210D2205F03CFEDFF84200FFF73AFF00F020F8FFF786FF4AF2026142F20C00C4F2050001804BF2804142F20C00C4F205000180ECE72C27FF1F042701005827FF1F6839FF1F8027FF1FAA27C9
S3510000AD44FF1FD527FF1F000010B50024DFF87E000069062831D84FEA80008744F0BF00F033B800F00AB800F028B800F02DB800F018B800F019B800F027B8DFF85600FFF7FBFE0321DFF846000161DFF85C
S3510000AD9042008069DFF83A10C969DFF83E2004F0EFFC044612E000F099F80FE0DFF82E00FFF7E4FE0021DFF81A00016106E0DFF82200DFF80E100969FFF7D8FEBDE810407047B034FF1F1B28FF1FD034BD
S3510000ADDCFF1F3928FF1F5828FF1F00000FB438B50D462C460698042843D84FEA80008744F0BF00F03EB800F006B800F01FB800F002B800F016B8DFF87A00006900280BD10499DFF86E008161DFF86600DB
S3510000AE28C5610121DFF85E00016128E0DFF85A00FFF7A0FE23E00421DFF84A0001611EE00021DFF84200C160DFF83A00006900280CD00021DFF82E0081610021DFF82600C1610521DFF81E00016108E0FD
S3510000AE74DFF81E00FFF780FE03E00021DFF80A000161BDE8384004B07047B034FF1F8028FF1FA928FF1F00000FB40121DFF8100001700499DFF80800816004B07047C046B034FF1F0FB40399DFF8180042
S3510000AEC041600121DFF8100001700099DFF80800816004B07047C046B034FF1F08B584B0DFF82A0EC068122801F21F804FEA80008744F0BF00F024B800F081B800F0DDB800F044B900F0ADB900F016BAB5
S3510000AF0C00F07FBA00F0E7BA00F050BB00F0B8BB00F021BC00F089BC00F0EFBC00F053BD00F0B8BD00F01DBE00F083BE00F087BF00F0EABFDFF8CE0D8168DFF8C60DC0F89410DFF8C20DC168DFF8B60D04
S3510000AF58C0F89810DFF8B60D002140F20C4205F007FDDFF8AE0D00210F2205F001FDDFF89A0DC06800210D2205F0FAFCDFF88A0D806800211F2205F0F3FCDFF87E0D0021282205F0EDFCDFF86E0DD0F8FA
S3510000AFA49410DFF86A0D8160DFF85E0DD0F89810DFF85A0DC160DFF8520D90F83410DFF84E0D4160DFF8521DDFF8420D0160DFF84E1DDFF83A0D0161DFF8460DFFF7CCFDDFF8260DC068411CDFF81E0D99
S3510000AFF0C1600121DFF8320D016000F096BFDFF82A0D0068012818D1DFF8220DFFF7B6FD0021DFF8FA0C0170DFF8020DDFF8121DDFF8122D02F072F9DFF8E21C08630021DFF8F60C016000F078BFDFF872
S3510000B03CD20C006B00280AD0DFF8C60C006B072805D0DFF8EA0CFFF793FD00F068BFDFF8B20C0078002800F06287DFF8A60C8068002810D1DFF8CA0CFFF782FDDFF8920CC068411CDFF88A0CC1600121A1
S3510000B088DFF89E0C016000F04CBFDFF8AE0CDFF8761C8968FFF76EFDDFF86A0CC068411CDFF8620CC1600121DFF8760C016000F038BFDFF86E0C0068012823D1DFF87E0CFFF758FD0021DFF83E0C01701D
S3510000B0D400200090002001900020029000200390DFF82A0C0021DFF8262C52685201D2B2002301F04FFDDFF8121C08630021DFF8260C016000F00FBFDFF8FE0B006B00280AD0DFF8F60B006B072805D0CF
S3510000B120DFF8260CFFF72AFD00F0FFBEDFF8DE0B0078002800F0F986DFF8D20B8068002810D1DFF80A0CFFF719FDDFF8C20BC068411CDFF8BA0BC1600121DFF8CE0B016000F0E3BEDFF8EA0BDFF8A21B93
S3510000B16C8968FFF705FDDFF89A0BC068411CDFF8920BC1600121DFF8A60B016000F0CFBEDFF89A0B0068012825D1DFF8BE0BFFF7EFFC0021DFF86A0B01700020009080200190DFF8AA0B02901220039064
S3510000B1B8DFF8560B0321DFF8522B52685201D2B24FF4905301F0E4FCDFF83A1B08630021DFF84E0B016000F0A4BEDFF82A0B006B00280AD0DFF81E0B006B072805D0DFF8660BFFF7BFFC00F094BEDFF878
S3510000B2040A0B0078002800F08E86DFF8FE0A8068002810D1DFF8460BFFF7AEFCDFF8EA0AC068411CDFF8E20AC1600121DFF8F60A016000F078BEDFF82A0BDFF8CE1A8968FFF79AFCDFF8C20AC068411C83
S3510000B250DFF8BA0AC1600121DFF8CE0A016000F064BEDFF8C60A0068012825D1DFF8FA0AFFF784FC0021DFF8960A01700020009080200190DFF8E60A029024200390DFF8820A1221DFF87A2A52685201F5
S3510000B29CD2B24FF4105301F079FCDFF8661A08630021DFF87A0A016000F039BEDFF8520A006B00280AD0DFF84A0A006B072805D0DFF8A20AFFF754FC00F029BEDFF8320A0078002800F02386DFF8260A1D
S3510000B2E88068002810D1DFF8860AFFF743FCDFF8160AC068411CDFF80E0AC1600121DFF8220A016000F00DBEDFF8660ADFF8F6198968FFF72FFCDFF8EE09C068411CDFF8E609C1600121DFF8FA090160E4
S3510000B33400F0F9BDDFF8EE090068012825D1DFF83A0AFFF719FC0021DFF8BE0901700020009080200190DFF8FE09029012200390DFF8AA090321DFF8A62952685201D2B24FF4905301F00EFCDFF88E19DC
S3510000B38008630021DFF8A209016000F0CEBDDFF87E09006B00280AD0DFF87209006B072805D0DFF8DE09FFF7E9FB00F0BEBDDFF85E090078002800F0B885DFF852098068002810D1DFF8BE09FFF7D8FB6D
S3510000B3CCDFF83E09C068411CDFF83609C1600121DFF84A09016000F0A2BDDFF8A209DFF822198968FFF7C4FBDFF81609C068411CDFF80E09C1600121DFF82209016000F08EBDDFF81A090068012824D155
S3510000B418DFF87209FFF7AEFB0021DFF8EA0801700020009080200190DFF85E09029014200390DFF8D6082321DFF8CE2852685201D2B2002301F0A4FBDFF8BA1808630021DFF8CE08016000F064BDDFF8E9
S3510000B464AA08006B00280AD0DFF89E08006B072805D0DFF81E09FFF77FFB00F054BDDFF88A080078002800F04E85DFF87E088068002810D1DFF8FE08FFF76EFBDFF86A08C068411CDFF86208C160012174
S3510000B4B0DFF87608016000F038BDDFF8E208DFF84E188968FFF75AFBDFF84208C068411CDFF83A08C1600121DFF84E08016000F024BDDFF846080068012825D1DFF8B208FFF744FB0021DFF8160801701B
S3510000B4FC0020009080200190DFF85208029012200390DFF802080321DFF8FA2752685201D2B24FF4905301F039FBDFF8E61708630021DFF8FA07016000F0F9BCDFF8D207006B00280AD0DFF8CA07006B4E
S3510000B548072805D0DFF85608FFF714FB00F0E9BCDFF8B2070078002800F0E384DFF8A6078068002810D1DFF83A08FFF703FBDFF89607C068411CDFF88E07C1600121DFF8A207016000F0CDBCDFF81A08DA
S3510000B594DFF876178968FFF7EFFADFF86E07C068411CDFF86607C1600121DFF87A07016000F0B9BCDFF86E070068012824D1DFF8EE07FFF7D9FA0021DFF83E0701700020009080200190DFF8DA0702907B
S3510000B5E008200390DFF82A072521DFF8262752685201D2B2002301F0CFFADFF8121708630021DFF82607016000F08FBCDFF8FE06006B00280AD0DFF8F606006B072805D0DFF89607FFF7AAFA00F07FBC8F
S3510000B62CDFF8DE060078002800F07984DFF8D2068068002810D1DFF87A07FFF799FADFF8C206C068411CDFF8BA06C1600121DFF8CE06016000F063BCDFF85A07DFF8A2168968FFF785FADFF89A06C0681E
S3510000B678411CDFF89206C1600121DFF8A606016000F04FBCDFF89A060068012825D1DFF82E07FFF76FFA0021DFF86A0601700020009080200190DFF8AA06029012200390DFF856060321DFF85226526831
S3510000B6C45201D2B24FF4905301F064FADFF83A1608630021DFF84E06016000F024BCDFF82A06006B00280AD0DFF81E06006B072805D0DFF8D206FFF73FFA00F014BCDFF80A060078002800F00E84DFF87D
S3510000B710FE058068002810D1DFF8B206FFF72EFADFF8EA05C068411CDFF8E205C1600121DFF8F605016000F0F8BBDFF89606DFF8CE158968FFF71AFADFF8C205C068411CDFF8BA05C1600121DFF8CE0556
S3510000B75C016000F0E4BBDFF8C6050068012826D1DFF86606FFF704FA0021DFF8960501704FF48070009080200190DFF88E0502904FF400700390DFF87E052821DFF8762552685201D2B2002301F0F8F965
S3510000B7A8DFF8621508630021DFF87605016000F0B8BBDFF85205006B00280AD0DFF84605006B072805D0DFF80A06FFF7D3F900F0A8BBDFF832050078002800F0A283DFF82605806800280FD1DFF8EA05BC
S3510000B7F4FFF7C2F9DFF81205C068411CDFF80A05C1600121DFF81E0501608CE3DFF8CE05DFF8F6148968FFF7AFF9DFF8EE04C068411CDFF8E604C1600121DFF8FA04016079E3DFF8F2040068012825D19A
S3510000B840DFF8A205FFF79AF90021DFF8C20401704FF40060009080200190DFF8BA04029008200390DFF8AA045A21DFF8A62452685201D2B24FF03F4301F08EF9DFF88E1408630021DFF8A20401604EE3BB
S3510000B88CDFF87E04006B002809D0DFF87604006B072804D0DFF84605FFF76AF93FE3DFF862040078002800F03A83DFF85604806800280FD1DFF82A05FFF75AF9DFF84204C068411CDFF83A04C160012155
S3510000B8D8DFF84E04016024E3DFF80E05DFF826148968FFF747F9DFF81E04C068411CDFF81604C1600121DFF82A04016011E3DFF822040068012823D1DFF8E204FFF732F90021DFF8F203017000200090F1
S3510000B924002001900020029000200390DFF8DE031E21DFF8DA2352685201D2B24FF4807301F028F9DFF8C21308630021DFF8D6030160E8E2DFF8B203006B002809D0DFF8AA03006B072804D0DFF88A04B5
S3510000B970FFF704F9D9E2DFF896030078002800F0D482DFF88A03806800280FD1DFF86E04FFF7F4F8DFF87603C068411CDFF86E03C1600121DFF882030160BEE2DFF85204DFF85A138968FFF7E1F8DFF83D
S3510000B9BC5203C068411CDFF84A03C1600121DFF85E030160ABE2DFF856030068012824D1DFF82604FFF7CCF80021DFF8260301700020009080200190DFF86203029012200390DFF812030321DFF80A2347
S3510000BA0852685201D2B24FF4905301F0C1F8DFF8F61208630021DFF80A03016081E2DFF8E602006B002809D0DFF8DA02006B072804D0DFF8CE03FFF79DF872E2DFF8C6020078002800F06D82DFF8BA02F4
S3510000BA54806800280FD1DFF8B203FFF78DF8DFF8AA02C068411CDFF8A202C1600121DFF8B602016057E2DFF89603DFF88E128968FFF77AF8DFF88202C068411CDFF87A02C1600121DFF88E02016044E216
S3510000BAA0DFF886020068012824D1DFF86A03FFF765F80021DFF8560201704FF480700090002001900020029000200390DFF842022F21DFF83E2252685201D2B24FF4806301F05AF8DFF826120863002107
S3510000BAECDFF83A0201601AE2DFF81602006B002809D0DFF80E02006B072804D0DFF80E03FFF736F80BE2DFF8FA010078002800F00682DFF8EE01806800280FD1DFF8F202FFF726F8DFF8DA01C068411C39
S3510000BB38DFF8D201C1600121DFF8E6010160F0E1DFF8D602DFF8BE118968FFF713F8DFF8B601C068411CDFF8AE01C1600121DFF8C2010160DDE1DFF8BA010068012825D1DFF8AA02FEF7FEFF0021DFF87C
S3510000BB848A0101704FF48070009000200190DFF8860102904FF400700390DFF872012A21DFF86A2152685201D2B2082300F0F2FFDFF8561108630021DFF86A010160B2E1DFF84601006B002809D0DFF8D4
S3510000BBD03E01006B072804D0DFF84E02FEF7CEFFA3E1DFF82A010078002800F09E81DFF81E01806800280FD1DFF83202FEF7BEFFDFF80A01C068411CDFF80201C1600121DFF81601016088E1DFF816028A
S3510000BC1CDFF8EE108968FEF7ABFFDFF8E600C068411CDFF8DE00C1600121DFF8F200016075E1DFF8EA000068012825D1DFF8EA01FEF796FF0021DFF8BA0001704FF48070009000200190DFF8B60002906D
S3510000BC684FF400700390DFF8A2002A21DFF89A2052685201D2B2082300F08AFFDFF8861008630021DFF89A0001604AE1DFF87600006B002809D0DFF86E00006B072804D0DFF88E01FEF766FF3BE1DFF8A5
S3510000BCB45A000078002800F03681DFF84E00806800280FD1DFF87201FEF756FFDFF83A00C068411CDFF83200C1600121DFF84600016020E1DFF85601DFF81E108968FEF743FFDFF81600C068411CDFF8EF
S3510000BD000E00C1600121DFF8220001600DE1B034FF1F6839FF1F5B35FF1F4C35FF1FD034FF1FB9AE0000CE28FF1F9039FF1F0629FF1FE434FF1F9DAE00002429FF1F3F29FF1F5729FF1F7629FF1F9729EC
S3510000BD4CFF1FAE29FF1FC229FF1FE029FF1F2535FF1FFF29FF1F182AFF1F2E2AFF1F4D2AFF1FE534FF1F662AFF1F852AFF1FA12AFF1FC02AFF1FDF2AFF1FF82AFF1F0E2BFF1F2D2BFF1F0935FF1F552B86
S3510000BD98FF1F652BFF1F722BFF1F912BFF1FB02BFF1FC92BFF1FDF2BFF1FFE2BFF1F1D35FF1F1D2CFF1F362CFF1F4C2CFF1F6B2CFF1F8A2CFF1FA32CFF1FB92CFF1FD82CFF1FF22CFF1F102DFF1F2B2D07
S3510000BDE4FF1F4A2DFF1F662DFF1F822DFF1F9B2DFF1FBA2DFF1FE82DFF1FF22DFF1FF92DFF1F182EFF1F372EFF1F502EFF1F662EFF1F852EFF1F9D2EFF1FBD2EFF1FDA2EFF1FF92EFF1F142FFF1F312F19
S3510000BE30FF1F4B2FFF1F6A2FFF1F892FFF1FA22FFF1FB82FFF1FD72FFF1F5FF822010068012823D15FF81200FEF790FE00215FF852010170002000900020019000200290002003905FF866011B215FF827
S3510000BE7C6A2152685201D2B24FF4807300F086FE5FF88211086300215FF86E01016046E05FF89201006B002809D05FF89A01006B072804D0DFF87E00FEF762FE37E05FF8AE010078002832D05FF8BA01BA
S3510000BEC8806800280FD1DFF86600FEF753FE5FF8CA01C068411C5FF8D201C16001215FF8BE0101601DE0DFF84A005FF8E6118968FEF740FE5FF8F201C068411C5FF8FA01C16001215FF8E60101600AE0AD
S3510000BF14DFF82600FEF730FE5FF81202C068411C5FF81A02C16004B0BDE808407047F82FFF1F0F30FF1F2330FF1F4230FF1F000048F23C01C4F20401086840F4000008606FF0030147F20000C4F20300A9
S3510000BF6001604FF4965147F21010C4F2030001606FF0010147F21810C4F2030001606FF0020147F21810C4F203000160012147F21C10C4F2030001604EF28821CEF20001086840F0200008604EF208110C
S3510000BFACCEF20001086840F0200008607047000047F21811C4F20301086840F00100086047F21811C4F20301086840F0020008607047000047F21812C4F2030211686FF001000840106047F21812C4F2D9
S3510000BFF8030211686FF00200084010607047000008B547F21C10C4F20300006800F0010000282ED047F21C11C4F20301086840F001000860FFF7D8FF4EF28821CEF20001086840F0200008604EF208112E
S3510000C044CEF20001086840F020000860DFF82C000068002808DDDFF824000068411EDFF81C000160FFF7A8FFDFF810000068002801DCFFF7B3FFBDE8084070479439FF1F0FB408B54FF4965147F2101008
S3510000C090C4F20300016002990A204143DFF818000160FFF78BFFDFF8100000680028FADCBDE8084004B070479439FF1F0FB408B54FF4965147F21010C4F2030001600299DFF818000160FFF771FFDFF856
S3510000C0DC100000680028FAD1BDE8084004B070479439FF1F002144F20100C4F206000170982144F20000C4F20600017044F20600C4F20600007800F010000028F6D144F20600C4F20600007800F00C00F8
S3510000C12880080228F5D1182144F20400C4F206000170002144F20500C4F2060001704FF4803148F24400C4F204000160402144F20500C4F20600017044F20600C4F20600007800F020000028F6D044F22A
S3510000C1740600C4F20600007800F040000028F6D044F20001C4F20601087800F03F00087044F20600C4F20600007800F00C0080080328F5D10020704718B581B0DFF8A210DFF8A20081420DD0002408E09E
S3510000C1C0A100DFF896004258A100DFF88A004250641CB4F5826FF3D3DFF87A104EF60850CEF2000001604EF28811CEF20001086840F4007008604EF20811CEF20001086840F400700860FFF773FF0021BE
S3510000C20C4DF20000C4F20000016048F23401C4F20401086840F48020086048F20401C4F20401086840F4A0200860022148F24800C4F204000160402142F20010C4F20700017001B0BDE8184070470000F6
S3510000C258FF1F00A000000000002070470FB42DE9F84783B08A460E98042800F2AC804FEA80008744F0BF00F0A6B800F006B800F051B800F002B800F02BB8282004F0EAFA06460020B04200F09680304655
S3510000C2A40021282204F066FBDFF8280101680020814203D1DFF81C01066009E0DFF81401076800E0BF68B96800208142FAD1BE600C983061C6F814A00C985146324603F04DFA72E0DFF8EC00056818E0C8
S3510000C2F06869504514D1072004F0B8FA28620021286A814263D0012028760095DFF8CC000190029500A8296A072200F0E1FB56E0AD68696900208142E2D150E04FF00009DFF8A400046846E060695045CC
S3510000C33C41D10020814504D1A168DFF89000016002E0A068C9F808004FF0000817E0616A062008FB00F00818007900F00100002809D02068006921688968C97B08F10102D2B202F025FD08F10108C8F3B1
S3510000C3880F08607E8045E4DB216A0020814202D0206A04F06DFAE1690020814202D0E06904F066FA616A0020814202D0606A04F05FFA204604F05CFA05E0A146A468616900208142B4D103B0BDE8F84741
S3510000C3D404B070479C39FF1FE1C300000FB42DE9F84785B016460F9C0294DFF8860403900494207E092800F236824FEA80008744F0BF00F030BA00F010B800F030B800F072B800F083B800F09DB800F00F
S3510000C420A0B900F0FAB800F005B900F058B9B0786076304604F020FA617E881001EB5070C010083087B2384604F010FA20620021206A814200F00982206A00213A4604F08BFA0220207602A8216AFAB216
S3510000C46C00F038FBFBE1B146617E0620484304F0F7F960620021606A814200F0F081606A0021627E06235A4304F070FA002524E0691C881001EB5070C0104844C079626A062169435054606A06216943ED
S3510000C4B8401803784FF0010C691CCA0FC2EB417102EB71710CFA01F1C9B2194001700022606A06216943401802716D1CADB2607E8542D7DB304604F0C3F90320207600206083618B607E81420ADA608B43
S3510000C504401C80B2608302A8618BC9B2082200F0FFFAA8E10420207600206083618B607E81420ADA608B401C80B2608302A8618BC9B2102200F002FB95E1042004F094F920620021206A814200F08D8104
S3510000C5500520207600206083608B00280FD0707800F0FF000102307800F0FF00084380B2636A628B062151435918091F0880618B607E81420BDA608B401C80B2608302A8618BC9B2226A042300F0E8FA01
S3510000C59C65E1617E881001EB5070C010401C87B2384604F05DF9E0610021E069814200F05681E06900213A4604F0D8F900251FE0616A062068430818408800F00100002814D065830A202076616A062095
S3510000C5E868430818011D087840F00100087002A8618B491CC9B2042200F088FA824604E06D1CADB2607E8542DCDB204600F08CF927E10A20207602A8618B491CC9B2042200F074FA204600F07FF91AE18B
S3510000C634626A618B062048431018408800F48060002801D002250CE0626A618B062048431018408800F40070002801D0012500E0002520680069E9B20E9A127F638B5B1CDBB202F0E3FA002528E0616A1C
S3510000C680062068430818408800F0010000281DD0616A062068430818007900F00100002814D165830A202076616A062068430818011D087840F00100087002A8618B491CC9B2042200F026FA019004E0AA
S3510000C6CC6D1CADB2607E8542D3DB204600F02AF9C5E0206800690E99097F628B521CD2B202F06EFB0020636A628B0621514359180871002528E0616A062068430818408800F0010000281DD0616A062042
S3510000C71868430818007900F00100002814D165830A202076616A062068430818011D087840F00100087002A8618B491CC9B2042200F0E4F9009004E06D1CADB2607E8542D3DB204600F0E8F883E0307889
S3510000C76400F0FF02707800F0FF000102F07800F0FF000006B37803F0FF031B041843084342EA0008C8F30F01606A638B06225A438018418008F4803000281DD0626A618B062048431018007900F00100E5
S3510000C7B0002809D00920207602A8618B491CC9B2102200F0BDF950E00720207602A8618B491CC9B2102200F0B3F946E008F48010002813D008202076626A618B062048431018011D087840F001000870A5
S3510000C7FC02A8618B491CC9B2142200F09BF92EE008F40030002809D00920207602A8618B491CC9B2112200F08DF920E008F4002000280CD00A20207602A8618B491CC9B2132200F07FF9204600F074F8ED
S3510000C8480FE008F0807000280BD00A20207602A8618B491CC9B2182200F06EF9204600F063F805B0BDE8F84704B07047C046E1C3000000000FB42DE9F04383B00B9C0C9E72B6204602F0E2FC002843D075
S3510000C8942768B86802F010FB002801D062B63CE0002087F8210062B600251FE0705D00281AD0E800C0F30F084FF0000910E0705D00F00100002814D1701901784908017009F10109C9F30F0908F101084B
S3510000C8E0C8F30F08B9F1080FEBD304E06D1CADB20D988542DCD30094DFF82E000190029406202076A8F1010080B2608300A8C8F30701226A042300F029F900E062B603B0BDE8F04304B07047C046E1C3DB
S3510000C92C0000000078B58DB00546CA2672B6284602F08AFC002804D02C68A06802F0B8FA0646002E1BD194F82100002817D1012084F8210000A8DFF834102A4602F0ECFFE8690290697E881001EB5070CB
S3510000C978C010401C04902069E16900AA01F028FE064662B630460DB0BDE878407047C0467DC80000F8B507460D462C6838462146DFF8482002F0EAFB0646002E11D100206860284602F04AFC6860384617
S3510000C9C40021002202F090FBA06138460321002202F08AFBE061002E05D1E069002802D0A069002801D100206860BDE8F8407047A039FF1F0FB418B581B0059C002084F82000606A002808D0089800900F
S3510000CA100498A16A069A079BD4F824C0E04701B0BDE8184004B070470FB42DE9F04383B006469946DDF838800F9FCA2572B6306802F008FC002805D030680468A06802F035FA0546002D04D194F820008E
S3510000CA5C002800D08525002D32D170686062B068A0620BA8017801A801700CA8017801A841704FEA2920C1B201A8C170C9F3070101A881704FEA2820C1B201A84171C8F3070101A801713812C1B201A875
S3510000CAA8C171F9B201A881710094A06801A9109ADFF8203003F026FA0546072D02D1012084F8200062B6284603B0BDE8F04304B07047C046F9C900000FB418B583B0002472B60020009008A800780190CF
S3510000CAF4079802900698A02106220023FFF792FF044662B6204603B0BDE8184004B070470FB400B583B005A800780090002001900020029004982321032206AB1B78FFF779FF03B05DF804EB04B07047CF
S3510000CB400FB400B583B005A800780090002001900020029004982321012206AB1B78FFF763FF03B05DF804EB04B070470FB400B583B005A80078009007A800780190069802900498A32100220023FFF7FC
S3510000CB8C4DFF03B05DF804EB04B070470FB42DE9F843044698460C9F0F9E4FF000090025A06800F10F0509A8007828700AA8007868704FEA1860C0B2A8704FEA1840C0B2E8704FEA1820C0B22871C8F30B
S3510000CBD807006871380EC0B2A871380CC0B2E871380AC0B22872F8B26872300EC1B2A068C172300CC1B2A0688172300AC1B2A0684172F1B2A06801720CA80179A0680173606800F00F01A068407B00F038
S3510000CC24F0000843C1B2A0684173A068807B00F0F00040F00C00C1B2A06881730E986061A6612068214600F0ADF8BDE8F84304B0704700000FB408B5029824300021182203F088FEBDE8084004B07047EF
S3510000CC700FB430B4029800F124044FF0FF3572B62069042810D20399607D80002150657D607D032801D1002001E0607D401CC0B260752069401C206162B6284630BC04B0704700000FB418B4029800F1E2
S3510000CCBC240472B6206900280FD00021207D80002150207D032801D1002001E0207D401CC0B220752069401E206162B618BC04B0704700000FB430B40D46029800F1240472B62069002804D0207D8000C6
S3510000CD082058286001E00020286062B630BC04B07047000070B506460D462C6830462146DFF8762002F02AFA002833D172B600206860284602F08AFA6860686800281FD030460021002202F0CDF9A061E8
S3510000CD5430460221002202F0C7F9E06130460221012202F0C1F92062A06900280AD0E069002807D0206A002804D02046FFF76AFF62B609E020460021042203F0F3FD002028600020686062B6BDE87040C9
S3510000CDA07047A439FF1F00002DE9F04782468846CA26D8F8084072B6504602F04BFA002805D0DAF80050A86802F078F80646002E01D0072E2ED14320E0704220A0705320607055202070686B002801D165
S3510000CDEC012000E00020C0F3070928464146FFF739FF0746002F15DB022088F81C00380EC0B2E071380CC0B2A071380AC0B26071F8B22071B9F1000F06D0284600F04EF9064601E06FF0010662B63046DF
S3510000CE38BDE8F047704700000FB478B581B00E460A9C00200090002E04D03546284600A9FFF74AFF009800282AD0002C01D0072C0BD109981F2801D0012406E0042100980177284600F024F90446002CC7
S3510000CE8418D0852C16D0072C14D00121009801776FF006002946009A009B1B6ADDF800C0DCF810C0E0472846FFF702FF284600F009F9044601B0BDE8784004B0704700000FB4F8B50F460A9C0020009003
S3510000CED0002F04D03D46284600A9FFF709FF0098002843D0099900980162002C07D0072C05D0972C0BD108990020814207D0062100980177284600F0DFF8044611E0862C0FD10621009801770098017F78
S3510000CF1C00984177284600F075F90646002E02D0072E00D00124002C1AD0862C18D0852C16D0072C14D00121009801776FF007002946009A009B1B6ADDF800C0DCF810C0E0472846FFF7A8FE284600F04A
S3510000CF68AFF80446BDE8F84004B070470FB42DE9F04782B00E9D002600200190002400270B98002804D00B9E304601A9FFF7ACFE0198002800F08F80002D66D10198C468207900F0FF00617901F0FF01EB
S3510000CFB40B02E17901F0FF010A06A17901F0FF0109041143194340EA010801988068007900F0FF0301988068407900F0FF00020201988068C07900F0FF00010601988068807900F0FF00000408431043F4
S3510000D00043EA0009207800F0FF03607800F0FF000202E07800F0FF000106A07800F0FF0000040843104343EA000A0D980D2807D145F25530C5F24230824501D1C84508D00125002D25D0852D23D0072DEF
S3510000D04C21D001271FE0207B002802D0012805D019E0002101980177012714E009210198017701270FE0862D09D10125002D0AD0852D08D0012101980177012703E00121019801770127002F13D02846F1
S3510000D0983146019A019B1B6ADDF804C0DCF810C0E0473046FFF702FE706B002803D0304600F006F8054602B0BDE8F04704B0704770B58EB00446002000900025204600A9FFF70AFE00990020814203D1E6
S3510000D0E462B66FF0030086E00098007F092800F281804FEA80008744F0BF00F07BB800F079B800F00EB800F075B800F01CB800F071B800F05EB800F06DB800F06BB800F069B801A8DFF8D810224602F0B7
S3510000D13009FC0098806802901F2004902069216A01AA01F023FA054656E000988068007A00F0FF0100988068407A00F0FF000002009A9268D27A02F0FF021306009A9268927A02F0FF0212041A4310431B
S3510000D17C0843002829D001A8DFF88010224602F0DBFB00988068007B00F08006002E02D0802E0DD02AE00098406902900098806904902069216A01AA01F0EAF905461DE000984069039000988069059002
S3510000D1C82069E16901AA01F003FA054610E001A8DFF83010224602F0B1FB0098C06803900D2005902069E16901AA01F0F1F9054628460EB0BDE870407047C04641CE0000C5CE000075CF0000F8B50446D4
S3510000D2140025002600200090204600A9FFF766FD00990020814202D16FF0030023E000988068007B00F08000802802D1E669802701E0266A0027A068DFF83010224602F0D5FC0546002D01D0072D0BD19A
S3510000D2600E2100980177A0680221727F3A43D2B2002302F047FD05462846BDE8F840704791D30000F8B584B00446002600200390A7680025204603A9FFF72AFD03990020814202D16FF0030029E02121B0
S3510000D2AC01A80170FF2101A84170002101A8C170002101A88170E06880780012C1B201A84171E0688078C1B201A80171002101A8C171002101A881710D21039801770094A06801A90022DFF8123002F08C
S3510000D2F809FE0546284604B0BDE8F840704791D3000000000FB478B583B00646CA2572B6304601F09BFF002804D03468A06801F0C9FD0546002D02D062B6284627E0A12101A80170FE2101A8417000214D
S3510000D34401A8C170002101A88170E06880780012C1B201A84171E0688078C1B201A80171002101A8C171012101A8817100200090A06801A9099A0A9B02F0C6FD054662B6284603B0BDE8784004B07047B0
S3510000D3900FB4F8B50F460A9D00200090002F04D03C46204600A9FFF7A3FC0098002865D0002D01D0072D4CD10098007F0A38042842D84FEA80008744F0BF00F01FB800F032B800F039B800F002B800F0D4
S3510000D3DC2CB8E669A068DFF8A010224602F00AFC002845D1A0680221727F42F08002D2B2002302F081FC05460A210098017737E0266AA068DFF87010224602F0F3FB00282ED1A0680221727FD2B20023FB
S3510000D42802F06CFC05460B210098017722E00098417F009801772046FFF742FE054619E02046FFF71BFF054614E0862D12D101210098017728462146009A009B1B6ADDF800C0DCF810C0E0472046FFF7BF
S3510000D4741FFC2046FFF726FEBDE8F84004B0704791D300000FB40021DFF8380001600021DFF8300041600221DFF8280081600199DFF82000C1600099DFF8180001610021DFF8100041610021DFF80C00B5
S3510000D4C00160002004B07047483BFF1FA839FF1F0FB4F0B4DFF8CC008068012801D101205DE0DFF8C4000068411CDFF8BC000160DFF8B40000680A2803D10021DFF8A8000160DFF8A820DFF8A000016876
S3510000D50C1420484314182546049EDFF88C00C068471C05E03046361D29462D1D006808607F1E002FF6D1DFF87000806802280AD10020E06000202061DFF85C000460DFF8580044600CE00020E060DFF85B
S3510000D5584C0040682061DFF844004068C460DFF83C004460DFF834004069411CDFF82C004161DFF828004169DFF820000069814204D10121DFF81400816003E00021DFF80C0081600020F0BC04B070472A
S3510000D5A4483BFF1FA839FF1FAC39FF1F0FB4F0B4DFF890008068022801D102203FE0DFF884000468049D2646DFF87800C068471C05E03046361D29462D1D006808607F1E002FF6D1DFF85C004069012822
S3510000D5F008D10021DFF8500001600021DFF84800416008E0E168DFF8400001600021DFF8380000680161DFF830004069411EDFF828004161DFF820004069002804D10221DFF81400816003E00021DFF8CC
S3510000D63C0C0081600020F0BC04B07047483BFF1F10B5044604202070002060600020BDE8104070470FB418B404462078042805D16168039808436060042000E0052018BC04B070470FB418B404462078AD
S3510000D688042806D161680398C04308406060042000E0052018BC04B0704700000FB418B404462078042808D1616803980840002801D0022002E0032000E0052018BC04B07047000038B5DFF81A400025AD
S3510000D6D403E0002020716D1C10340A2DF9D3BDE838407047C046A83AFF1F00000FB438B50024DFF8365000240AE02879002805D1281D04990C2203F02BF903E0641C10350A2CF2DB0A2C00DA01E04FF0E6
S3510000D720FF342046BDE8384004B07047C046A83AFF1F00000FB42DE9F04782B01446DDF838904FF00A0A0021DFF8AA040160CDF800902089814502D9B4F80890FFE7C9F30F09DFF8965494F820000028CB
S3510000D76C03D1207F00F07F0004E0207F00F07F0040F08000C0B242F29801C4F2070108700B98012801D1802000E0002040F0400040F0040040F0080040F00100C0B242F2C001C4F207010870E07F032800
S3510000D7B802D14FF0000801E0D4F80C8000260020074619E00120FEF759FC781C0746DFF826040F2100220123FFF760FF022801D1012000E0002000280FD0322F04D14FF60006CFF6FF7608E042F2940099
S3510000D804C4F20700007800F020000028DCD1002E40F01F8142F28001C4F20701087840F00400087042F28000C4F20700007800F004000028F6D0002042F2AC01C4F20701087042F28001C4F20701087826
S3510000D85040F004000870FF2042F28801C4F2070108700A98002805D0012848D0022800F08D80D6E0DFF88A034FF60061CFF6FF71084040F01001687800F00100C000084320630D9ADFF86A034FF6006153
S3510000D89CCFF6FF71084040F01001687800F00100C0000843426040F2FF3009EA0000000440F08002DFF83E034FF60061CFF6FF71084040F01001687800F00100C00008430260607F00F00F0040F0D0005C
S3510000D8E8C0B242F2A801C4F207010870687890F00100687091E0DFF802034FF60061CFF6FF710140287800F00100C000084320630D9ADFF8E6024FF60061CFF6FF710140287800F00100C00008434260E8
S3510000D93440F2FF3009EA0000000440F0800194F82C0000F00100800141EA0002DFF8AE024FF60061CFF6FF710140287800F00100C00008430260607F00F00F0040F09000C0B242F2A801C4F2070108707D
S3510000D9802946087890F0010008704AE0DFF872024FF60061CFF6FF71084040F01001687800F00100C000084320630D9ADFF852024FF60061CFF6FF71084040F01001687800F00100C0000843426040F24F
S3510000D9CCFF3009EA0000000440F0800194F82C0000F00100800141EA0002DFF81A024FF60061CFF6FF71084040F01001687800F00100C00008430260607F00F00F0040F01000C0B242F2A801C4F207011B
S3510000DA180870687890F001006870002007460DE00120FEF747FB781C0746B7F57A7F05D16FF00F06DFF8B601046008E0DFF8B6010F2100226423FFF729FE0328E8D0DFF8A601406800F00200002804D034
S3510000DA644FF60006CFF6FF76BCE0DFF88E01406800F00400002800F0AE80DFF87E010421FFF7FCFD206B0068019042F28800C4F20700007800F0AD00002806D042F28800C4F20700007846429CE00198FF
S3510000DAB0800800F00F000F2800F28F804FEA80008744F0BF00F041B800F087B800F01AB800F018B800F081B800F07FB800F07DB800F07BB800F079B800F077B800F020B800F008B800F071B800F06FB818
S3510000DAFC00F011B800F060B84FF000080198000C40F2FF3100EA010694F82C0090F0010084F82C005BE04FF60046CFF6FF764FF0000854E06FF0FF06B8F1000F4FD0E068A0EB08000AFB00F0FEF79EFAE4
S3510000DB4847E0E07F01282AD00020074618E00120FEF7B0FA781C0746B7F5FA7F10D16FF00F000646DFF886000460B8F1000F11D0E068A0EB08000AFB00F0FEF77FFA09E0DFF872000F210022CAF30F0331
S3510000DB94FFF786FD0328DCD0B7F5FA7F7FF459AF19E04FF000080198000C40F2FF3100EA010694F82C0090F0010084F82C000AE04FF60066CFF6FF76E068A0EB08000AFB00F0FEF755FA4146A8F1010032
S3510000DBE0804600297FF4EEAD304602B0BDE8F04704B07047C046743AFF1F6C3BFF1F603BFF1F7430FF1F00000FB42DE9F84781B089461446DDF83880DDF828A00025002600274FF60040CFF6FF708045E9
S3510000DC2C01D186272EE06FF0FF00804502D0B8F1000F23DB00270D98002803D16FF0FF00804500D1972799F81F0000280CD194F83000002805D0E6686568002084F8300010E02669A5680DE099F81E0077
S3510000DC78002802D0E668656806E02669A56803E0B8F1000F00DA97270020E06300202060E06B00280CD160690021884208D000974846A1692A460D9BF31AD4F814C0E04701B0BDE8F84704B07047000096
S3510000DCC4F8B5064600254FF0FF37DFF8304000250DE0A1687068814207D1E168B068814203D100202071002005E06D1C10340A2DEFDB4FF0FF30BDE8F8407047A83AFF1F0FB410B500240A200321FFF738
S3510000DD10BBFB002801D08D204BE0DFF89E00FFF795FCFF2142F28000C4F20700017042F29401C4F20701087840F002000870DFF87E000021202202F017FEDFF87600000AC1B242F29C00C4F20700017004
S3510000DD5CDFF86200000CC1B242F2B000C4F207000170DFF85200000EC1B242F2B400C4F207000170FF2142F2AC00C4F207000170402142F28400C4F207000170082142F29400C4F207000170FFF792FCD3
S3510000DDA8DFF81A00FCF718FF2046BDE8104004B07047603BFF1F6C3BFF1F7430FF1F65DE00000000002070470FB418B583B00024022100A80170079801900898029000A8FFF772FB204603B0BDE8184068
S3510000DDF404B070470FB400B583B000A8FFF7D6FB0028FAD0002003B05DF804EB04B070470FB418B583B00024032100A80170079801900898029000A8FFF750FB204603B0BDE8184004B070470FB4002011
S3510000DE4004B070470FB442F2A400C4F207000078010242F2A000C4F207000078084304B07047000008B582B0DFF87E050068C069002800F009820021DFF872050173DFF8720500F055FB00280ED1DFF8C7
S3510000DE8C6A05D0F80022DFF86205D0F80002411EDFF85605C0F80012002A18D10A21DFF84A05C0F80012DFF83E05FFF77BFB00280DD1DFF82E050069C07F032807D1DFF82605DFF81E1509694968FFF7F4
S3510000DED80BFCDFF81205007B002800F0D181DFF80605007B012806D0022800F03F81032800F0EA808AE1082000900020DFF8E2140968496BDFF8DE241269DFF8DA345B693133FFF70BFCDFF8CE0440697E
S3510000DF240069002858D0DFF8C20440698168DFF8BA040162DFF8B20440690169DFF8AA0481612DE0DFF8A204806980B200900120DFF892140968496BDFF88E241269DFF88A341B6AFFF7E4FBDFF87E1470
S3510000DF70C861DFF87A04C069002818DBDFF86E04016ADFF86A04C0690918DFF862040162DFF85A048169DFF85604C069091ADFF84E048161DFF8460480690028CCD10121DFF83A04006980F82C100020D0
S3510000DFBC00900220DFF826140968496BDFF8222412690023FFF7B0FBDFF81614C8611BE1DFF80E044069C068002858D0DFF8020440694168DFF8FA030162DFF8F6034069C168DFF8EE0381612DE0DFF809
S3510000E008E603806980B200900220DFF8D6130968496BDFF8D2231269DFF8CA331B6AFFF785FBDFF8C213C861DFF8BA03C069002818DBDFF8B203016ADFF8AA03C0690918DFF8A2030162DFF89E03816962
S3510000E054DFF89603C069091ADFF88E038161DFF88A0380690028CCD10121DFF87E03006980F82C10002000900120DFF86A130968496BDFF8662312690023FFF751FBDFF85A13C861BCE00121DFF84E03EE
S3510000E0A0006980F82C10002000900120DFF83A130968496BDFF8362312690023FFF73AFBDFF82A13C8610021DFF822038161A1E0DFF81A0340698168DFF812030162DFF80E0340690169DFF806038161AF
S3510000E0ECDFF8FE02806980B200900120DFF8EE120968496BDFF8EA221269DFF8E6321B6AFFF712FBDFF8DA12C861DFF8D602C0690028C0F27980DFF8CA02016ADFF8C202C0690918DFF8BA020162DFF817
S3510000E138B6028169DFF8AE02C069091ADFF8A6028161DFF8A2028069002808D0DFF89602C169DFF89202006900898142C2DADFF886028169DFF87E02C1614FE0DFF8760240694168DFF86E020162DFF8F3
S3510000E1846A024069C168DFF862028161DFF85A02806980B200900220DFF84A120968496BDFF846221269DFF842321B6AFFF7C0FADFF83612C861DFF83202C069002827DBDFF82602016ADFF82202C06928
S3510000E1D00918DFF81A020162DFF812028169DFF80E02C069091ADFF806028161DFF8FE018069002808D0DFF8F601C169DFF8EE01006900898142C3DADFF8E2018169DFF8DE01C161DFF8D601C069002873
S3510000E21C18DADFF8CE010069C07F03282ED0DFF8C201C0690090DFF8B6010068DFF8B2110969DFF8AE215269DFF8A6319B69FFF7DDFC1BE0DFF89A01C0690090DFF88E010068DFF88E110969DFF88621B6
S3510000E2685269DFF882319B69FFF7CAFCDFF876010069C07F032803D1DFF86E01FFF71EFDDFF86E01406800F00F00002800F0A480DFF85E01406800F0010000286AD0002142F29800C4F20700017064201A
S3510000E2B4FDF7E6FE42F29400C4F20700007800F08000002801D0002000E00120C1B2DFF8160100684163DFF80E010068406B002807D142F29801C4F20701087840F080000870FF2142F28000C4F207008F
S3510000E3000170092142F28400C4F20700017042F2C001C4F20701087840F08000087042F29401C4F20701087840F0100008700A20FDF7A8FE42F29401C4F20701087800F0EF00087042F29401C4F2070187
S3510000E34C087840F0010008706420FDF795FEDFF88E000068DFF886100968496BC9B20022002300F067FCDFF886000121FFF782F9DFF87A00406800F0020000282AD042F28001C4F20701087840F0400079
S3510000E398087042F28000C4F20700007800F04000002814D1DFF83A0000680021002200F009FD42F28001C4F20701087840F040000870402142F28400C4F207000170DFF822000621FFF750F902B0BDE80B
S3510000E3E408407047C046903BFF1F743AFF1F803AFF1F7430FF1F603BFF1F00000FB418B583B00024012100A80170079801900898029000A8FFF75AF80446204603B0BDE8184004B07047000010B542F2A2
S3510000E4308000C4F20700017842F28400C4F2070000780840C4B2002C28D042F28000C4F20700047004F0400000280CD042F28401C4F20701087800F0BF000870DFF832000121FFF7F5F804F008000028A8
S3510000E47C04D0DFF822000421FFF7ECF804F001000028CED0DFF80E000221FFF7E3F8C8E7BDE810407047603BFF1F00000FB430B40C46607F810042F2C000C4F207000D18E07F032815D84FEA80008744B0
S3510000E4C8F0BF00F006B800F010B800F00EB800F006B8287840F00C002870656305E008202870656301E0902000E0002030BC04B07047000070B50E46F07F03280DD1DFF82240002507E0A068B04201D1F6
S3510000E514002020716D1CADB210340A2DF5D30020BDE870407047A83AFF1F00000FB4F8B54FF0FF37DFF848400025002605E02079002800D02546761C10340A2EF7DB002D11D0DFF830000168A86881420C
S3510000E56005D10021DFF820000160384606E00698291D0C2202F0F6F900273846BDE8F84004B07047A83AFF1F743AFF1F0FB42DE9F84181B080460F4672B638460A9900AA00F078FA0446072C02D062B6F0
S3510000E5AC20460DE046463D4640462946009A00F043F8044662B6002C01D1072000E0204601B0BDE8F84104B0704700000FB42DE9F8438146884672B640460A9900AA00F053FA0546072D02D062B6284682
S3510000E5F80DE04F46464648463146009A00F04AF8044662B6002C01D1072000E02046BDE8F84304B070470000F8B5074600253E46B46A21680020814203D038462168884705462846BDE8F84070470000B7
S3510000E6440FB4F8B5074600253E46B46AA1680020814205D038460799089AA368984705462846BDE8F84004B0704700000FB4F8B5074600253E46B46AE1680020814205D038460799089AE36898470546DA
S3510000E6902846BDE8F84004B0704700000FB4F8B5074600253E46B46A21690020814205D038460799089A2369984705462846BDE8F84004B0704700000FB4F8B5074600253E46B46A61690020814205D08A
S3510000E6DC38460799089A6369984705462846BDE8F84004B0704700000FB4F8B5074600253E46B46A216A0020814204D038460799226A904705462846BDE8F84004B070470FB4F8B5074600253E46B46AB4
S3510000E728E16A0020814204D038460799E26A904705462846BDE8F84004B070470FB4F8B5074600253E46B46A216B0020814204D038460799226B904705462846BDE8F84004B070470FB4F8B5074600252F
S3510000E7743E46B46A616B0020814204D038460799626B904705462846BDE8F84004B070470FB42DE9F04107469046382002F064F8DFF832110860DFF82E0100680021382202F0E0F8DFF81E0101680020E4
S3510000E7C0814201D1812084E00021DFF80E010068C161DFF80601006880F82C700799DFF8FA00006841614FF4A86002F03FF8DFF8EA1009684862DFF8E2000068406A00214FF4A86202F0B8F8DFF8CE0027
S3510000E80C0068416A0020814206D1DFF8C200006802F02CF8812056E0DFF8B2000068406A00214FF4A86202F0A1F872B6DFF8A250382078432918DFF8960000688162DFF88E000068806A00280DD1DFF8DA
S3510000E85882000068406A02F00BF8DFF87600006802F006F862B689202FE03846FDF7F4FC0646002E0DD0DFF85A000068406A01F0F7FFDFF84E00006801F0F2FF62B6C4201BE0DFF83E000068FFF7BEFEF8
S3510000E8A4044662B6002C0CD0DFF82A000068406A01F0E0FFDFF81E00006801F0DBFF204605E0DFF812000068C8F800000020BDE8F04104B07047903BFF1F3427010000000FB438B50C4606A8007800285B
S3510000E8F00BD004982146FFF7FDFE06E0A56AA06A006CA062284601F0B7FFA16A00208142F4D1002084F82400BDE8384004B070470FB42DE9F0478246564672B64FF0000800240AE0706A3821614340186A
S3510000E93C90F82400002801D008F10108641C182CF2D3002408E0716A38206043081890F82400002802D0641C182CF4D362B6182C01D390202BE0716A382060430D180A9805602F46099A3B464FF0040C51
S3510000E98803CA03C3ACF1010CBCF1000FF8D110681860002085F82C0020B26884012085F8240050462946FFF7B5FE8146B9F1000F06D0504629460022FFF790FF902000E00020BDE8F04704B0704700009B
S3510000E9D40FB470B5442001F047FF04460020844201D1002016E020460021442201F0C2FF049DAE6A0020864204D12464206CA86207E0366C316CA86A8142FAD13464A86A20642046BDE8704004B0704709
S3510000EA202DE9F04180460F46002F01D100202DE04646B46A72B60020844209D14046FFF7C9FF0446002084421DD162B600201DE025462868002801D12C4614E02868B84202D162B6002011E0286CA04294
S3510000EA6C09D14046FFF7B0FF04460020844204D162B6002004E02D6CE5E7276062B62046BDE8F041704700002DE9F84381460D4690464E46B6F92200182801DD8F2025E048462968FFF7B6FF044600208F
S3510000EAB8844201D181201BE027462B46062203CB03C7521E002AFAD1296B002081420AD02B6B04F13102082118785B1C1070521C491E0029F8D10720E063C8F800400720BDE8F843704700000FB478B537
S3510000EB0481B00E4672B63046089900AAFFF7C0FF0446072C02D062B620461DE03546002085F82C00009890F8310000F08000002801D1012000E00020C1B2009880F8301006982946009AFFF791FD04467A
S3510000EB5062B6002C01D1072000E0204601B0BDE8784004B0704700002DE9F8438146484600F0A4F98046B8F1000F01D040461CE04C46002607E02046B1006118896C00F0A9FC761CF6B2207D8642F4D354
S3510000EB9C72B665682F68284601F068FE3D462F6800208542F7D10020606062B60020BDE8F84370472DE9F04706468A469046994672B6304600F074F9074662B6002F01D038462BE0B8F1000F02D0B8F124
S3510000EBE8060F01D3C72023E00AF10F014FF6FC70084001F037FE04460020844201D1C62016E071680020814201D1746007E0756800E02D68296800208142FAD12C6000202060C4F80480C4F808A0C9F895
S3510000EC3400400020BDE8F047704700000FB42DE9F0418AB0804600254646C82001F00CFE04460020844201D1C62070E020460021C82201F087FEC4F8088011A80078207312A80078607313A80078A0738B
S3510000EC800020608272B6F0692060F46125460120E8732C6809E0E97BE07B814204D1E87B401CC0B2E87303E0246800208442F2D10020844202D0E87B7F28EAD92C46E07B7F2807D92068F06162B620465B
S3510000ECCC01F0D4FD9A2036E062B6DFF874C001AB0422BCE8030003C3521E002AF9D1DCF8000018600194002101A8C177217B01A880F82010A06801A904F11C02FFF70AFE002804D0204601F0B1FD9B204F
S3510000ED1813E00120A06104F12C00009020464FF480710022082301F02BF80746072F03D00020A061C82000E000200AB0BDE8F04104B070476C2701002DE9F04107460D46002085421CD0B84672B6AC6A04
S3510000ED64002C10D00CE000206061384629462246FFF7A8FC0646002020600020E063246C20680028EFD1AC6A3846294600F002FEAC6262B6BDE8F04170470000F8B505462868866868680779002407E0CF
S3510000EDB03046A10069188968FFF7CAFF641CE4B2BC42F5D3BDE8F840704700000FB4F8B507463E4606F11C0572B62C680DE0A17B08A80078814207D1617B07A80078814202D1A068B84203D0246800205E
S3510000EDFC8442EED162B60020844220D061680020814203D02046022100F01EF8002020623846E169FFF796FF61680020814202D02046FFF79BFE72B600E02D682868A042FBD120682860204601F018FD85
S3510000EE4862B6BDE8F84004B0704700000FB438B5054672B668680C300090009A0098C07800F0FF0001020098807800F0FF00084380B214180099009800780818009000984078042804D128460099059A85
S3510000EE9400F08EFA0099009800780818009000980078002802D00098A042EAD362B6BDE8384004B0704700000FB4F0B4049DAE68F46900E02468AC4202D000208442F9D10020844201D1C02700E000277D
S3510000EEE03846F0BC04B070470FB4F8B50746154672B63846FFF7E2FF0446002C02D062B6204612E03E46304607A90988052200ABFFF756FE0446002C02D00020286002E000980C30286062B62046BDE856
S3510000EF2CF84004B0704700000FB42DE9F80182B0884617461C460D9E00203060089DA869062801D2C120C6E0012F04D105F12C0030600020BFE06868019001980C300190022F00F0B58001990198C078C8
S3510000EF7800F0FF000002019A927802F0FF02104380B208180090082F00F27C804FEA87008744F0BF00F076B800F074B800F072B800F05EB800F008B800F026B800F05AB800F058B800F056B80198007940
S3510000EFC4A04201D2C8208AE00199019800780818019001990098814201D3C8207FE0019840780428F0D101988078A042ECD10198C1780CA800788142E6D16DE0CDF8048001990020814201D1C82068E08D
S3510000F01001984078042803D101980078092801D0C8205EE0002C03D001980079844201D9C82056E00199019800780818019001990098814201D3C8204BE001984078042805D0052800D004E0641EE4B2D2
S3510000F05C01E0C8203FE0002CE6D139E0C8203AE00199019800780818019001990098814201D3C8202FE001984078B842F0D127E00020804501D0CDF8048001990020814201D1C8201FE00199019800786D
S3510000F0A80818019001990098814201D3C82014E001984078042804D10020804501D0C8200BE001984078B842E7D12046641EE4B20028E2D101983060002002B0BDE8F80104B070472DE9F843044689461B
S3510000F0F490462068FFF7E0FE002801D000203CE0B9F1030F0ED84FEA89008744F0BF00F006B800F009B800F007B800F005B82068C0692AE0002028E0B8F1000F05D0B8F1010F02D0FFE700201FE0606802
S3510000F140009000984078042803D100980078092801D0002013E00098077900260CE0B00020188568E87F484504D1A87F404501D1284604E0761CF6B2BE42F0D30020BDE8F84370470FB42DE9F0470646D0
S3510000F18C8A46002472B63068FFF792FE8146B9F1000F02D062B648464FE03768D6F8048098F80100042803D198F80000092802D062B6CA2041E07D680020854202D162B6CA203AE06868052803D105F116
S3510000F1D80C00504501D02D68F0E70A990020814202D162B6CC202AE050460021AA6801F0BFFB0A9C00E02468216800208142FAD1C4F800A05446002020600A9860603068A0607068E060B8682061DFF8C3
S3510000F2242C000068411CDFF824000160DFF81C0000680028F3D0DFF814000068606162B60020BDE8F04704B07047C046943BFF1F0FB430B4029C25686068002807D061686869814201D1012000E0002096
S3510000F27002E068696060606830BC04B0704700002DE9F04705460E461446607800F0FF000102207800F0FF00084387B2E07800F0FF000102A07800F0FF000843C0F30F0847EA080000281DD095F8350029
S3510000F2BC00F0FF00000295F8341001F0FF010843C0F30F0995F8370000F0FF00010295F8360000F0FF000843C0F30F0A4F4503D1D04501D101205BE02079FF2804D0217995F83000814227D1617995F800
S3510000F3083100814206D1A17995F83200814201D1012047E0617995F83100814204D1A079FF2801D101203DE06079FF2806D1A17995F83200814201D1012033E06079FF2804D1A079FF2801D101202BE026
S3510000F3542079FF2803D021797079814223D16179B079814205D1A179F079814201D101201AE06179B079814204D1A079FF2801D1012011E06079FF2805D1A179F079814201D1012008E06079FF2804D140
S3510000F3A0A079FF2801D1012000E00020BDE8F047704700000FB42DE9F04705460026A9680020814226D0AF683C6BA846DDF82490002C1FD00FE0284609992246FFF750FF8246BAF1010F05D101264046E8
S3510000F3EC49460A9AA36898470C34204600F010F80128EAD0002E07D1A068002804D0404649460A9AA3689847BDE8F04704B0704710B504462079002801D001201EE0A079002801D0012019E06079002850
S3510000F43801D0012014E02078002801D001200FE06078002801D001200AE0A078002801D0012005E0E078002801D0012000E00020BDE81040704700002DE9F0418046D8F80460DFF83C40216800208142EA
S3510000F48401D1002411E0701D04F1090100F0AEF80546A01D04F1090100F0A8F80746002D01D0BD4201D00C34E7E72046BDE8F0417047C0465030FF1F70B506460D4672B60020864202D00020854202D176
S3510000F4D062B6C42003E03446256362B60020BDE8704070470FB42DE9F84781B005464FF0000974E04FEA89002818806C009000990020814200F067800B98817800988078814240F060806C6824E0606825
S3510000F51C032820D104F10C0A0B99DAF80400814219D16E68B44203D12068686005E036683068A042FBD1206830605046FFF72AFC204601F093F900214FEA89002818816495F8149003E02468002084425B
S3510000F568D7D16C6830E0606805282CD104F10C070B99F868814226D1002078616E68B44203D12068686005E036683068A042FBD120683060D7F80480D8F80000B84205D13868C8F8000008E0D8F80080B8
S3510000F5B4D8F80000B842F9D13868C8F80000204601F058F995F8149003E0246800208442CBD109F10109C9F30709287D8145FFF487AF01B0BDE8F84704B0704770B506460D4628466D1C3146761C09789E
S3510000F600007801EA0004240228466D1C3146761C0978007808400443240231782878084004432046BDE87040704700000FB470B58CB006460020009002A8019030461199052213AB1B78FFF775FC05468E
S3510000F64C002D01D028468FE0344603960298807904900298407900F0FF0001020298007900F0FF00084381B240F2FF70014002A881810F200690002008900898079012980990F17B02A880F820100298B5
S3510000F698807800F00F0102A880F821100298807800F08000002801D0002000E00120C1B202A880F822100298C07800F00300012804D0022807D003280AD00EE0012102A880F823100DE0022102A880F893
S3510000F6E4231008E0032102A880F8231003E0002102A880F82310217B02A880F82410012102A880F8251002A890F82300012804D002A890F82300032823D10298407900F0FF0001020298007900F0FF006F
S3510000F730084380B200F4C050B0F5006F0BD0B0F5805F00D00FE002A890F82500411CC9B202A880F8251002A890F82500411CC9B202A880F82510A06803A9149AFFF7D8F8054628460CB0BDE8704004B022
S3510000F77C704700000FB42DE9F84789B0002772B61298FFF795FB0446002C40F0C380129E139DB06806900698006B07906878042802D12878092801D0CA24B3E030462946FFF792FE002102A8017002A8CA
S3510000F7C80178307D814201D3CA24A5E002A8007880003018816C0020814206D002A80078411CC9B202A80170E9E7D6F804800020804503D1CA248FE0D8F80080D8F8001000208142F8D12879401E800087
S3510000F8141830039030460399032205ABFFF7CEF90446002C01D0C62478E0E878009008A80190129800210422AB78FFF779FB0446002C40F06B80059800F10C09012002A948701FE004A8009012981399A2
S3510000F860002202AB5B78FFF7E1FE0446002C06D00020C8F80000059800F0FEFF50E0049902A84078401E80004844816002A84078411CC9B202A8417002A8407829798842DAD91298C9F800001398C9F8C2
S3510000F8AC040002A800788000301885640798FFF7AFFD00281CD0C324149F0020874229D04846FFF7CFFD82460020824522D01298BAF804103A46FFF701FB0446002C19D148463946DAF800209047786879
S3510000F8F8002811D00820B0613046E978AA7800F0CBFA0446072C04D00020B06162B620460EE062B600200BE0002C00D1C3240020874203D0002038600020786062B6204609B0BDE8F84704B070470000E7
S3510000F9440FB418B4044672B6DFF840004068411CDFF838004160DFF8340040680028F3D0DFF82CC023460622BCE8030003C3521E002AF9D1DCF800001860039860610498A06162B618BC04B07047C0463F
S3510000F990943BFF1F983BFF1F0FB4F8B507463E46079CB4F92200182801DD8F2011E072B638462146FEF79EFE0546002D02D062B6284606E020460021382200F0D5FF62B60020BDE8F84004B0704700005D
S3510000F9DC0FB42DE9F04782B082460E9D564634684FF00009D4F80880A069092800F2EE804FEA80008744F0BF00F0F6B800F010B800F027B800F044B800F057B800F085B800F093B800F0C2B800F0D1B828
S3510000FA2800F0D8B894F83300308140463146FEF785FE0546002D02D00020A061D6E00220A061204600F0CCF90546072D00F0CE800020A061CAE0E07B307740463146FEF781FE0546002D02D00020A06162
S3510000FA74BEE00320A06104F12C00009020464FF480710022122300F07DF90546072D00F0AF800020A061ABE004F13E0001900420A0610198009020464FF400710022092300F068F90546072D00F09A80D8
S3510000FAC00020A06196E00520A06104F13E0001900198C07800F0FF0001020198807800F0FF00084387B204F13E00019020463946012201ABFFF764F8002840F07B8001980C3001900520A06101980090DA
S3510000FB0C20464FF400710022BBB200F037F90546072D69D00020A06166E060680C3001900620A06120460199497900F085F90546072D59D00020A06156E00720A0610020207560680C3001900198C07891
S3510000FB5800F0FF0001020198807800F0FF00084387B2019800783F1A0199019800780818019013E001984078042803D1207D401CC0B2207501980078002809D0019800783F1A0199019800780818019083
S3510000FBA4002FE9D10820A061207C002806D00020207420460321FFF74BF919E020460121FFF746F914E00920A06120460421FFF73FF90DE00920A061216A0020814207D0009550460B990C9A0D9BD4F819
S3510000FBF020C0E04702B0BDE8F04704B0704700000FB470B5064672B63046FFF757F90546002D02D062B6C02006E03446059820620698606262B60020BDE8704004B070472DE9F0438DB081460D4690461C
S3510000FC3C4846FFF73DF90646002E01D0C02054E04C46E76900A8216A626AFFF775FE68780C2836D84FEA80008744F0BF00F025B800F02FB800F02DB800F02BB800F029B800F027B800F019B800F00AB85F
S3510000FC8800F015B800F01FB800F011B800F01BB800F00DB8CDF80480E87900F0FF000102A87900F0FF00084380B203900BE0CDF80880E87900F0FF000102A87900F0FF00084380B204900C95A069092832
S3510000FCD403D305990020814204D1DFF82000059000200690A068394600AAFEF707FF064630460DB0BDE8F0437047C046DDF900000FB4F8B582B00F4616461D46DFF86E3000AA082118785B1C1070521C67
S3510000FD20491E0029F8D1002472B6002F0FD0012F02D0022F00D007E03012C1B200A84171F1B200A8017102E062B6C52014E0F9B200A80170012100A841702812C1B200A8C170E9B200A88170089800A913
S3510000FD6C0022FFF75FFF044662B6204602B0BDE8F84004B070479027010000000FB4F8B582B00F4616461D46002472B6802100A80170062100A841703812C1B200A8C170F9B200A881703012C1B200A8E2
S3510000FDB84171F1B200A801712812C1B200A8C171E9B200A88171089800A90C9AFFF72CFF044662B6204602B0BDE8F84004B0704770B582B006463446DFF84C3000AA082118785B1C1070521C491E002934
S3510000FE04F8D1002572B6002100A80170052100A84170E07B0012C1B200A8C170E07BC1B200A88170304600A90022FFF7FFFE054662B6284602B0BDE870407047902701000FB438B582B00D46DFF84C30BA
S3510000FE5000AA082118785B1C1070521C491E0029F8D1002472B6002100A80170092100A841702812C1B200A8C170E9B200A88170069800A90022FFF7D3FE044662B6204602B0BDE8384004B07047C04644
S3510000FE9C902701000FB470B582B00E461546DFF85C3000AA082118785B1C1070521C491E0029F8D1002472B6012100A801700B2100A841703012C1B200A8C170F1B200A881702812C1B200A84171E9B297
S3510000FEE800A80171069800A90022FFF79DFE044662B6204602B0BDE8704004B07047C046902701000FB42DE9F0438DB081460C469046002672B64846FEF7CCFF0646002E02D062B6C02033E04D46A869ED
S3510000FF34092802D262B6C0202CE0EF6900A81799189AFFF7FDFC207800F0800000280CD0CDF80880E07900F0FF000102A07900F0FF00084380B204900BE0CDF80480E07900F0FF000102A07900F0FF00DD
S3510000FF80084380B203900C94A868394600AAFEF7B7FD064662B630460DB0BDE8F04304B07047000010B5012000F022FDDFF81440A06810B180470020A06000F01BFEBDE810407047CC3BFF1F10B500F064
S3510000FFCCB7FDDFF82440206810B1804700202060DFF81440A06810B180470020A06000F003FEBDE810407047CC3BFF1F78B581B041F0030342180E460446C360083A13600025103018392246002300956C
S3510001001800F0B2F8A6F11800A060E06804F1100120F007002018001F0560204600F04CF801B0BDE87840704770B5C368064623F00703C3181B1FD3F800C01546BCF1000F04BF0024846032D0DCF800308B
S3510001006423F0070364469E4612E0E468236823F007039E4538BF9E46644509D1C0F808E012B1AEF1080010600020BDE8704070478B42EAD3581A502802D3204600F086F8F068E16820F007003018001F95
S351000100B001603046214600F041F825B1206820F00700083828602046BDE870407047000038B50A68044622F0070322F002020A60CA58CD1822F00402CA502A1F1360C26822F007028018051F28680028F4
S351000100FC02BF29608960C9600FD080688860C1602868C8602868816029600846294600F07FF82946286000F0B1F82868006820F00701A068884238BFA160BDE8384070470A6822F0070342F002020A6043
S35100010148CA5842F00402CA50C26822F007028218131F1A688A4204BFCA681A601A688A4202BF00211960816005D08A68C8688260CA688868C260704742F001024260016013B141F004020260009A42B1A2
S35100010194026842F002020260425842F00402425070474018001F0160704700002DE9F84781B00668824606F002020127894602B10027441840684FF0010820F001050FB14FF00008504649462A4606F0F1
S351000101E00403CDF80080FFF7CBFF26F007012046A1EB09012A464346CDF80080FFF7C0FF3FB1DAF80C00E0608460C4F808A0CAF80C40204601B0BDE8F847704718B4026812F004022DD1021F126812F0C4
S3510001022C020328D1831AD3F800C00CF007041C60D0F800C02CF0070C94442CF0070C44EA0C0CC3F800C01CF0020C08D1D0F800C02CF0070C02EB0C041A19121F14600A68824204BFD2680A608268C16828
S351000102788A60C1688868C160184618BC7047000030B4046824F0070550F805C042191CF002032ED12CF00703EB1804F0070423F0070C44EA0C0CC0F800C01CF0020C04BF00EB030C4CF8043CD0F800C04F
S351000102C41CF0020C50F803C00CBF2CF0040C4CF0040C40F803C00868904204BFC06808600868904204BF002008609168D0688160D1689068C16030BC704700000268002A02BF01600960496007D0126842
S351000103100A60516002684A60026811600160704770B5064601F11F0020F00705B5F5803F38BF4FF48035284600F0DCFA044630B12946FFF759FE30462146FFF7D9FF2046BDE8704070470000F8B5044653
S3510001035C16460AB1002313600F3121F00707502F38BF5027056825B920463946FFF7D2FF05461DB90020BDE8F8407047A868874207D8284639463246FFF754FE08B125600CE06D6820688542F0D12046AF
S351000103A83946FFF7B9FF20B139463246FFF744FE0830BDE8F8407047F8B5064601F10F0020F007051446502D38BF5025002010603768E7B1B868854207D8384629460022FFF72AFE08B1376010E0B86896
S351000103F4082805D9A0F108012068884238BF21607F6830688742E7D10020BDE8F84070470830BDE8F840704708394868DFF8083020F001001847C046D100010018B4016042604860DFF80C11106051F858
S35100010440231081600B1D0399DDF808C0B1FBF3F14A1E6FD0D10800F034800CEB0304CCF80000CCF80440A446E418CCF80000CCF80440A446E418CCF80000CCF80440A446E418CCF80000CCF80440A44676
S3510001048CE418CCF80000CCF80440A446E418CCF80000CCF80440A446E418CCF80000CCF80440A446E418CCF80000CCF80440A446491E7FF4CCAF12F0040F00F019800CEB0304CCF80000CCF80440A446AE
S351000104D8E418CCF80000CCF80440A446E418CCF80000CCF80440A446E418CCF80000CCF80440A44612F0020F00F00D800CEB0304CCF80000CCF80440A446E418CCF80000CCF80440A44612F0010F00F0C3
S3510001052407800CEB0304CCF80000CCF80440A446CCF800000022CCF8042002990261C16018BC704798270100DFF80830002134221847C0467909010010B5DFF8204094F8380030B9DFF81800FFF7EEFF28
S35100010570012084F83800DFF80C00BDE810407047583CFF1F583CFF1F2DE9F84F84B0934682460025DFF83C2101E06D1C121D13689942FAD8001D00EBC506706810B1C068002870D1DFF81C0140F6EC71A0
S351000105BC50F82500001DB1FBF0F14FF00009B1F5807F88BF4FF48071DFF8FC00884650F82500041D03AF0FE06143504614313A46FFF7E8FE814648B90398142898BF002102D91438B0FBF4F10A29EDD202
S35100010608B9F1000F20D1DFF8C40050F82500071D00F1180408FB07F15046143102AAFFF797FE814680B90298B0FBF4F8B8F10A0FF0D2BBF1000F1CBF0020CBF8000004B00020BDE8F84F7047A9F104006C
S35100010654006810F001010FBF8168A9F10800006820F0070018BFA0F10801706818B9C6F80490C6F8009009F114000090A1F1140001903168726848462B46FFF7CFFEC6F804907168CA685068C860716837
S351000106A00869401C08617168C86820B948687060306840683060BBF1000F1EBFDFF8140050F82500CBF80000101D04B0BDE8F84F7047C0469827010008B54FF0000EDFF8DCC003E00EF1010E0CF1040C27
S351000106ECDCF800309A42F7D8021D02EBCE030A1F1168D1F80CC0BCF1000F2DD1D3F804E08E4529D0D3F800C08C450AD1DEF800C0C3F804C0D3F800C0DCF800C0C3F800C01AE0D1F804E0D1F800C0CCF8E9
S3510001073804E0D1F800E0D1F804C0CCF800E0D3F804C0C1F804C0DCF800C0C1F800C0CCF80410D1F804C0CCF800105960D1F80CC0C2F804C0CA600A69521E0A611FD15A688A4204BF4A685A601A688A421F
S3510001078404BF0A681A60D1F804C00A68C2F804C0D1F800C04A68C2F800C05A688A4204BF00225A601A688A4204BF00221A60FFF733FEBDE8084070479827010070B506466FF030000D461446814205D98E
S351000107D002B110600020BDE870407047DFF82800C06B08B900F072F8442D30462946224604D8FFF7C9FEBDE870407047FFF7ACFDBDE870407047C046583CFF1F38B505460C4640B1FFF7A2FE2946224694
S3510001081CFFF7D0FFBDE838407047002001B10860BDE838407047000008B5A9B10A1F126812F0010308BF926805D0A1F10802126822F00702083A442A04D8FFF73FFFBDE808407047FFF7DCFDBDE808403B
S3510001086870470000DFF80430002118470D08010010B50446FFF76EFE2146FFF7D7FFBDE810407047F8B50746C8B1C81D20F007048C4200D9083C682C38BF00200FD3FFF759FE05460068012600B10226AA
S351000108B438462146FFF79EFB28463946FFF71EFD3046BDE8F8407047DFF814000121C163DFF81000DFF81010DFF810301847C046583CFF1FC83CFF1F006000008D080100002070472DE9F84F8246894655
S35100010900154698460A9F18B111B10AB103B11FB90020BDE8F84F7047B847002803D14846BDE8F84F7047B8BF002018DB01246D1E12E06019460808FB06FB504609EB0B01B847002804D109EB0B00BDE8D4
S3510001094CF84F7047A8BF741C00DA751EAC42EAD90020BDE8F84F70478446521C03E011F8013B0CF8013B521EF9D1704710B5044600F004F82046BDE810407047CBB2202A2AD3414211F0030104D0521A58
S3510001099800F8013B491EFBD12BB1190441EA036141EA03210B435FEA521C0DD0036043608360C36003614361836100F11C0120300B60BCF1010CF1D102F01F01890803D040F8043B491EFBD102F0030298
S351000109E41AB100F8013B521EFBD1704738B5431E0546062B04D90020C043BDE838407047DFF8382052F82340012C1CBF002142F82310012C02D02CB9012803D10020BDE838407047002C00D002D10020FA
S35100010A30FFF7CAFA2846A0470020BDE838407047983CFF1F4FF0FF3210F8011B521C0029FAD110467047000018B490F800C00A78BCEB020218BF104655D100F0030301F003029A423FD1E3B1BCF1000FBF
S35100010A7C08BF002049D0C3F10302131C8AB1401C491C90F800C00C78BCEB040418BF20463BD1BCF1000F08BF002036D0521E5B1EEDD1401C491CD0F800C0ACF1013222EA0C020B6812F080320FD109E00C
S35100010AC8001DD0F800C0091DACF101320B6812F0803204D19C45F3D0401E491E07E090F800C00A78BCEB020218BF10460FD1BCF1000F08BF00200AD0401C491C02780B78D31A18BF184602D1002AF5D152
S35100010B14002018BC7047000010B5DFF8164001E08047241D14B120680028F9D1BDE8104070472827FF1F000010B5DFF81E4006E010684FF0FF3120609068526890472268002AF5D1BDE810407047B43CCA
S35100010B60FF1F000070470000884224D01AB320E011F003030AD110F0030307D1042A05D351F8043B40F8043B121F12E011F001030AD110F0010307D1022A05D331F9023B20F8023B921E04E011F8013BA5
S35100010BAC00F8013B521E002ADCD1704770B50024DFF82E5008E07068B268FFF7CFFF7068B168FFF7C9FF0C3429592E190029F2D170680028EFD1B0680028ECD1BDE870407047D03D01000000DFF8043002
S35100010BF81847C046090C0100F7460000F7460000DFF808101820ABBEF746C04626000200DFF81000DFF81020DFF810300021121A1847C0469834FF1FC83CFF1F79090100FFF7E2FFF9F7E8FBDFF83A00B9
S35100010C44002805D0854681B00020C043009001B0FFF7E0FFDFF82600002801D0FFF7AAFFFFF75AFFFFF7CCFF0020DFF81610F9F7E9FF0020FFF7A6F9FEE7C8FCFF1FD03D0100B83CFF1F000000687047D6
S35100010C9008B5002300F03CF8BDE808407047000008B5012300F034F8BDE808407047000008B5022300F02CF8BDE80840704700000168490000EB61007047000008B582B00A4601A9009100210B4600F09D
S35100010CDCA7FC019802B0BDE8084070470FB408B50A4604A9009100210B4600F081FCBDE8084004B070470000012101FA00F0401E704700002DE9F84F8CB0144600220592002204920392CA6C83460D4681
S35100010D280193079268B101280BD0022809D028460121002200F070FE0CB00920BDE8F84F7047002206920A6D12F0010240F07581022808BF8E6B0AD0002B0FBF002107980068C0F307410798001D00EBB0
S35100010D7481060198022808D1D6F80080B8F1000F00F05D817168083607E0B6F80080B8F1000F00F054817188361D01F0010208F0010040EA42000328E3D8DFE810F004003800C1003E01BBF1000F2ED045
S35100010DC0A86C471820460F21FFF780FF87429CBF07EB0801884222D8301DA863284601F08BF948B928460121002200F019FE0CB00920BDE8F84F70473046FFF761FF064620460F213246FFF76FFF28460A
S35100010E0C0321324600F006FE0CB00720BDE8F84F7047361DA9E7BBF1000F61D1A86C471820460F21FFF74CFF874200F27B80A8F101017918884280F0758077686FF00100874209D128460121022200F0CC
S35100010E58E3FD0CB00920BDE8F84F7047B7F1FF3F02BF05F158000B90012013D0306800F00040B0F1004F0CBF01200020C0F30708301DFFF7FFFE07462846394642460BAB01F016F8002847D0022820463F
S35100010EA409D10D21FFF710FFEE6228620B98A86205F1280005E00D21FFF706FFEE6228620B9868623046FFF7F9FE02462846022100F0A4FD284680213A4600F09FFD0CB00620BDE8F84F704720460D21F3
S35100010EF0FFF7ECFE296A814204BFE86AB04217D13046FFF7DDFE064620460F213246FFF7EBFE204600212A46FFF7E6FE28460321324600F07DFD0CB00720BDE8F84F7047083620E73068BBF1000F029015
S35100010F3C20F0004739D1A86C4018A0F1010920460F21FFF7BDFE814561D809EB080188425DD206F104084FF000090DF1280A0DE04046FFF78DFE014628460022534600F0A5FF28B908F1040809F1010961
S35100010F88B945EFD3B94544D120460D21FFF79AFE286200206862DFF8302628460221EE6200F03AFD0CB00620BDE8F84F704720460D21FFF787FE296A814204BFE86AB04227D10020E86204202863301D29
S35100010FD468630298AF62B84204BF012006901AD0B800001D3018FFF769FE0646204600212A46FFF777FE20460F213246FFF772FEDFF8C8252846032100F008FD0CB00720BDE8F84F704702980021B842D4
S3510001102018BF0421B800001D40183618A3E6012128460A4600F0F4FC0CB00920BDE8F84F704707980668079800F10408019820B94FF000093602032703E0C6F307493604022767B9B9F1000F08BF4FF042
S3510001106CB00A0DD0A9F1010958F8046BC9F30709042706F07F407F1EFFB2C0F3076A3602BAF1B00F1FD10598002840F06E82049848B9012128460A4600F0BCFC0CB00920BDE8F84F704709A80021009093
S351000110B820460E220B4600F0B5FA099A20460F21FFF70EFE0120039051E2BAF13F0F0ED820460D21FFF7F6FD0AF03F0292000346121D20460D21D218FFF7FAFDB5E7BAF17F0F0ED820460D21FFF7E4FD0B
S351000111040AF03F0292000346121D20460D219A1AFFF7E8FDA3E7BAF18F0F3FD80AF00F015FB9B9F1000F08BFB0200DD0A9F1010958F8046BC9F30709042706F07F407F1EFFB2C0F307603602000150EA0D
S35100011150013A09D128460121022200F061FC0CB00920BDE8F84F70470021204652460B4600F074FA48B128460121032200F050FC0CB00920BDE8F84F70471AF400401CBF012005901AF480401CBF0120C5
S3510001119C049060E7BAF19F0F18D80AF00F010D2901D00F2909D128460121042200F032FC0CB00920BDE8F84F70472046FFF780FD024620460D21FFF789FD44E7BAF1AF0F1ED80AF00700401CFFF78EFDC4
S351000111E802011AF008001EBF42F4804201200490002120460B4600F02DFA00283FF42DAF28460121032200F007FC0CB00920BDE8F84F7047BAF1B70F00F2A280BAF1B10F32D15FB9B9F1000F08BFB02262
S351000112340DD0A9F1010958F8046BC9F30709042706F07F407F1EFFB2C0F3076236020AB10F2A09D928460121042200F0DFFB0CB00920BDE8F84F7047002120460B4600F0F3F900283FF4F3AE28460121BB
S35100011280032200F0CDFB0CB00920BDE8F84F7047BAF1B20F2ED14FF0000A00205FB9B9F1000F08BFB0220DD0A9F1010958F8046BC9F30709042706F07F417F1EFFB2C1F30762360202F07F0181404AEA81
S351000112CC010A12F0800118BFC01DE1D120460D21FFF7F6FC024602EB8A0220460D2102F50172FFF7FBFCB6E6BAF1B30F2CD15FB9B9F1000F08BFB0200DD0A9F1010958F8046BC9F30709042706F07F4059
S351000113187F1EFFB2C0F30760360200F0F00100F00F00401C40EA0132012120460B4600F091F900283FF491AE28460121032200F06BFB0CB00920BDE8F84F704728460121042200F061FB0CB00920BDE83D
S35100011364F84F7047BAF1BF0F16D80AF007020121521C204642F400220B4600F06DF900283FF46DAE28460121032200F047FB0CB00920BDE8F84F7047BAF1C70F00F27B8032D15FB9B9F1000F08BFB02219
