S01800007573625F6465766963655F746F7765722E7372656363
S113A000F82F002011A400004DC700004DC7000028
S113A0104DC700004DC700004DC700004DC70000EC
S113A0204DC700004DC700004DC700004DC70000DC
S113A0304DC700004DC700004DC700004DC70000CC
S113A0404DC700004DC700004DC700004DC70000BC
S113A0504DC700004DC700004DC700004DC70000AC
S113A0604DC700004DC700004DC700004DC700009C
S113A0704DC700004DC700004DC700004DC700008C
S113A0804DC700004DC700004DC700004DC700007C
S113A0904DC700004DC700004DC700004DC700006C
S113A0A0CDAA00004DC700004DC700004DC70000F9
S113A0B04DC700004DC700004DC700004DC700004C
S113A0C0FFFFFFFFFFFFFFFFFFFFFFFFFFFFFFFF9C
S113A0D0FFFFFFFFFFFFFFFFFFFFFFFFFFFFFFFF8C
S113A0E0FFFFFFFFFFFFFFFFFFFFFFFFFFFFFFFF7C
S113A400FFFFFFFFFFFFFFFFFFFFFFFFFEFFFFFF59
S113A410002000210022002300240025002600271C
S113A42062B600F0FFFFFEE780B581488149096804
S113A43001609B4800210170002000F0B7FB182048
S113A44000F013FC9748007880210143954801707F
S113A450944800780006FBD49348000A9349087096
S113A4609148000C924908708F48000E9149087079
S113A4706748007802210143654801708E480078DE
S113A480012101438C4801708C4800788006800EBD
S113A4908A4908708348007840210143814801704B
S113A4A0874800780121014385480170C24800783B
S113A4B010210143C048017001BDF6B5002304001A
S113A4C0C0B2002800D08000801CC0B204254543DF
S113A4D0584E755929007B4D2D78ED071DD57A4DC1
S113A4E0009E2E60794D6E4636792E70504D2D6843
S113A4F0ED792D024E4E3668B679AD192B006D46B6
S113A5002D799BB2ADB2AB4207D2C0B2022804D1BE
S113A510474D2D68AD796D4E3570C0B2A74D2D5C99
S113A5206A4E3678B54212D2C0B2A44D2D5C2A00D0
S113A530664D2D78C0B2A14E365CAD1B634E3570AE
S113A540604D2D78FE262E405E4D2E700BE05F4D43
S113A5502D782A005D4D00262E705A4D2D78012647
S113A5602E43584D2E70C0B2082545434E4E7519E2
S113A570D2B26A8015006A1EEDB2002D0AD0524D87
S113A5802D682D780D70504D2D686D1C4E4E356024
S113A590491CEFE7A84D2D780126A64035420DD081
S113A5A0C0B208274743404D8826EE55A24D2D786A
S113A5B00126A640B543A04E35700CE0C0B2082772
S113A5C04743394DC826EE559B4D2D780126A640AC
S113A5D02E43994D2E70F3BD30B5401CC0B20424F7
S113A5E04443144D2C592200C0B2082444432E4D38
S113A5F02C196488230018001C00631EE4B2002C8C
S113A60004D014780C70521C491CF5E7C0B230BD5C
S113A610802007400100C9B28A0008235A43224B14
S113A6209A18528892B2120A1000C0B280B27047CF
S113A630A8F8FF1F10F4FF1FA24805210170A248CB
S113A64005210170A14809210170A148012101706F
S113A650A04801210170A048012101701248303046
S113A660002101701048002141860F489B49416335
S113A6700D485030002101700B48523000210180F8
S113A6800948B14941650848603080210170064895
S113A6906230FF2101800448C149416670470000CF
S113A6A040F9FF1F0C21074000F6FF1F9C200740C4
S113A6B0B0200740B4200740842007400021074011
S113A6C09420074039F9FF1FA4F8FF1F3AF9FF1F30
S113A6D080B5AB4800684078002860D0052806D0D3
S113A6E006280DD0082854D0092835D060E000226F
S113A6F000210020FFF7E1FEAF480321017059E07B
S113A7009F480068C078012804D022D303280DD0C4
S113A71006D31EE01222B2490020FFF7CEFE1AE053
S113A7204322B0490020FFF7C8FE14E094480068B3
S113A730807804214843AC4908580278904800685E
S113A740807804214843A84909580020FFF7B5FE42
S113A75001E000F017F92DE089480068C0788849C5
S113A760096889784018A149087085480068C0784C
S113A7708349096889784018002809D0FFF75CFFED
S113A780002200210020FFF798FE8B480121017070
S113A79010E0012295490020FFF78FFE0AE0C84827
S113A7A0002101800222C6490020FFF786FE01E055
S113A7B000F0E8F801BD00000821074028C90000A6
S113A7C010B51D480078FE2101401B4801706C48FB
S113A7D000680078C006C00EC0B2002803D002286A
S113A7E01AD00BD31EE0664800680078C00601D179
S113A7F0FFF76EFFB3488821017015E000F0CAFA34
S113A8000400E4B2002C03D1AE488821017002E0B8
S113A810AC48C821017007E000F010F8A94888216D
S113A820017001E000F0AEF8A7480078DF21014094
S113A830A548017010BD00003BF9FF1F80B55048CA
S113A84000684078002804D0012819D0032827D0B4
S113A85036E0BD4800780121494A12685279914096
S113A860084204D0684680214900018002E068461D
S113A87000210180022269460020FFF71EFE1FE02E
S113A880B148007801213E4A1268527991408843C8
S113A890AD490870002200210020FFF70EFE0FE0F2
S113A8A0A94800780121364A12685279914001433F
S113A8B0A5480170002200210020FFF7FEFDFFE7FC
S113A8C001BD0000C4200740C8200740CC20074039
S113A8D0D0200740D4200740D820074064F7FF1F4A
S113A8E038B59A4800780821084005009748007850
S113A8F0C0B200090400E4B2002C11D0EDB2002D66
S113A90021D1E4B2A000082148436E4900220A5430
S113A9108F4800780121A14001438D48017012E065
S113A920EDB2002D02D000F011F80CE0654800787B
S113A930C0B280080007000F0D2802D1FFF740FFC6
S113A94001E000F02FF831BDE4F7FF1F80B51A488D
S113A950007803280DD10A48006880787D49087082
S113A9601548042101707C480078012101437A488C
S113A9700170002200210020FFF79FFD01BD0000AF
S113A980A8F8FF1F7548007802210143734801703D
S113A9904C48882101704B482021418070470000B9
S113A9A024F8FF1F6A4800780121014368480170B8
S113A9B06B4888210170704740F9FF1F00B5674854
S113A9C00078800705D565480078FD21014063487B
S113A9D0017064480078802101436248017000BD21
S113A9E084C8000018C2000050F4FF1F3DF9FF1F87
S113A9F05948FF2101705C48002101705B48002127
S113AA0001705B48002101705A48002101705A48C6
S113AA10002101705948002101705948002101703A
S113AA205848002101702748202141802548564973
S113AA3041602448C82101702248202141812148D5
S113AA405249C1601F48C82101721E482021418219
S113AA501C484F4941611B48882101741948202131
S113AA60418318484B49C1611648882101763B4807
S113AA700D2101704848FF2101703A48FF210170FF
S113AA803448002101704548FF2101704448007892
S113AA9008210143424801704148007804210143E0
S113AAA03F4801703E480078022101433C48017050
S113AAB03B48007801210143394801707047000088
S113AAC034F9FF1F00F6FF1F9420074080B5254886
S113AAD00078C00702D5FFF78BFF34E021480078E7
S113AAE0400702D51F48042101701E480078000663
S113AAF001D5FFF763FF1B48007800070DD52948EF
S113AB0000780221014327480170FFF7E9FE154848
S113AB100078082101431348017012480078C006E8
S113AB2005D510480078102101430E4801700D48E6
S113AB300078800707D50B480078C0B2022108408E
S113AB40194800F0F9FB01BD3FF9FF1F90200740B1
S113AB5038F9FF1F9820074039F9FF1FC02007402C
S113AB6000F6FF1F802007403BF9FF1F3CF9FF1F41
S113AB70C4200740C8200740CC200740D02007400D
S113AB80D4200740D8200740A4F6FF1FC4F6FF1FB7
S113AB90E4F6FF1F04F7FF1F882007408C200740BE
S113ABA08420074094200740A4C9000010B5040085
S113ABB0E4B2002C03D0022C19D008D328E01848A2
S113ABC00068A021C90201431548016020E000F09B
S113ABD033F81348006813490140114801601048D4
S113ABE000688021C90201430D48016010E00C484F
S113ABF000680D4901400A4801600C480068802142
S113AC0089000143094801600948802189000160E5
S113AC10084800688021C90201430648016010BD4C
S113AC2004800440FFFFFEFFFFFFFBFF3880044069
S113AC301490044034800440704738B40121002249
S113AC400368001D002B0BD00468001D0C4202D0C9
S113AC504D466D1E64192260241D1B1FF0D0FAE7B7
S113AC6032BC704710490860704770B50400212C4D
S113AC7003DB0E4800F060FB15E00D480568012673
S113AC802000202100F070FB8E402E43084806600F
S113AC900848056801262000202100F065FB8E404D
S113ACA02E430448066070BD08ED00E0C4C30000F4
S113ACB080E200E000E100E080B55248002101702C
S113ACC0FFF7B2FB50480068C021890001434E4899
S113ACD001604E489621890101604C4800210171B0
S113ACE04A4800214171494808218171802148481E
S113ACF000F066FB01BD10B546480078800713D507
S113AD004548007802210143434801703D48002131
S113AD100170424801210170FFF7CEFF3D480078E1
S113AD20FD2101403B48017036480078002804D0DA
S113AD30202814D0222827D02BE039480078012875
S113AD40FBD136480078002805D0364800F0F4FAE4
S113AD503248002101702B480021017019E032486B
S113AD600078C0070FD530480078FE2101402E48F6
S113AD70017026490020FFF72FFC04000022002167
S113AD800020FFF79AFB04E0002200210020FFF7D7
S113AD9094FB10BD10B500242448006840780A28AC
S113ADA008D0202812D021280AD0222814D0AA287A
S113ADB018D024E001221E490020FFF77EFB1EE08C
S113ADC0072212490020FFF778FB18E00D482021E4
S113ADD001700120040012E00A48222101700020C1
S113ADE004000CE080210A4800F0EAFA0E480078DA
S113ADF0802101430C4801700548FF2101702000A7
S113AE00C0B210BD41F9FF1F1CB00440ACF8FF1FD5
S113AE10B4F8FF1F42F9FF1F9420074060F4FF1F9E
S113AE2040F9FF1FB4C5000038F9FF1FA8F8FF1F41
S113AE303EF9FF1F70B504000D00160030680128AC
S113AE4002D0022805D00BE02000C0B27168884708
S113AE5006E0B06821000170B068401CB060FFE7F4
S113AE602868401C286070BDFFB584B0002006002F
S113AE7004980500002028706D1C0698002825D031
S113AE800598006801900198002803D130202870AB
S113AE90761C3FE0019800283CD00198079900F007
S113AEA063FA039001980399079A5143401A0700E3
S113AEB0002F03D5F8430700313700E030370398FB
S113AEC00190380028706D1C761CE3E70598006833
S113AED000900098002803D130202870761C19E0D7
S113AEE00098002816D00098079900F051FA0290B3
S113AEF000980299079A5143401A04000A2C01D27F
S113AF00303400E0373402980090200028706D1C23
S113AF10761CE5E7300008B0F0BDF1B50F00150070
S113AF201E0000980400BC4206DA320029003020DA
S113AF30FFF780FF641CF6E7F1BDF1B50F001500C3
S113AF401E0000980400BC4206DA320029002020CA
S113AF50FFF770FF641CF6E7F1BDF3B595B0170079
S113AF60002000901698040020780690002800D154
S113AF70DFE10698252813D006980A2805D0159AEB
S113AF8069460698FFF756FF09E0159A69460D20B1
S113AF90FFF750FF159A69460A20FFF74BFFC6E1F9
S113AFA000200600002004900498002824D1641C8A
S113AFB02078202810D0232816D02B2808D02D281C
S113AFC002D030280CD013E0300001260643EBE712
S113AFD0300002260643E7E7300004260643E3E791
S113AFE0300008260643DFE7300010260643DBE77F
S113AFF0641E01200490D7E70020019000200490F3
S113B0000498002811D1641C20780690303809284F
S113B01007D801980A21484306994018303801900E
S113B020EEE7641E01200490EAE7641C20782E28D1
S113B0300ED100200490049800280AD1641C2078C2
S113B0403038092800D8F6E7641E01200490F2E79E
S113B050641E641C20784C2806D0682802D06C2812
S113B06001D002E002E001E000E0641E641C2078EC
S113B0700690582872D0622800D1CCE0632800D111
S113B08016E1642813D0692811D06E2800D142E15A
S113B0906F2800D1B4E0702800D1C7E0732800D134
S113B0A010E1752800D1CCE0782857D03AE138680F
S113B0B009903F1D0A23012209A90CA8FFF7D4FE19
S113B0C005000CA8401908900998002803D52D20E4
S113B0D003906D1C0DE0B00703D52B2003906D1C6D
S113B0E007E0700703D5202003906D1C01E00020C9
S113B0F0039000200590300712D50398002804D04F
S113B100159A69460398FFF795FE01200590159B53
S113B1106A4601992800FFF700FF0198050011E035
S113B120F0070FD4159B6A4601992800FFF705FF25
S113B1300398002804D0159A69460398FFF77AFE0D
S113B140012005900598002807D10398002804D011
S113B150159A69460398FFF76DFE92E038680290ED
S113B1603F1D1023002202A90CA8FFF77DFE050055
S113B1700CA84019089000200590300716D5F00659
S113B1800BD5159A69463020FFF754FE159A694687
S113B1907820FFF74FFE01200590159B6A46019920
S113B1A02800FFF7BAFE0198050018E0F00716D44E
S113B1B0F00600D5AD1C159B6A4601992800FFF7DF
S113B1C0BCFEF0060BD5159A69463020FFF732FE17
S113B1D0159A69467820FFF72DFE01200590F006A8
S113B1E00DD5059800280AD1159A69463020FFF735
S113B1F021FE159A69467820FFF71CFEAD1C40E03D
S113B200386802903F1D0823002202A90CA8FFF70A
S113B2102BFE05001FE0386802903F1D0223002228
S113B22002A90CA8FFF720FE050014E0386802907C
S113B2303F1D1023002202A90CA8FFF715FE0500EC
S113B24009E0386802903F1D0A23002202A90CA8D5
S113B250FFF70AFE05000CA840190890300708D52E
S113B260159B6A4601992800FFF757FE01980500CF
S113B27007E0F00705D4159B6A4601992800FFF7FB
S113B2805CFE08980078002809D0159A6946089849
S113B2900078FFF7CFFD0898401E0890F1E7F0070B
S113B2A005D5159B6A4601992800FFF746FE3EE046
S113B2B03868C0B20A903F1D159A69460A98FFF78C
S113B2C0B9FD34E0386807903F1D0798002821D065
S113B2D0079800F093F80500F00705D4159B6A461B
S113B2E001992800FFF729FE07980078002809D063
S113B2F0159A694607980078FFF79CFD0798401C4B
S113B3000790F1E7F00705D5159B6A4601992800D7
S113B310FFF713FE0BE038680B903F1D0B98009964
S113B320016004E0159A69460698FFF783FD641CE2
S113B3301AE6009817B0F0BD0EB47EB505000120E2
S113B34000900848019007A80600320029006846CA
S113B350FFF703FE0400200003B0039970BC04B09F
S113B36008470000D5C80000CA0F00D049420310A6
S113B3705A400DD004B500D3404200F009F8009AB9
S113B380D20701D34942124200D5404204BD000015
S113B390094210D088420BD30122002300185B41DC
S113B3A08B4200D35B1A5241F8D319001000704746
S113B3B001000020704708B500F032F808BD000015
S113B3C0C9B24218521E074B1A60074A1060074A56
S113B3D01170074A1060074A1060074A002313706F
S113B3E07047000084F6FF1F80F6FF1F36F9FF1F29
S113B3F088F6FF1F8CF6FF1F37F9FF1F00B5010009
S113B4000A000023002A01D1002008E010000200F5
S113B410521C0078002801D05B1CF7E7180000BD1F
S113B420704700007E480021016000F0C7F900F079
S113B43023FA7C48FFF780FF00F0CCFA00F003F811
S113B44000F0A4FBFEE710B577480068000F400742
S113B450400F002806D002280CD007D3042811D0AE
S113B4600CD313E07148FFF767FF12E07048FFF751
S113B47063FF0EE06F48FFF75FFF0AE06E48FFF7D7
S113B4805BFF06E06D48FFF757FF02E06C48FFF7EB
S113B49053FF65480068000E4007400F042802D09F
S113B4A0052804D007E067A0FFF746FF06E066A082
S113B4B0FFF742FF02E06548FFF73EFF5A48006885
S113B4C00007000F00280CD001280ED0022810D04D
S113B4D0042812D0052814D0062815D0082816D020
S113B4E019E05B48FFF728FF18E05A48FFF724FFEC
S113B4F014E08848FFF720FF10E08748FFF71CFF9F
S113B5000CE08648FFF718FF8548FFF715FF8548CC
S113B510FFF712FF02E08448FFF70EFF424800687D
S113B520000D4007400F012803D18048FFF704FFB6
S113B53002E07F48FFF700FF3B480068000C40072B
S113B540400F00280BD0022811D00CD3042816D0A9
S113B55011D306281BD016D307281CD01FE075482A
S113B560FFF7EAFE1EE07448FFF7E6FE1AE07348B0
S113B570FFF7E2FE16E07248FFF7DEFE12E07148C4
S113B580FFF7DAFE0EE07048FFF7D6FE0AE06F48D8
S113B590FFF7D2FE06E06E48FFF7CEFE02E06D48EC
S113B5A0FFF7CAFE0F200400A4B221006A48FFF787
S113B5B0C3FE00F051F869480068000E0007000F50
S113B5C000280CD001280ED0032810D0052812D052
S113B5D0072814D0092816D00F2818D01BE060487B
S113B5E0FFF7AAFE1AE05F48FFF7A6FE16E05E48E2
S113B5F0FFF7A2FE12E05D48FFF79EFE0EE05C48F6
S113B600FFF79AFE0AE05B48FFF796FE06E058480B
S113B610FFF792FE02E05848FFF78EFE10BD0000CF
S113B62000810440D4C9000024800440DCC9000027
S113B630E4C90000ECC90000F4C90000FCC9000022
S113B64064C50000340000003500000090C4000010
S113B650F8C8000008C9000080B5484803210170FB
S113B66047480021017047480021017046480021E5
S113B6700170464801210170454880210170444809
S113B68000780006FBD543480178C9B24248FFF769
S113B69053FE42480178C9B24148FFF74DFE414884
S113B6A00178C9B23E48FFF747FE3F480178C9B266
S113B6B03E48FFF741FE3148032101703048002124
S113B6C001703048002101702F48042101702F4877
S113B6D0012101702E48802101702D480078000658
S113B6E0FBD52C480178C9B23148FFF725FE2B4819
S113B6F00178C9B22FA0FFF71FFE2A480178C9B20A
S113B7002748FFF719FE28480178C9B22A48FFF7ED
S113B71013FE01BD74C9000080C900008CC900007B
S113B72098C9000018C90000BCC400008CC5000002
S113B730E8C40000D0C70000E4C70000F8C7000058
S113B7400CC8000020C8000034C8000048C800002D
S113B7505CC80000CCC6000070C800004C800440E7
S113B7605CC2000098C20000D4C2000010C30000F4
S113B7704CC3000088C3000058C600000700024004
S113B7800600024005000240040002400F0002408F
S113B790000002400B000240E8C600000A0002401C
S113B7A004CA000009000240080002400CCA00005C
S113B7B034C700002025640014CA0000F0B583B02B
S113B7C02348244988420FD00020040082204000EE
S113B7D0844209D2042060431D49042262431D4B64
S113B7E09A580A50641CF1E71948FFF73BFA1A48C3
S113B7F007001A4805001A4801900198401B0400EC
S113B8002000441E002804D0287838706D1C7F1C4A
S113B810F6E714480600144800900098801B0400C2
S113B8202000441E002803D000203070761CF7E767
S113B8300E480F490F4A531A1C0023005C1E002BAC
S113B84004D00B780370491C401CF6E7F7BD00BF19
S113B85000F0FF1F00A0000010F4FF1FC4C100008F
S113B86018C2000000F6FF1F44F9FF1F44F9FF1F30
S113B870000000000000000000B583B045480068E7
S113B880F8218901014343480160434800780007D7
S113B89005D541480078082101433F48017000F074
S113B8A06DF83E483E49016001200190302000902F
S113B8B00423012200213B4800F002FA3A490860BF
S113B8C039480068FF2800DCFEE73848006880211A
S113B8D04902014335480160334800680221FFF7FB
S113B8E043FDFA218900FFF73FFD314908602E48E6
S113B8F00068FA218900FFF737FD2E4908602D48BA
S113B900006826490968090F491CFFF741FD2A49C7
S113B91008602948006821490968090C4907490F4A
S113B920491CFFF735FD2549086000F017F8244845
S113B930C021890001602348C021890001601B489F
S113B94000688021C904014318480160E1225202C1
S113B950174801681C4800F065FB07BD80B51B480B
S113B96080214900016019480068902109030143BE
S113B970164801601E20FFF778F901BD1448A02184
S113B980C90001600948006840210143074801607B
S113B990704700003880044002D0074044800440CF
S113B9A00000031000127A0090F6FF1F0480044088
S113B9B0A0F6FF1F94F6FF1F98F6FF1F9CF6FF1FCB
S113B9C0389004403C90044000A00640109004408D
S113B9D00CB0044080B557480078800602D556481C
S113B9E0FFF7AAFC53480078000702D55348FFF735
S113B9F0A3FC50480078400702D55148FFF79CFC4F
S113BA004C480078800702D54E48FFF795FC4E4815
S113BA100078000602D54D48FFF78EFC4A480078AE
S113BA20400602D54A48FFF787FC4748007880065D
S113BA3002D54848FFF780FC43480078400702D508
S113BA404548FFF779FC40480078000702D5434891
S113BA50FFF772FC3C480078800702D54048FFF7A6
S113BA606BFC39480078C0074DD53E48FFF764FCAD
S113BA703D480078C0B24007400F032802D13B483C
S113BA80FFF75AFC38480078C0B24007400F04283A
S113BA9006D137480078400702D13648FFF74CFCFE
S113BAA031480078C0B24007400F042809D130481B
S113BAB00078C0B24007400F012802D12E48FFF79A
S113BAC03BFC29480078C0B24007400F042809D144
S113BAD027480078C0B24007400F022802D1274807
S113BAE0FFF72AFC20480078C0B24007400F042822
S113BAF009D11F480078C0B24007400F032802D183
S113BB001F48FFF719FC10480078C0B2002810D174
S113BB1008480078C0B200280BD10B480178C9B29C
S113BB201848FFF709FC03480178C9B21648FFF723
S113BB3003FC01BD01F0074004C60000E8C8000092
S113BB40A8C7000078C6000000F00740BCC700008A
S113BB5004C700001CC7000038C6000094C60000DB
S113BB60B0C6000030C4000001E0074038C900003E
S113BB7002E0074044C9000050C900005CC900004D
S113BB8068C9000014C500003CC500003D48FFF72B
S113BB90D3FB3D4800688021490401433A480160D1
S113BBA03A48006880210906014338480160364854
S113BBB000688021C90401433348016033480068A8
S113BBC08021C9050143314801602F480068802164
S113BBD0890401432C4801602C48006880218905B0
S113BBE001432A4801602A48006880210901014371
S113BBF027480160274800688021490001432548FF
S113BC000160254800682549014023480160244813
S113BC1000688003FBD52348FFF78EFBFFF74CF841
S113BC20FFF769F820480078000716D50320FEF7CF
S113BC30F1FC04001D486230202101801B48603063
S113BC408021017018480078F721014016480170DE
S113BC50012217490220FEF730FC114800688003D6
S113BC60DED41448FFF768FB0D4800688003FBD559
S113BC701148FFF761FB11480078022101430F4886
S113BC800170CDE7FCC30000047004400070044060
S113BC903880044044B0044094F00F40FFFFFDFF9F
S113BCA090F00F401CCA000038F9FF1F00F6FF1F78
S113BCB024F8FF1FB0C90000BCC9000042F9FF1FEF
S113BCC0FEB583B0040069462C200D567E480078EA
S113BCD0C0B280088007800F002807D17A48007816
S113BCE0C00603D578480078800601D5012070E1AC
S113BCF0B948844201DB21206BE16846007C0028BE
S113BD0007D0B648844202DBB548844201DB2220D6
S113BD105FE16846007B012802D368460121017374
S113BD20694614200856012804DB69461420085685
S113BD301A2801DB41204CE16DB2182D02DB6DB2F3
S113BD40332D01DB422044E120006A461421515680
S113BD50FFF70AFB02900298A249884203DB02988B
S113BD60A149884201DB432033E120006A461421C3
S113BD705156FFF7F9FA6DB26843019001989B4957
S113BD80884203DB01989A49884201DB452020E17F
S113BD909848007807003800C32707409648844233
S113BDA00BDA6846007BC0006946097C89000143C0
S113BDB010200843384307000AE06846007BC000AF
S113BDC06946097C89000143202008433843070061
S113BDD0884807708948844203DA68460021017064
S113BDE01EE08748844203DA68460121017017E0A7
S113BDF08448844203DA68460221017010E08248D4
S113BE00844203DA68460321017009E07F488442D2
S113BE1003DA68460421017002E0684605210170D6
S113BE207B4800780700BF07BF0F68460078C00052
S113BE3038210140802008433843070074480770C4
S113BE406846007C002811D000200600714836B2F4
S113BE50864205DA1C480078800701D4761CF5E791
S113BE6019480078800701D42320B2E0002006009E
S113BE70FA20C00036B2864205DA13480078C006BC
S113BE8001D5761CF4E710480078C00601D51120CE
S113BE909FE000200600FA20C00036B2864209DA8C
S113BEA009480078C0B280088007800F022801D0BA
S113BEB0761CF0E704480078C0B280088007800F41
S113BEC0022803D01A2084E0064006405248007835
S113BED02021014350480170504800780700380081
S113BEE0E0270740694614200856401EC006C00ECD
S113BEF0384307004948077047480078070038006E
S113BF00E027074028001838C106C90E402008431E
S113BF10384307004048077000200600FA20C0009C
S113BF2036B2864205DA3E480078800601D4761C93
S113BF30F4E73B480078800601D4162049E000204D
S113BF400600FA20000136B2864205DA3448007849
S113BF50400601D4761CF4E731480078400601D449
S113BF60442036E068462D490978C906C90E491CA3
S113BF708170684628490978C906C90E183141708C
S113BF80234800788006800E2149087000200600AE
S113BF90FA20C00036B2864209DA21480078C0B2DD
S113BFA080088007800F032801D0761CF0E71C4826
S113BFB00078C0B280088007800F032801D01B20BE
S113BFC007E0200069468978FFF7CEF96946497889
S113BFD0484306B0F0BD00BF81F0FA02C0C62D0090
S113BFE00148E80180841E0001093D00006CDC0268
S113BFF001E1F5050140064001127A00D112130057
S113C000A1252600414B4C0081969800012D310159
S113C01000400640204E0000054006400440064013
S113C02006400640F7B585B00025002003900020A7
S113C0300290002700200490564800688021C9001F
S113C04001435448016054480078F32101405248A8
S113C050017006985149884202DA069820280ADAC3
S113C060002006904E480068070038004D4F0740F6
S113C0704B480760FEE7079804000698FA218900F8
S113C080484301900420060001982100F6B2714350
S113C090FFF77EF900900198F6B200997143FFF71B
S113C0A077F90500AC4202D2281B039001E0601B23
S113C0B00390F6B2029605200600F6B2212E1ED297
S113C0C001982100F6B27143FFF762F900900198DC
S113C0D0F6B200997143FFF75BF90500AC4202D256
S113C0E0281B049001E0601B049003980499884283
S113C0F003D304980390F6B20296761CDDE7200081
S113C1006421FFF745F903214843039981423CD256
S113C1100298042808D30298092805D222480078F6
S113C120022101432048017020480078C0B2070072
S113C1301F2087430298401EC0B2C006C00E384379
S113C14007001A4839000170FF06FF0E7F1C019892
S113C15021007943FFF71CF9009015480078C0B21C
S113C1601F218843070038000099090AC906C90E2F
S113C17001430F4801700F48009901700648007888
S113C1800C2101430448017000E0FEE708B0F0BD53
S113C190000000003480044003A0064051C30000A6
S113C1A004800440FFFFFFF30BA006400AA00640F2
S113C1B000A0064001A0064000B502791206FCD595
S113C1C0C17100BDA4F6FF1FC4F6FF1FE4F6FF1FF4
S113C1D004F7FF1F24F7FF1F44F7FF1F64F7FF1F37
S113C1E084F7FF1FA4F7FF1FC4F7FF1FE4F7FF1F27
S113C1F004F8FF1F24F8FF1F44F8FF1F64F8FF1F13
S113C20084F8FF1F24CA000098C80000ACC80000CE
S113C210C0C800000100000009024300020100C080
S113C2203209040000010202010105240010010585
S113C23024010001042402000524060001070581ED
S113C2400320000209040100020A0000010705821C
S113C250022000000705030220000000466C617301
S113C260682073697A653A202038204B4220707226
S113C2706F6772616D20666C6173682C20302E329A
S113C28035204B422070726F74656374696F6E2041
S113C290726567696F6E0000466C6173682073692C
S113C2A07A653A20203136204B422070726F6772D3
S113C2B0616D20666C6173682C20302E35204B42F2
S113C2C02070726F74656374696F6E20726567693C
S113C2D06F6E0900466C6173682073697A653A2051
S113C2E0203332204B422070726F6772616D20667A
S113C2F06C6173682C2031204B422070726F74651E
S113C3006374696F6E20726567696F6E090000005F
S113C310466C6173682073697A653A20203634204C
S113C3204B422070726F6772616D20666C61736836
S113C3302C2032204B422070726F74656374696FD5
S113C3406E20726567696F6E09000000466C617348
S113C350682073697A653A2020313238204B4220B4
S113C36070726F6772616D20666C6173682C203423
S113C370204B422070726F74656374696F6E207213
S113C3806567696F6E090000466C617368207369A4
S113C3907A653A2020323536204B422070726F671E
S113C3A072616D20666C6173682C2034204B4220CE
S113C3B070726F74656374696F6E20726567696FFC
S113C3C06E0900000A4552522120496E76616C695B
S113C3D064204952512076616C75652070617373D5
S113C3E0656420746F20656E61626C65206972718A
S113C3F02066756E6374696F6E210A000A2A2A2A00
S113C4002A2A2A2A2A2A2A20555342204465766950
S113C4106365204D6F64756C652054657374696E33
S113C42067202A2A2A2A2A2A2A2A2A2A0A000000D3
S113C4300A0D5B6F75745352535D57616B6575706C
S113C44020626974207365742066726F6D206C6F4E
S113C4507720706F776572206D6F6465200000002F
S113C4600A2A2A2A2A64656661756C745F69737284
S113C47020656E7465726564206F6E2076656374E2
S113C4806F722025642A2A2A2A2A0D0A0A0000002B
S113C4900A0D556E7265636F676E697A6564204B29
S113C4A0696E65746973207375622D66616D696C5C
S113C4B079206465766963652E0A0D000A0D556E50
S113C4C07265636F676E697A6564204B696E657423
S113C4D06973207061636B61676520636F64652EA7
S113C4E020202020202000000A0D556E7265636F05
S113C4F0676E697A6564204B696E6574697320663A
S113C500616D696C79206174747269627574652EE9
S113C5100A0D00005B6F75745352535D52434D5FB7
S113C52053525330206973205A45524F2020203DE6
S113C530202523303258200D0A0D00005B6F7574DE
S113C5405352535D52434D5F53525331206973200C
S113C5505A45524F2020203D202523303258200DAB
S113C5600A0D00000A0D556E7265636F676E697A75
S113C5706564204B696E657469732066616D696CCE
S113C58079206465766963652E0A0D000A0D4C6F87
S113C5907720506F776572204C696E6520776974D7
S113C5A06820436F72746578204D302B0A0D0A0D94
S113C5B0000000000A55534220456E756D65726196
S113C5C07465642C20636865636B20796F757220D1
S113C5D0434F4D20706F72747320000010B50749EB
S113C5E079441831064C7C44163404E0081D0A686A
S113C5F0891888470100A142F8D110BD2C00000021
S113C600380000000A0D53746F70204D6F6465206C
S113C61041636B6E6F776C65646765204572726FFA
S113C620722052657365740013E6FFFF4403000033
S113C63000F6FF1F000000000A0D4C6F7373206F9B
S113C640662045787465726E616C20436C6F636B11
S113C6502052657365740000455252212120556EA5
S113C660646566696E656420666C617368207369CD
S113C6707A650A0D000000000A0D436F7265204CB4
S113C6806F636B7570204576656E742052657365B3
S113C690740000000A0D4C6F7373206F66204C6F9A
S113C6A0636B20696E20504C4C2052657365740096
S113C6B00A0D4C6F772D766F6C7461676520446545
S113C6C07465637420526573657400000A0D556EB9
S113C6D07265636F676E697A6564205352414D20B9
S113C6E053697A652E0A0D00466C61736820706187
S113C6F072616D657465722076657273696F6E2000
S113C700256420000A0D45787465726E616C2050B2
S113C710696E205265736574000000000A0D57614C
S113C720746368646F6728434F50292052657365AA
S113C73074000000466C6173682076657273696FDB
S113C7406E204944202564200000000080B5034881
S113C75001680348FEF7F0FD01BD000004ED00E0B0
S113C76060C4000000F009F8002801D0FFF736FF8C
S113C7700020FFF70BFA00F002F80120704780B5A3
S113C78000F002F801BD00000746384600F002F848
S113C790FBE70000C046C046024A11001820ABBEA9
S113C7A0FBE700BF260002000A0D536F6674776131
S113C7B07265205265736574000000000A0D506FA5
S113C7C07765722D6F6E20526573657400000000EA
S113C7D05352414D2053697A653A20302E35204B0F
S113C7E0420A0D005352414D2053697A653A202084
S113C7F031204B420A0D00005352414D2053697AB7
S113C800653A202032204B420A0D00005352414D1C
S113C8102053697A653A202034204B420A0D0000E7
S113C8205352414D2053697A653A202038204B42B7
S113C8300A0D00005352414D2053697A653A202075
S113C8403136204B420A0D005352414D2053697A30
S113C850653A20203332204B420A0D005352414D99
S113C8602053697A653A20203634204B420A0D0061
S113C87053696C69636F6E207265762025640A0DB6
S113C880200000001201100102000020A2150FA5D3
S113C8900000010203010000140346007200650059
S113C8A065007300630061006C00650012035500AD
S113C8B0530042002D005500410052005400000076
S113C8C0120354004500530054005F0031002E0051
S113C8D03000000010B504002100C9B20148FFF780
S113C8E06BFC10BD00A006400A0D4D444D2D415077
S113C8F02052657365740000313670696E20202003
S113C9002020202000000000323470696E20202096
S113C910202020200000000031303070696E20207B
S113C9202020202000000000202020202020202083
S113C93020202020202020204C4C5320657869742E
S113C94020000000564C4C53302065786974200058
S113C950564C4C533120657869742000564C4C5326
S113C9603220657869740000564C4C533320657846
S113C97069742000333270696E202020202020004A
S113C980343870696E2020202020200036347069ED
S113C9906E20202020202000383070696E20202056
S113C9A0202020000A555342204572726F720A00FB
S113C9B00A5642555320646F776E00000A0A5642A5
S113C9C05553207570000000C046C046C046C0469E
S113C9D0FFF7C8FE0A0D0A0D000000000A0D4B4CBB
S113C9E0300000000A0D4B4C310000000A0D4B4C86
S113C9F0320000000A0D4B4C330000000A0D4B4C72
S113CA003400000020256420000000002025640A72
S113CA100D00000025640A0D000000005642555325
S10BCA202075700004030904F1
S903C9C96A
