:020000040000FA
:10000000A0F4FF1F650100006D0100006F010000FA
:1000100000000000000000000000000000000000E0
:10002000000000000000000000000000710100005E
:1000300000000000000000007301000067040000E1
:1000400077010000770100007701000077010000D0
:1000500077010000770100007701000077010000C0
:1000600077010000770100007701000077010000B0
:1000700077010000770100007701000077010000A0
:100080007701000077010000770100007701000090
:100090007701000077010000770100007701000080
:1000A0007701000077010000770100007701000070
:1000B0007701000077010000770100007701000060
:1000C00000F002F800F03EF80CA030C80838241800
:1000D0002D18A246671EAB4654465D46AC4201D180
:1000E00000F030F87E460F3E0FCCB6460126334274
:1000F00000D0FB1AA246AB4633431847E402000087
:1001000004030000103A02D378C878C1FAD8520725
:1001100001D330C830C101D504680C6070470000BD
:100120000023002400250026103A01D378C1FBD813
:10013000520700D330C100D50B6070471FB51FBDFB
:1001400010B510BD00F007F91146FFF7F7FF00F0FA
:100150003DFB00F01FF903B4FFF7F2FF03BC00F012
:1001600023F900000748804707480047FEE7FEE7FD
:10017000FEE7FEE7FEE7FEE704480549034A054BB4
:100180007047000099010000C1000000A0F0FF1FAF
:10019000A0F4FF1FA0F0FF1F0020654908600120A8
:1001A00040046349C0394860062062490870002055
:1001B00048700846C0788006800E202108435D49BB
:1001C000C87080205C49087000205A490871487145
:1001D00000BF58488079102108400028F9D000BF9E
:1001E000544880790C2108400028F9D1704770B537
:1001F00050480078C0210840002868D14D48407917
:100200004021084000284ED14A4800780421084087
:10021000002815D1494C4748007838210840C108CA
:1002200001208840C5B22946204600F065FB0446FF
:100230004048407830210840002803D0640901E09C
:100240000124E4033B48C078E0210840C106C90E00
:10025000002926D14011030000F0ADF80805090D72
:100260001115191D20230520C00144431AE0052063
:100270000002444316E00F20C001444312E0052071
:10028000400244430EE0B720800044430AE0B72018
:10029000C000444306E02A48444303E0294844435D
:1002A00000E000BF38E023480079C006C00E451CBE
:1002B0002946224800F020FB04461E484079C0062B
:1002C000C00E0546183520466843044624E0194808
:1002D0000078C0210840402815D116484078C00752
:1002E000C00F002802D10124E40315E01148007A70
:1002F0000E2210404208012090400146124800F0B2
:10030000FBFA044608E00B480078C021084080282A
:1003100001D10A4C00E070BD0548C0384068000FAC
:10032000411C204600F0E8FA0849086000BFF2E7E7
:1003300000810440004006400050064000127A0050
:1003400095080000710B000000093D0024F0FF1F1C
:10035000704770477047754600F022F8AE460500BA
:1003600069465346C008C000854618B020B5FFF75F
:1003700003FF60BC00274908B6460026C0C5C0C5BB
:10038000C0C5C0C5C0C5C0C5C0C5C0C5403D490089
:100390008D4670470446C046C0462046FFF7DBFE48
:1003A000004870473CF0FF1F01491820ABBEFEE734
:1003B00026000200704730B47446641E2578641C21
:1003C000AB4204D3635D5B00E31830BC18471D46A5
:1003D000F8E7000000000400000008000200000030
:1003E000540A000000F0FF1F280000000401000074
:1003F0007C0A000028F0FF1F7804000020010000A4
:10040000FFFFFFFFFFFFFFFFFFFFFFFFFEFFFFFFFD
:10041000FA48806B052189020843F84988638815EA
:10042000F7498860C860F7494860F5494039086075
:1004300048608860F4480068F34949680843F34914
:100440000860F1480068F0494968084306210843FC
:10045000EE494861EC488068EC4980310860EA4820
:10046000806848617047EA480068401CE8490860B5
:100470007047E5488068E54980314860E248406857
:10048000E2494860E048006888607047DE480068DC
:10049000DE494860DC488068DC4980314860DA48E1
:1004A0004068DA4988607047D7484068D749486053
:1004B000D54800684860D4488068D4498031886055
:1004C0007047D1484068D1494860CF4800684860CB
:1004D000CD488068CD4980314860704700B5FFF74E
:1004E000C8FF00BD00B5FFF7DFFF00BD00B5FFF797
:1004F000CDFF00BD00B5FFF7E4FF00BD0020C549FA
:100500000860C5490860C5490860C5490860C54913
:100510000860C5490860704770B50025012188E072
:1005200000250020BD4B18607FE0B8480469E00753
:10053000C00F00286CD1B9480068002875DDB648A6
:100540000068401CB44B18600020B44B1860B048E1
:100550000068B64B1B68C21A022A0BDB102A09DCA2
:10056000B14800684000B04B1860AD480068401CBE
:10057000AB4B1860102A0FDDAB4800684000AA4B57
:1005800018601846006801231843A74B1860A44858
:100590000068401CA24B1860A1480068082844DB92
:1005A00000209F4B186001250B00FFF704FF062C6D
:1005B00004090E13182C9C4800689A4B586022E0DE
:1005C00099480068974B98601DE097480068954BE4
:1005D000D86018E094480068924B186113E0924884
:1005E0000568904840688F4B9B68C0188D4B1B690D
:1005F000C0188C4BDB68C618F6B2AE4201D10120A0
:1006000070BD0020FCE700BF0020874B18600CE0A5
:1006100082480068002803D17D480068834B186039
:100620007E480068401C7D4B1860002D00D17CE79F
:10063000491C052900DC73E70120E1E710B500241F
:100640007B4800780300FFF7B6FE0705182A3E53E3
:1006500082A1AB00FFF752FF002072490860754885
:1006600000F039F90120800468494860714800F0C1
:1006700032F901206E49087000BF6F486349486134
:10068000012088606D480068401C6C490860604823
:1006900000686649086002206549087081E05C488E
:1006A000006862490968401A7D214901884209D3DE
:1006B00001205649486003205D490870544800688D
:1006C0005A4908606DE05248006858490968401A64
:1006D00004280CD90020594908605748401E4B494E
:1006E000486104205249087000204B49086058E0D6
:1006F00046480469E007C00F00280DD1464800684D
:10070000002803D142480068484908604248006810
:10071000401C4149086019E03D490968434A126894
:10072000881A0F2811DD41280FDA00213A4A11609A
:1007300005213F4A11700021354A116011460968B0
:100740003A4A11600121354A116000BF29E02F4863
:100750000469E007C00F002812D12D480068334912
:100760000968421A052A0ADD602A08DAFFF7C6FE80
:10077000012080042549886006202D49087004E086
:1007800026480068401C254908600AE0FFF7C4FEBF
:10079000012804D1002026490870FFF7AFFE00E0D1
:1007A00000BF00BF10BD012803D10222174B5A60C1
:1007B00002E00222154B9A60012903D10422134B57
:1007C0005A6002E00422114B9A607047FFF70FFD58
:1007D000FFF71EFE6424601E1949884200D90CE010
:1007E000601E184948610321081F00F03DF80020F1
:1007F000144988610720086100BF34E0008004408C
:1008000040A0044000C00440D403000040F00FF8B2
:1008100004F0FF1F0CF0FF1F14F0FF1F18F0FF1F64
:100820001CF0FF1F28F0FF1F20F0FF1F08F0FF1F24
:1008300000F0FF1F905F010007000C0010F0FF1F89
:10084000FFFFFF0000E000E0FFF7F8FE2648C06869
:10085000132804DD00210120FFF7A5FF03E001219B
:100860000020FFF7A0FFEFE710B5002819DA1F4AB4
:1008700003071B0F083B9B089B00D2588307DC0E25
:10088000FF23A3409A438B071B0E8407E40EA3406B
:100890001A43164B0407240F083CA408A4001A515D
:1008A00018E0134A03231B02D21883089B00D25876
:1008B0008307DC0EFF23A3409A438B071B0E84079C
:1008C000E40EA3401A430A4B032424021B19840894
:1008D000A4001A5110BD074A116800BF054A1268EA
:1008E000521A8242FAD3704728F0FF1F1CED00E035
:1008F00000E100E004F0FF1F002203098B422CD32B
:10090000030A8B4211D300239C464EE003460B435F
:100910003CD4002243088B4231D303098B421CD3C1
:10092000030A8B4201D394463FE0C3098B4201D3B3
:10093000CB01C01A524183098B4201D38B01C01AEB
:10094000524143098B4201D34B01C01A5241030962
:100950008B4201D30B01C01A5241C3088B4201D311
:10096000CB00C01A524183088B4201D38B00C01ABE
:10097000524143088B4201D34B00C01A5241411AE5
:1009800000D201465241104670475DE0CA0F00D0C8
:100990004942031000D34042534000229C460309C1
:1009A0008B422DD3030A8B4212D3FC22890112BA47
:1009B000030A8B420CD3890192118B4208D389011F
:1009C00092118B4204D389013AD0921100E0890937
:1009D000C3098B4201D3CB01C01A524183098B4218
:1009E00001D38B01C01A524143098B4201D34B0101
:1009F000C01A524103098B4201D30B01C01A524164
:100A0000C3088B4201D3CB00C01A524183088B42EA
:100A100001D38B00C01A5241D9D243088B4201D373
:100A20004B00C01A5241411A00D20146634652415E
:100A30005B10104601D34042002B00D5494270475D
:100A400063465B1000D3404201B50020C046C0465B
:100A500002BD0000000000000000000000000000D7
:100A60000000000000000000000000000000000086
:0C0A7000000000000000000000008002F8
:040000050000016591
:00000001FF
