S0030000FC
S3510000A000FFFB0020D1F2000087A5000087A5000087A5000087A5000087A500000000000000000000000000000000000059A4000087A500000000000001A5000087A5000087A5000087A5000087A50000D6
S3510000A04C87A5000087A5000087A5000087A5000087A5000087A5000087A5000087A5000087A5000087A5000087A5000087A5000087A5000087A5000087A5000087A5000087A5000087A5000087A500007E
S3510000A09887A5000087A5000087A5000087A5000087A5000087A5000087A5000087A5000087A5000087A5000087A5000087A5000087A5000087A5000087A5000087A5000087A5000087A5000087A5000032
S3510000A0E487A5000087A5000087A5000087A5000087A5000087A5000087A5000087A5000087A5000087A5000087A5000087A5000087A5000087A5000087A5000087A5000087A5000087A5000087A50000E6
S3510000A13087A5000087A5000087A5000087A5000087A5000087A5000087A5000087A5000087A5000087A5000087A5000087A5000087A5000087A5000087A5000087A5000087A5000087A5000087A5000099
S3510000A17C87A5000087A5000087A5000087A5000087A5000087A5000087A5000087A5000087A5000087A5000087A5000087A5000087A5000087A5000087A5000087A5000087A5000087A5000087A500004D
S3510000A1C887A5000087A5000087A5000087A5000087A5000087A5000087A5000087A5000087A5000087A5000087A5000087A5000087A5000087A5000087A5000087A5000087A5000087A5000087A5000001
S3510000A21487A5000087A5000087A5000087A5000087A5000087A5000087A5000087A5000087A5000087A5000087A5000087A5000087A5000087A5000087A5000087A5000087A5000087A5000087A50000B4
S3510000A26087A5000087A5000087A5000087A5000087A5000087A5000087A5000087A5000087A5000087A5000087A5000087A5000087A5000087A5000087A5000087A5000087A5000087A5000087A5000068
S3510000A2AC87A5000087A5000087A5000087A5000087A5000087A5000087A5000087A5000087A5000087A5000087A5000087A5000087A5000087A5000087A5000087A5000087A5000087A5000087A500001C
S3510000A2F887A5000087A5000087A5000087A5000087A5000087A5000087A5000087A5000087A5000087A5000087A5000087A5000087A5000087A5000087A5000087A5000087A5000087A5000087A50000D0
S3510000A34487A5000087A5000087A5000087A5000087A5000087A5000087A5000087A5000087A5000087A5000087A5000087A5000087A5000087A5000087A5000087A5000087A5000087A5000087A5000083
S3510000A39087A5000087A5000087A5000087A5000087A5000087A5000087A5000087A5000087A5000087A5000087A5000087A5000087A5000087A5000087A5000087A5000087A5000087A5000087A5000037
S3390000A3DC87A5000087A5000087A5000087A5000087A5000087A5000087A5000087A5000087A50000FFFFFFFFFFFFFFFFFFFFFFFFFEFFFFFFCC
S3510000A42001DF704701DFFFF7FEBFDFF8C802D0F8000072B6B0F8181051B9D0F82410D0F81C20D2F81C30994200F0028062B603DF62B6704702DF70474DF804ED72B61EF0040F0CBFEFF30881EFF3098170
S3510000A46CD1F8181011F8021C032940F0048000F029F800F024B8012940F00880DFF86802D0F800005DF804EB00F047B8022940F01680DFF85402D0F80000D0F81C10D1F8082042F00102C1F80820D1F801
S3510000A4B80420D1F80030C2F80030C3F8042000F003F862B65DF804FB2DE90740DFF82002D0F8041011F0805F40F00C80EFF31182A2F1100280F82220DFF8082251EA0201C0F80410BDE8078072B6EFF332
S3510000A504098CDFF8F81191F80220EFF311832CE9FC4FDFF8DC01D0F80000D0F81C30C3F814C072B6D0F82410D1F800208A4240F01680D1F808105FEA01017FF4F5AF81F31188DFF8B811DFF8B82181F838
S3510000A550022062B6AFF3038072B6D0F82010FFF7E5BFC0F82410C0F81C20B2F82430A0F81A30D2F814C0BCE8FC4F83F311888CF3098862B6704772B64DF804EDDFF86431D3F80030B3F8181001F10101D9
S3510000A59CA3F81810DFF864014DF8040DEFF31182EFF30581D3F834002DE90700EFF30880C3F834004FEA0100D3F830200AB900F04BB8904200F24880D3F82C20811AC0F24380D3F838204FEAD1014FEAA1
S3510000A5E8810152F8011009B900F038B8D1F8002042B1824200F00880D1F8101011EA010F7FF4F4AF00F02AB8D1F80C00D1F8042062B64DF8043D90475DF8043B72B6BDE80700C3F834005DF8040BB3F811
S3510000A6341810491EA3F81810D3F81C20D2F8280010F4805F40F0098039B9D3F82410D1F80010914218BFFFF739FF62B65DF804FBD3F82820FFF7D6BF72B62DE9F100DFF88030D3F80030D3F834C00CF1D4
S3510000A680100C5CF804EBDFF8840020F00100CCF818009CE8FF005DF804CBACF1040C2CE9FF00BDE8F0008CF3088862B670472DE9024090F8001011F0800F03BF41F0800180F8001080EA00004FF0800061
S3510000A6CCBDE80280EFF309807047EFF308807047EFF303807047704670477846704762B6704772B670470000C800FF1F00ED00E00000001020ED00E0FF0000000000000021A6000008B5DFF8180004F010
S3510000A71845FEC82005F0ACFC002006F051F8BDE8084070470600FF1FFEB5074624200E4606F016FC044610B94AF6016026E0242104F082FC38462146324601F05FF90546B8B938462146324600F050FBF5
S3510000A764054680B9DFF82E00DFF82E100090DFF82E00DFF82E200190DFF82A303846029405F0C6F9054615B1204606F0EDFA2846BDE8FE40704785AB0000B1A7000089AB000065AA00000DAB00000000E2
S3510000A7B02DE9FE4F8146006888461746446A816801E008F1010811F9010B0028F9D198F90000B0BB12B94AF6036040E1206800280FD1142006F0B0FB206010B94AF6016035E1082006F0A8FB606028B9C6
S3510000A7FC06F0B6FAF4E74AF604602AE13968206800250160606845602168484601F000F9064600B105E06168484600F0EFFA064638B1206806F09CFA606806F099FA2560656030460DE104F1080504F16D
S3510000A848100602B9C3E7206810B94AF6056002E15068012838BF4AF60660C0F0FC8002204FF0000A019004EB8A008069414606F031FD00B9C1E701980AF1010A401E0190F1DC4FF0000A01E00AF1010ACB
S3510000A894BAF1020F04D204EB8A0080690028F5D1BAF1020F08BF4AF6076000F0D6801C2006F048FB834618B94AF601600090CBE055F82A0098B9202006F03CFB45F82A0018B94AF601600090BBE02C20B0
S3510000A8E006F032FB46F82A0030B94AF601600090AAE04FF0FF30B2E055F82A00CBF8000056F82A00CBF80400C9F804B07869401C400006F019FB55F82A10C86055F82A207869D168401C01EB4000106129
S3510000A92C55F82A00C16819B94AF6016000907EE055F82A00416155F82A10C868886155F82A00C0F800A0798855F82A008180398855F82A00C180B96956F82A00C161B96856F82A008160F96856F82A004F
S3510000A978C16056F82A00C0F800A0798856F82A0081807868411E56F82A00816156F82A1088694861F96956F82A000162396A01B9012156F82A00416255F82A10484601F05FF90090C0BB56F82A10484611
S3510000A9C400F07CFB009060BB404606F07BFC401C06F0B8FA04F1180141F82A00E0B1002304EB8A0204E0906908F10108C4545B1C98F90040002CF6D151F82A000022C254788810F0020005D1484641F222
S3510000AA10011100F0B9F80246104620E056F82A10484600F0EBFB55F82A10484601F0ACF955F82A00C06806F099F956F82A0006F095F9002046F82A0055F82A0006F08EF9002045F82A00584606F088F9D1
S3510000AA5C0098BDE8FE4F70472DE9F047016846684D6A824605F1080705F11008CEB90220396811B14AF608603EE03F1D401EF7DC6968504600F028FAB0BB2968504601F0DFF888BB686806F063F928684A
S3510000AAA806F060F929E031680022D1F800907168002400F029FD7168504600F09BFBE8B93168504601F05CF9C0B9183555F8290006F048F945F829403068C06806F042F9306806F03FF9706806F03CF9FF
S3510000AAF4304606F039F947F8294048F829400020BDE8F0477047000038B540680B46D0F800C0DCF814400CB900202EE0DCF81800001B00EBD070401008D5DCF81050DCF80C402C1B04EBD47400EB640065
S3510000AB405208904288BF1046002515E0DCF81420128823F8022BDCF814201580DCF81420941CCCF81440DCF81020944224BFDCF80C20CCF81420401E0028E7D1581ABDE83840704700207047F8B5064680
S3510000AB8C0D461446D0F804C0092901D82BD032E041F20113C91A07292DD8DFE801F0040A0C12141A1C22DCF80410002200F084FB36E00021FAE7DCF80410002200F0A2FC2EE00021FAE7DCF80410002234
S3510000ABD800F0E4FB26E00021FAE7DCF80410002200F032FC1EE00021FAE7152010600020506008209060002014E030462946224600F04EFD074618B140F60921884209D130462946224600F009F840F675
S3510000AC240921884208BF3846BDE8F8407047000038B50368406896465B6A08B1D0F80CC041F21114091B0E2900F2CE80DFE801F0082937CCCCCC3B7BCCCCCCCCCCA2C0C0DFF89201026812B94AF60B608E
S3510000AC70C0E046F20404C4F2030423684FF0000CAEFB03010EFB0C110CFB0311002306F02DFD4FF6FF71884288BF4AF6066000F2A980A060A5E04FF6FF70824288BF4AF6066000F29F8046F20C00C4F272
S3510000ACBC0300026097E0DFF83601426093E0DFF82E0105681DB9704600F008F98CE046F20404C4F203042068A2FB0001B0FBF5F0411E4FF6FF70814288BF4AF6066000F27B8088B22060186918B1806A9A
S3510000AD088069002814D046F20402C4F2030211684FF6FF7081420EBF4FF6FF721068421C28200CFB00F146F21800C4F203000A5046F20001C4F20301086840F00100086053E04FF6FF70824288BF4AF6F1
S3510000AD5406604DD846F20400C4F203000260186910B1806A8069A0B146F20402C4F2030211684FF6FF7081420EBF4FF6FF721068421C28200CFB00F146F21800C4F203000A50CFE710B94AF60A6029E04E
S3510000ADA04FF6FF718A4288BF4AF6036022D828210CFB01F4816804EB810346F21801C4F203015A50806820B96158DFF8320040F82C10B1E746F20001C4F20301086820F47063100200F470601843ACE709
S3510000ADEC40F6092000E00020BDE8384070474001FF1F5C01FF1F000000207047F8B50646006847F20002446AC4F20402206ADFF8C070057841F23C00115841F480011150A2F58831086840F08000086056
S3510000AE38386910F0010019D1206A006A006805F023FEF860206ADFF89010006A3246006805F0C8FDB860206A0122016A03C9C9B204F042FA386940F00100386146F20000C4F203000168002221F040018D
S3510000AE840160016821F4402101600168282105FB01F300F110015A545958002D41F47F4200F110015A50595821F47F0200F110015A5000F5883241F2180003BF115821F08001115011581CBF21F4004160
S3510000AED011500020BDE8F8407047C0464001FF1F61B600000020704730B585B0DFF8C611054691F900200024B2F1FF3F54D14AF6AA22C0F2020200920722049207E0049A521E0492009A0292009A520821
S3510000AF1C0092049AB2F1FF3F02D0009A9042F0D3049A521C04924AF6AA22C0F26A0200920922039207E0039A521E0392009A0192009A52080092039AB2F1FF3F02D0009A9042F0D3039A521C0392049ABA
S3510000AF68082A06D1039A0A2A08BF4AF6066000F09980029B019A934207D2049A082A1FBF029A0192049A039252D1039A072A98BF01244DD9039A921FD4B20722039247E046F20002C4F20302126802F0A4
S3510000AFB40C02082A12D82CD2042A35D8EAB1042A01BF4AF6AA23C0F26A0391F90020C2F1090204BF23FA02F2019225E00C2A01BF4AF6AA23C0F26A0391F90020C2F1070204BF23FA02F2019216E091F9F0
S3510000B00000204AF6AA23C0F20203C2F1070223FA02F201920AE091F900204AF6AA23C0F26A03C2F1080223FA02F20192019A904288BF4AF6066039D8039A00230A70002141EA1041019A000406F050FB77
S3510000B04C029002994FF6FF70814288BF4AF6066026D80298411E46F20400C4F2030040F80419016821F00C010160A100026801F00C0111430160016841F001010160DFF82E100D60016821F4E0410160BB
S3510000B0980268039942EA01310160016841F023010160002005B0BDE830407047C0461300FF1F4001FF1F00002DE9F8434468C869E56800F480308846B0F5803F18BF4AF60C6040F08580DFF80E010268F2
S3510000B0E472B1CA6801680068B2FBF1F14843824218BF4AF6066075D121610020606108E00120206100206061C868FFF7EBFE002868D146F20007C4F20307386840F470603860DFF8C600A6680268386825
S3510000B130002E40F00100386027D1D8F808E0D7F804900023AEFB09010EFB03114FEAEE7C0CFB0911002306F0C9FADFF8961041F8250079684FF6FF7081420EBF4FF6FF727868421C282005FB00F146F2CB
S3510000B17C1800C4F203000A500120A06116E0D8F80890D7F804C00023A9FB0C0109FB03114FEAE97E0EFB0C11002306F0A1FA2821694301EB860207F11801505046F20001C4F203010868DFF8322040F007
S3510000B1C801000860012052F82510B040084342F82500D8F81800C8F81400C8F828400020BDE8F84370474001FF1F5C01FF1F5401FF1F000010B54168C8688968D1B946F20404C4F2030423684FF6FF7253
S3510000B21493420EBF4FF6FF742268541C282246F218034243C4F20303D450A3F11804236843F0010323600EE00124282246F210038C40E4434243C4F2030312F803C0E4B20CEA0404D454DFF85A400123A3
S3510000B26054F820C003FA01F12CEA010144F8201054F8201029B946F210010023C4F203015354DFF8361001EB80020220516969B9401EFBDC46F20001C4F20301086820F080000860DFF81600002101604A
S3510000B2AC0020BDE810407047C0465401FF1F4001FF1F4001FF1F000038B54168006832F48032406A036A1B7818BF4AF60C605AD119BBDFF8BAC0282103FB01F55CF8231046F2100241F00101C4F20302FE
S3510000B2F8A9545CF823109C0011F001013AD0DFF896100B5902F10801103A6B50116841F00101116080680021C06981612AE0886860B9DFF8720050F823C0282003FB00F246F21800C4F2030042F800C002
S3510000B34446F20000C4F20300026842F00102026000228A61282203FB02FC00F110021CF802308968012202FA01F141F00101C9B2194310300CF8001046F20002C4F2030280201168C0F20100084310604D
S3510000B3900020BDE838407047C0465401FF1F5C01FF1F000010B541680068406A006A90F800C032F4803018BF4AF60C6043D159B928200CFB00F246F21000C4F20300115821F0FF01115035E08C68002C80
S3510000B3DC0EDD28200CFB00F346F210000121C4F20300A1401A58C9B222EA0101195023E028200CFB00F446F21800C4F203002358DFF83C2042F82C30A0F1140CDCF800304FF6FF7293420EBF4FF6FF7234
S3510000B428DCF80020521C225046F20002C4F20302106840F001001060012088610020BDE8104070475C01FF1F38B54168006832F48032406A036A93F800C018BF4AF60C604BD121BBDFF8983028210CFBFD
S3510000B47401F553F82C1046F2100241F00101C4F20302A95453F82C104FEA8C0411F0010134D0DFF874100B5902F10801103A6B50116841F00101116080680021C069816124E08C68002C0DDD28200CFB2F
S3510000B4C000F346F210000121C4F20300A1401A5CC9B21143195413E0DFF8300050F82C3028200CFB00F246F21800C4F203001350A0F11802106840F001001060002088610020BDE8384070475401FF1F12
S3510000B50C5C01FF1F10B541680068406A006A90F800C032F4803018BF4AF60C6040D149B928200CFB00F146F210000022C4F203000A5434E08C68002C0DDD28200CFB00F346F210000121C4F20300A140AF
S3510000B5581A5CC9B21143195423E028200CFB00F446F21800C4F203002358DFF8402042F82C30A0F1140CDCF800304FF6FF7293420EBF4FF6FF72DCF80020521C225046F20002C4F20302106840F0010023
S3510000B5A41060012088610020BDE810407047C0465C01FF1F10B54468D0F80CC0616909B1481E44E0A18811F004013AD0D0F808E0BEF1000F0FDD28200CFB00F346F210000121C4F2030001FA0EF1C9437D
S3510000B5F01A5CC9B21140195425E028210CFB01FE46F21801C4F203015EF80130DFF84C2042F82C30A1F1140CDCF800304FF6FF7293420EBF4FF6FF72DCF80020521C4EF8012046F20002C4F203021168A0
S3510000B63C41F00101116001218161206A10B1616A05F0A4FAA06960610020BDE8104070475C01FF1F08B546F214000F21C4F2030001608162DFF82C00006808B100F00CFCDFF82400416809B1406880473B
S3510000B68846F20001C4F20301086820F040000860BDE808407047C0467801FF1F4001FF1FF8B544680068DFF85C73406A1646006A057841F20910081A1B2800F29C81DFE810F01C002F0036003F006900B1
S3510000B6D472007C0085009A019A019A019A01B500DA009A019A01FB000B011B019A019A019A019A012B0147015F017601880104B118E0DFF808030168680021FA00F010F0030018BF4AF6086040F073810C
S3510000B720284600F0E9FB6EE104B105E02846314600F084FC67E114B14AF6096063E12846314600F049FC5EE104B1F5E7284600F0A7FCC168142E21F00301C16008BFC16817D00C2E02BFC16841F00101A3
S3510000B76CC16010D0062E02BFC16841F00201C16009D0022E02BFC16841F00301C16002D04AF6066039E1816841F01001816033E104B1CBE7284600F07DFC816821F01001F4E704B1C2E7284600F074FCCC
S3510000B7B8C16841F00401C16020E104B1B8E7284600F06AFCC16821F00401F4E704B1AFE7284600F061FC26B9416A21F0040141620CE1416A202E21F00301416202BF416A41F00F01416200F00181102EA5
S3510000B80402BF416A41F00E01416200F0F980082E02BF416A41F00D01416200F0F180042E02BF416A41F00C01416200F0E980ABE714B94AF60A60E4E005F070F9284600F02DFCA16800EB810603E0A16864
S3510000B850284600F0C9FA306810F08000F7D13068012120F040003060A0683A6800EB450001FA00F01043386005F038F9C2E004B9D9E705F04DF9284600F00AFCA16800EB810603E0A168284600F0A6FA12
S3510000B89C306810F08000F7D13068012140F040003060A0683A6800EB450001FA00F022EA0000DAE796B204B138E74FF6FF70824288BF4AF6066000F29880284600F0E2FB866291E096B204B128E74FF6BE
S3510000B8E8FF70824288BF4AF6066000F28880284600F0D2FBC66281E096B204B118E74FF6FF70824288BF4AF6066000F27880284600F0C2FB066371E004B109E7284600F0BBFB016A002E21F00301016256
S3510000B93401D1006A64E0012E02BF016A41F0010101625DD0022E02BF016A41F00201016256D019E704B96CE7284600F09FFB2168C98801F01F01022918BF4AF60D6048D1016D21F470210165026D46F42C
S3510000B9801001114301653DE012B94AF603603AE004B950E7284600F083FB2168C98801F01F01022918BF4AF60D602CD1006D00F47020306026E004B93DE7284600F070FB2168C98801F01F01022918BF80
S3510000B9CC4AF60D6019D1016D41F40011D4E704B92BE7284600F05EFB2168C98801F01F01022918BF4AF60D6007D1016D21F40011C2E740F6092000E00020BDE8F84070477801FF1F6401FF1F0A62002055
S3510000BA18704700002DE9F843074600680E46D0F82480D8F820000478204600F035FB054631680020082906D80CD2042907D849B1042907D003E00C2908BF012002D04AF60660F6E0D8F82020D16809B919
S3510000BA6440F00200116909B940F00400DFF8DE1151F82090204602F03DFFD8F820104868042800F2BF80DFE800F04F7F03A3B0B08968B1F1FF3F2CD146F60040C0F2DC20814524BF0020A86080F0AD809D
S3510000BAB04008814524BF2020A86080F0A68041F60030C0F2B700814524BF4020A86080F09C804008814524BF6020A86080F095804CF2C060C0F22D00814524BF6120A86080F08B80AFE7012000FA01F27C
S3510000BAFC46F60040C0F2DC20B0FBF2F0484504D8480100F06000A86079E043F20060C0F26E10B0FBF2F0484501D848014EE094E78A68B2F1FF3F1ED146F60040C0F2DC20814524BF0020A86061D24008FC
S3510000BB48814524BF2020A8605BD241F60030C0F2B700814524BF4020A86052D24008814524BF6020A8604CD271E7012046F600419040C0F2DC21B1FBF0F0484501D85001C1E764E78A68B2F1FF3F0ED194
S3510000BB944CF2C060C0F22D00814524BF6120A8604CF2C060C0F22D0081452CD351E7012043F200619040C0F26E11B1FBF0F0484505D8500100F0600040F001009FE740E78868B0F1FF3F08BF4AF606604D
S3510000BBE033D0400100F0600040F0020091E78868B0F1FF3F08BF4AF6066026D0400100F0600040F0030084E725E7A96830680843A860286A40F040002862D8F82000806904F036FFF060D8F820008069B5
S3510000BC2CDFF826103A4604F0DBFEB060D8F820108869C9690122C9B203F054FB0020BDE8F8437047C046781B0100D5BE0000000008B500680A46406A8968006AD268806904F0BEFE0020BDE80840704764
S3510000BC782DE9F0470D46016847684E6A306A90F80080404600F008FADFF8EA104FEA480E0968044621FA0EF3E988EF6101F01F0C11F4006118BF4CF0200C00224FF00109022109FA02FA13EA0A0A02D0C7
S3510000BCC4521C491EF7DC022A08BF4AF6076050D04CF0400140F82210C7F80C80DFF89A00BA60D0F800C0012302EB0E0103FA01F14CEA01010160DFF8860000EBC20040F82870E88800F470410A131EBFF6
S3510000BD1008F1010191424FF0FF302CD131680A7C22B100F4C061B1EB422F22D102F004FE08BB3268117C21B9E98801F4C061491211743168097C012902BFE16821F01001E16005D0022902BFE16841F092
S3510000BD5C1001E160E98801F01F01022905D14FF41001216501E04FF0FF30BDE8F0477047C0466401FF1F6801FF1F000070B54068C5688668284600F085F9044604F0C2FE1F2044F82600012106EB450039
S3510000BDA801FA00F4DFF82C000168A143016004F099FEDFF824000168A1430160DFF81C00002100EBC60040F825100020BDE870407047C0467801FF1F6401FF1F6801FF1F38B50C46054600F057F950F85E
S3510000BDF4241011F0800144D0DFF88E1001EBC40151F825205369116833B100EB840000690090581E506134E013695B1E53618B8813F0100301BF00EB84000369886903800AD0D1F818C000EB840000698F
S3510000BE40BCF8003080B21818ACF800008888536810F0100001D0586990B98869831C8B610869834224BFC86888618B694869834206D1831C4B610869834224BFC86848611046FFF799FBBDE83840704730
S3510000BE8CC0466801FF1F00002DE9F843DFF83460002702244FF0000806EB8709022509EBC800406818B138464146FFF797FF08F101086D1EF3DC7F1C641EEBDCBDE8F8437047C0466401FF1F70B5006834
S3510000BED80026406A0224006A057828463146FFF77FFF761C641EF8DCBDE870407047000008B500F0D1F810B94AF6066064E0016ACAB2416A036AC9B223F040030362436A036A13F08003FBD1436A13F074
S3510000BF2440031FBF416A41F0400141624FF0FF304CD1C36C9BB203F1000C836CCCF30F0C9BB29C44436CCCF30F0C9BB29C44036CCCF30F0C9BB29C44C36BCCF30F0C9BB29C44836BCCF30F0C9BB29C4497
S3510000BF70CCF30F0CCCF34F0303F500439BB2C362C36E9BB203F1000C836ECCF30F0C9BB29C44436ECCF30F0C9BB29C44036ECCF30F0C9BB29C44C36DCCF30F0C9BB29C44836DCCF30F0C9BB29C44CCF354
S3510000BFBC0F0CCCF34F0303F500439BB20363416202620020BDE808407047000010B50C4600F060F814B94AF6036025E0002808BF4AF6066020D0816A2180C16CA173816C6173416C2173016C6181C16BAB
S3510000C0082181816BE171C16A6180016DE173C16E2176816EE175416EA175016EA182C16D6182816D6174006BA0800020BDE810407047000010B50C4600F02EF814B94AF6036025E0002808BF4AF6066074
S3510000C05420D021888162A17BC164617B8164217B4164618901642189C163E17981636188C162E17B0165217EC166E17D8166A17D4166A18A0166618AC165617C8165A18801630020BDE810407047000023
S3510000C0A010B1012805D009E04BF20000C4F2030070474BF20000C4F20B0070470020704718B583B0044600F0E1F9002818BF4FF0FF3010D1DFF82800DFF828100090DFF82800DFF828200190002002900C
S3510000C0ECDFF82030204603F00FFD03B0BDE818407047C04629C3000015C100005DC60000B1C2000025C300002DE9F047804616465C200F46344604F0AFFD054600B98DE04FF47D7104F0BCFDC8F804500C
S3510000C13804F0F2FC002E00F08B80DFF864110123DFF8602180E010F0004900F0748020F07F494FEA591E00F01F0903FA09FCBEF1140F80F0688052F82E901CEA090940F0628010F070605DD051F82E9053
S3510000C1841CEA090959D14FF00009B0F1407F09D823D2B0F1807F01D816D03FE0B0F1007F09D03BE0B0F1806F01D81FD036E0B0F1006F2AD032E005EB8E00D0F820A04AEA0C0AC0F820A02BE005EB8E003C
S3510000C1D0D0F834A04AEA0C0AC0F834A022E005EB8E00D0F820A04AEA0C0AC0F820A0EFE705EB8E00D0F834A04AEA0C0AC0F834A0D0F848A04AEA0C0AC0F848A00AE005EB8E00D0F820A04AEA0C0AC0F88F
S3510000C21C20A0EFE74FF0FF39B9F1000F09D105EB8E09D9F80C0040EA0C00C9F80C0008E0F5E704F055FC284604F092FD4FF0FF3028E0241D206800287FF47BAF40463946324600F067F900B1EBE7DFF8A4
S3510000C2684460DFF83C400027052005EB87083268D8F80C10114346F8041BD8F82020D8F834102368114319437F1C44F8041B401EEBDC04F027FC0020BDE8F0477047C0469401FF1F8001FF1F70B506467E
S3510000C2B4456804F033FC30464FF442710022002403F082F8304640F20631002203F07CF8DFF844E0DFF844C0052005EB8406DEF80020F168DCF8003022EA01014EF8041B326A716B641C114323EA01014B
S3510000C3004CF8041B401EEADC04F0F0FB284604F02DFD0020BDE870407047C0468001FF1F9401FF1F0020704700207047002914BF02210021002814BF04200020002A14BF01220022084342EA0001DFF8B7
S3510000C34C0800405C7047C0469D1B01002DE9FE4F4168814601294FF21401C4F20F0118D10B68C2681A430A600B6C02691A430A64D1F8803042691A43C1F88020D1F8C03082691A43C1F8C020D1F8002114
S3510000C398C06910431CE00B68C26823EA02020A600B6C026923EA02020A64D1F88030426923EA0202C1F88020D1F8C030826923EA0202C1F8C020D1F80021C06922EA0000C1F8000105200026019009EBDD
S3510000C3E48608D8F82010D8F83400D8F84820084342EA000BDFF88600002750F826A0202000254FEA0A040090012000FA07F2D8F80C00104219D0D8F83400D8F82010D8F84830104011401A40FFF77EFF08
S3510000C430000400F4702040F480702060D9F8040028B95AF8050040F003004AF8050000987F1C241D2D1D401E0090D7DCBBF1000F07D0DFF8221006F16700895D012202F03FFF0198761C401E0190B2DCCE
S3510000C47CBDE8FE4F7047A81B0100981B0100000008B502F0D5FA0020BDE808407047000038B549F2A0014FF0FF32C4F2040104460A6001F58050026001F50050026001F54050026001F580400260DFF8BC
S3510000C4C8625067202946002204F08CFA10B90020C04322E068202946002204F083FA00B9F5E769202946002204F07CFA00B9EEE76A202946002204F075FA00B9E7E76B202946002204F06EFA00B9E0E7C2
S3510000C514204640F20731002200F09EF80020BDE838407047C04699CA00000000F8B58AB006460F461546446849B391F9000030B3DFF8041138460B2204F028FF08B901200FE0DFF8F81038460C2204F006
S3510000C5601FFF00B9F5E7DFF8EC1038460A2204F017FF10B9002060600CE0DFF8DC1038460B2204F00DFF002800D1F3E74FF0FF3057E0FBE73046FFF781FF00B1F6E7002D4BD06068012848D105A8142144
S3510000C5AC04F02CFF00A8142104F028FF012305A900AA19E02EF07F4046090EF01F0003FA00F0C0F3070C1EF080401DBF52F8260040EA0C0042F8260051F8260004BF40EA0C0041F826002D1DD5F800E047
S3510000C5F8BEF1000FE0D14FF204010098C4F20F0108600598486001980864069848640298C1F880000798C1F884000398C1F8C0000898C1F8C4000498C1F800010998C1F804012046FFF78CFE00200AB08D
S3510000C644BDE8F8407047C0461400FF1F1F00FF1F2B00FF1F3500FF1F2DE9F04F9BB04668A1F20130DFF81C541446072800F20282DFE810F0080047008A003801DB00D2016E01B10104F04AFA234601223B
S3510000C690DFF8F81315E017F000400CD027F07F40450907F01F0002FA00F7142D03D251F82500384204D004F019FA4FF0FF30DFE11B1D1F68002FE6D10123DFF8C01311E022F07F40450902F01F0006EBA5
S3510000C6DC850203FA00F7D068241D3843D06051F82500384341F825002268002AEAD13046FFF72CFE04F0F4F9BBE17068012818BF4FF0FF3040F0B6812AB904F003FAF0684FF2040141E016A8142104F07D
S3510000C7286FFE04F0F9F9012216A918E015F0004013D025F07F40430905F01F0002FA00F5142B0AD206EB8300C06828421EBF51F82300284341F8230000D1A8E7241D2568002DE3D14FF204011698C4F25B
S3510000C7740F010860179808641898C1F880001998C1F8C0001A984FE07068012818BF4FF0FF3040F073819AB904F0C0F9F0684FF20801C4F20F010860306908647069C1F88000B069C1F8C000F069C1F8F7
S3510000C7C000019DE711A8142104F01EFE04F0A8F9012211A918E015F0004013D025F07F40430905F01F0002FA00F5142B0AD206EB8300C06828421EBF51F82300284341F8230000D157E7241D2568002DB2
S3510000C80CE3D14FF208011198C4F20F010860129808641398C1F880001498C1F8C0001598C7E77068012818BF4FF0FF3040F0228102B93CE70CA8142104F0E0FD07A8142104F0DCFD04F066F901200CADFC
S3510000C85807AF23E013F000411ED023F07F41490903F01F0200FA02F2142915D206EB8108D8F80C8012EA08080ED013F080431DBF57F821301A4347F8212055F8213004BF1A4345F8212000E009E7241D2C
S3510000C8A42368002BD8D14FF204010798C4F20F0108600C984860089808640D9848640998C1F880000E98C1F884000A98C1F8C0000F98C1F8C4000B98C1F800011098C1F804010BE7DFF8A47102AD0223B6
S3510000C8F003CF03C55B1EFBD138682860706800B19DE702B99BE704F00BF902A901201DE017F0004218D027F07F42530907F01F0251F8235000FA02F7142B0DD206EB8302D2683A4208D02A683A422268FE
S3510000C93C14BF42F0804222F0804200E0B5E604C42768002FDED1D5E605200027019006EB8708D8F82010D8F83400D8F84820084342EA0009DFF820014FF0000A50F8275020204FF0010B2C46009019F0F4
S3510000C988010016D028680BFA0AF220F470202860D8F83400D8F82010D8F84830104011401A40FFF7BFFC0004216800F47020084320600098241D2D1D401E4FEA59090AF1010A0090DBDC01987F1C401EEA
S3510000C9D40190C0DC51E0DFF8B8400025052006EB85018B6C0A6A496B0027114343EA010854F82530202118F001021EBF1A6822F470221A604FEA58087F1C1B1D491EF2DC6D1C401EE3DC30E0706801288D
S3510000CA2008BF4FF0FF302BD0B26004F079F8ACB92A6802B3114604E0B14218BFB04203D0014608680028F7D1B14204BF1068286011D0B04204BF006808600CE0296821B92E6008E0B14203D0014608689A
S3510000CA6C0028F9D1B14218BF0E6043E640F6092000E000201BB0BDE8F04F70477C01FF1F8001FF1F4000FF1FA81B010010B584B0DFF8960000680390002002903EE000220192DFF88A0001212AE00092FF
S3510000CAB822E0009B039C01FA03FC019B04EB8303DB681CEA030314D0019B50F82340009B54F8233013F080731FBF019B50F823C0009C5CF824301EBF43F080734CF824300291009B5B1C0093009B202B99
S3510000CB04D9DB019B5B1C0193019B052BD1DB029828B103990024896800208847029403980068039003980028BDD104B0BDE8104070477C01FF1FA81B0100000010B1012805D009E046F20000C4F2060021
S3510000CB50704747F20000C4F2060070470020704710B1012802D003E02820704729207047002070470EB5DFF82420DFF824300092DFF8202001920291DFF81C10DFF81C2000F0B8FABDE80E407047C046A4
S3510000CB9C5DCD0000A9CC0000EDD30000B1CB000051CC00002DE9F041466904460A46304604F1180100F0A8FB074600283CD1A56930786C69FFF7C6FF804610B94AF6021032E0306904F0B4F8E86208B9A9
S3510000CBE804202BE0F06804F0ADF8A8630028E86A04D104F0B7F80020E862F1E740F2094104F050F8A86B40F20A4104F04BF8404603F03AFFE861DFF82A1040462A4603F0E1FEA8612878FFF797FF297A71
S3510000CC34012202F05BFBA07840F04000A0703846BDE8F041704705CE0000000070B506460D4601B110B94AF603101FE04A69D17811F0200118BF4AF6011017D100249470D47040690078FFF771FFA96909
S3510000CC80EA6903F0B3FEB06904F070F8B461E86A04F06CF8A86BEC6204F068F8AC630020BDE8704070470000F8B584690F466569164603F035FFA87800F0BF00A87003F015FF002001460FE0636B226B68
S3510000CCCC93420DD05A1C6263E26AD25C07F8012B636B2269934228BF6163401CB042EDD394F8222000A90A700A78012A28D8032284F8222094F8212012BBAA7842F01002AA70097801290CD1E97841F0E8
S3510000CD180201E970A97841F00401A970E97811F08001FBD003E0A97841F02001A9700121616294F82310490041F001012971E16C491CE164A97841F04001A970BDE8F84070470000F8B584690F46656932
S3510000CD64164603F0DBFEA87800F0BF00A87003F0BBFE002011E0D4F83CC0E1680CF101038B4228BF0023216C8B4208D017F8012BA16B401C01F80C20E363B042EBD394F82220012A25D8022184F8221011
S3510000CDB094F82110F9B9A978012A41F01001A9700CD1E97841F00201E970A97841F00401A970E97811F08001FBD003E0A97841F02001A9700121616294F8231049002971E16C491CE164A97841F04001B2
S3510000CDFCA970BDE8F84070471CB54269446CD3780021641C4162446494780DF1000C14F0200400F09980947814F0100453D013F001030ED0D17841F00201D170917801F0EF019170816D491C8165072158
S3510000CE4880F8221057E190F82230022B19D1C46B036C9C4202BF907800F0BF00907000F04A81D37843F00203D370046C01234362631C0364836B1B5D1371036CC2689342FAE0032B20D1D17841F0020163
S3510000CE94D170917801F0EF019170816A012902BF917841F008019170816A002901BF917801F0C701917007210FBF80F8221001214162107918BF8CF8000016E111E190F82230032B3BD1836ACBB3036B50
S3510000CEE05B1C8CF800309CF8004003699C4228BF8CF800109CF80030416B8B4202BF907800F0BF00907000F0FA80D17841F00201D170816A491E816201BF917801F0C701917007210EBF80F822100121E6
S3510000CF2C4162816A012902BF917841F0080191701379C26A016B53549CF800100163816C491C8164D5E0D0E013F010040DD0D17801F0EF01D170C16B0164416B0163016D491C0165062180F8221013F07A
S3510000CF7840014BD090F8211031B9C16B0164416B0163416D491C416513F004011BD090F82210022905D005291FBFC16B0164416B0163917841F010019170052180F82210C36B016C8B4202BF907800F077
S3510000CFC4BF00907000F0998047E0D17841F00201D170917801F0EF01917090F82210032906D004291FBFC16B0164416B016306D1816A012902BF917841F008019170042180F822100121416210798CF889
S3510000D010000074E0002C40F06E80917811F0100139D013F001010BD0D17841F00201D170917801F0EF01917011798CF80010FFE690F82210022901D005291FD1C36B016C8B4202BF907800F0BF009070CC
S3510000D05C4FD0D17841F00201D170036C01214162591C0164816BC95C1171026CC1688A4228BF002128BF0164C16C491CC16438E0907800F0BF00907033E090F82210C91EC9B2012928D8816A31B3036B31
S3510000D0A8591C01638CF800309CF8003001698B4224BF00218CF800109CF80030416B8B4202BF907800F0BF00907014D0D17841F00201D170816A491E8162012902BF917841F0080191700121416223E78C
S3510000D0F4CAE7D07840F00200D070BDE81C4070472DE9F04184B005462420884617461E4603F0B6FD0446002808BF042020D040F2074103F0C1FDC4F8008067600A98A660E0600B98DFF8301020610C9846
S3510000D140DFF82C206061DFF82C00DFF82C300090DFF828000190DFF8280002902846039402F05AFC04B0BDE8F0417047B1D10000EDD1000029D2000019D2000039D2000085D1000038B5446A0546E0698E
S3510000D18C58B9626812B1A16920469047204603F0E7FD00206862002001E040F60A20BDE838407047F8B5074600680E46446A154603F0B0FCE06918B103F092FC2C200CE00120E06103F08CFC2562BD6066
S3510000D1D8226820463146904708B10021E161BDE8F840704738B500680025446A03F094FCE069401EE06105D162681AB1A16920469047054603F06EFC2846BDE83840704708B50068406A83689847BDE8AA
S3510000D2240840704708B50068406AC3689847BDE80840704708B500684FF0000C406A092901BF16201060C2F804C04A2008BF906004D0036913B18069984784466046BDE8084070472DE9F84FDFF860E097
S3510000D270DFF860C04FF0FF3600240322DCF8009000254FEA0E0A4023DAF800B009FB0BFB01FB0BFBBBEB000B48BFCBF1000B5E4582BF5E462746A8466D1C0AF1040A5B1EEADC641C0CF1040C521EDFDC02
S3510000D2BCF8B2800100F0C00108F03F000843BDE8F84F7047C81B0100BC1B01000EB5DFF82420DFF824300092DFF8202001920291DFF81C10DFF81C2000F038FBBDE80E407047C046A5D6000031D6000020
S3510000D308EDD3000015D30000B9D30000F8B5064600780F46FFF710FC044610B94AF6021042E05C2003F0AAFC054608B904203BE040F20B4103F0B6FC307801F063FB3D60B4462B460222BCE8030003C33D
S3510000D354521EFAD1DCF8000018606C61707885F82100002085F8220085F823006862A862E86228636863A863E86328646864A864E86428656865A865A070E070B0784000207046F600407168C0F2DC2012
S3510000D3A0FFF762FF6070A07840F08000A0700020BDE8F8407047000038B5054601B110B94AF603100FE04A69D17811F0200118BF4AF6011007D100249470D470806903F0C5FCAC610020BDE8384070476B
S3510000D3EC38B5002500AB94464469032901D819D00EE1A1F20141112900F20A81DFE811F08E00A30074007D008700CE00DA00BF00C70064002C004400E400ED00F8006B007000FF00E1781970197811F0B8
S3510000D4388001F9D0416A0029F6D1A17811F0100104D0D0F83CC0016C8C45EDD1002A00F0E180187800F001001060DBE0A17811F0200100F0D78090F82210022904D0032902D0072940F0CE80012180F856
S3510000D4842210016CC163016B416300218162C3E0A17801F0E701A170A17811F0200107BF21791970A17801F0DF0118BFA170E17841F01201E170016CC163016B4163002180F822108162E07810F020002E
S3510000D4D0FBD1A3E0002A0EBF4AF60315116881629CE0A07800F07F00A07097E0A07840F08000F9E790F82210002914BF4AF6011580F821508AE090F82210002912BF4AF60115012180F8211080E0002A20
S3510000D51C0CBF4AF6031590F821005BE012B94AF6031575E090F82200002818BF4AF6011540F06E8046F600401168C0F2DC20FFF78DFE607064E0002A08BF4AF603155FD0607800F0C0008109DFF8BE00CA
S3510000D56850F82130607800F03F01DFF8B60050F8210046F60041C0F2DC215843B1FBF0F06AE7002A0EBF4AF60315116880F8231040E0002A0CBF4AF6031590F823001BE0002A08BF4AF6031534D01068EB
S3510000D5B4C0B2400000F0FE0020702DE0002A08BF4AF6031528D0207800F0FE00400845E7002A0CBF4AF6031590F8220018BF10601AE002B99FE700F14403032203CBACE80300521EFAD10FE045648564B6
S3510000D600C56405654565856508E002B98DE7E07810F020001ABF0120106015602846BDE838407047C046BC1B0100C81B0100000008B58C468169134691F822E0CEF307024869012A28D8032281F822205C
S3510000D64C91F8212012BB8278BEF1010F42F0100282700CD1C27842F00202C270827842F004028270C27812F08002FBD003E0827842F02002827001224A6291F82320520042F001020271CA6C521CCA6450
S3510000D698624600F03BF8BDE80840704708B58C468169134691F822E0CEF307024869012A26D8022281F8222091F8212002BB8278BEF1010F42F0100282700CD1C27842F00202C270827842F004028270D8
S3510000D6E4C27812F08002FBD003E0827842F02002827001224A6291F8232052000271CA6C521CCA64624600F003F8BDE8084070477CB54FF0000C1DE1C47814F00205FBD000254D62857815F0200500F068
S3510000D7308580857815F010054DD014F001040FD0C37843F00203C370837803F0EF0383708B6D5B1C8B65072381F822306346F9E091F82240022C0FD19C4580F0F380C47844F00204C47001244C6212F8F3
S3510000D77C014B0471CC6C641CCC64E5E0032C23D1C47844F00204C470847804F0EF0484708C6A012C02BF847844F0080484708C6A002C01BF837803F0C7038370072307BF81F82230634601244C621FBF93
S3510000D7C8057900AC2570ACF1010CBFE02DE091F82240032C29D18C6A002C26D09C4580F0B580C47844F00204C4708C6A641E8C6201BF837803F0C7038370072303BF81F822300CF101039C46012418BF37
S3510000D8144C628C6A012C02BF847844F008048470047902F8014B8C6C641C8C6490E0C37843F00203C3708FE714F010060AD0C37803F0EF03C3700D6D63466D1C0D65062581F8225014F040053CD091F8F0
S3510000D86021501DB94D6D63466D1C4D6514F0040410D091F82240022C02D0052C18BF6346847844F010048470052481F822409C4560D26CE7C47844F00204C470847804F0EF04847091F82240032C03D0F9
S3510000D8AC042C18BF634606D18C6A012C02BF847844F008048470042481F8224001244C62057900AC2570ACF1010C3DE0002E37D1857815F0100518D014F001040BD0C37843F00203C370837803F0EF0394
S3510000D8F88370047900AB1C7026E791F82240022C01D0052C02D19C4520D22CE722E791F82240E41EE4B2012C13D88C6A8CB19C4514D2C47844F00204C4708C6A641E8C62012C02BF847844F0080484708A
S3510000D94401244C626CE707E7C47844F00204C4700CF1010C9C457FF6DFAE1846BDE87C40704700002DE9F04184B005462420884617461E4603F084F90446002808BF042020D04FF4816103F08FF9C4F8BE
S3510000D990008067600A98A660E0600B98DFF8301020610C98DFF82C206061DFF82C00DFF82C300090DFF828000190DFF8280002902846039402F028F804B0BDE8F041704715DA000055DA000091DA00008B
S3510000D9DC81DA0000A1DA0000E9D9000038B5446A0546E06958B9626812B16069A1699047204603F0B5F900206862002001E040F60A20BDE838407047F8B5074600680E46446A154603F07EF8E06918B18A
S3510000DA2803F060F82C200EE00120E06103F05AF82562BD606069236804F118013246984708B10021E161BDE8F840704738B500680025446A03F060F8E069401EE06105D162681AB1A1692046904705461B
S3510000DA7403F03AF82846BDE83840704708B50068406A83689847BDE80840704708B50068406AC3689847BDE80840704708B500684FF0000C406A092901BF17201060C2F804C04C2008BF906004D00369AB
S3510000DAC013B18069984784466046BDE8084070474FF47A7148436021484301E0C046401E0028FBD17047000038B50546002410F001001ED003F014F84DF20001C4F20301086940F001000861DFF8DC00BD
S3510000DB0C0460DFF8DC000460DFF8D80044600460086920F0010008614FF0FF3088600120086002F0DDFF15F0020016D002F0F2FF4DF20001C4F20301086940F001000861086920F00100086101200860B4
S3510000DB58DFF8940000214160016002F0C3FF15F0040039D04DF20001C4F20301086910F001001EBF086920F0010008614DF20002DFF868105220C4F2030202F02BFF10B902F0D2FA0446FCB94DF2000154
S3510000DBA4C4F20301486910F0100003D0086910F480700ED14DF20005C4F20305286940F4807028617D20FFF781FF686940F01000686152200421012201F088FB2046BDE838407047B801FF1FB401FF1F5E
S3510000DBF0A801FF1FF9DB000038B54DF20003C4F2030358690121DFF8B45010F0030219D05A69042422F010025A614FF0FF329A6019605A6942F010025A6100F0020202B9002410F0010214BF082200224D
S3510000DC3C2B6822431A432A6010F0040029D04DF20000C4F203008468DFF868000068844209D1286840F001002860686820F0010000F098F80021DFF850000068844209D1286840F002002860686820F06B
S3510000DC88020000F089F80021012904D1686820F0010000F081F8AA6842B129686868084204D04DF20000C4F203009047BDE838407047C046A801FF1FB801FF1FB401FF1F38B5C20FC2EB80710024054604
S3510000DCD412EBB1710CD16421012403F027FD01B9002428464FF4C87103F020FD01B901242046BDE838407047F8B50746008840F2B274A0F2B27140F26D1001FB00F504E0A0B2FFF7D7FF2D18641C38889A
S3510000DD208442F7D30126DFF854400BE004EB4600801E00882D18022E03D13888FFF7C4FF2D18761C78888642F0D3B8883989401E2D183C2001FB00F345F28010C0F2010005FB00F2F9884FF461604843B9
S3510000DD6C10187C8918182018BDE8F8407047C046C81C01004DF20002C4F20302516921F01001516100681060506940F0100050617047000010F0030101BF4FF0FF314DF20000C4F2030081601DD0032969
S3510000DDB80ED1DFF838000168DFF8340002688A4288BF0A464DF20000C4F203008260704710F0010014BFDFF81800DFF8100001684DF20000C4F2030081607047B401FF1FB801FF1F18B589B0012816D1F6
S3510000DE044DF20000C4F20300006805AC049000900020019000A8214601F0C2FE204602AC214602F02FF8204601F064FF0FE002AC204602F019F8204605AC214601F0B0FE2046FFF759FF049004A8FFF7CB
S3510000DE5097FF002009B0BDE81840704700B585B0DFF82C300093DFF82C300193DFF82830029303910492DFF82410DFF82420DFF8243000F04DF905B05DF804EB7047C04681DF000095DF0000A5DF000063
S3510000DE9CA9DE000059DF000069DF00002DE9F041804654200F4602F0E7FE064608B9042048E0D8F80450E8B200F076FB044610B94FF480303EE03E6033460422B8E8030003C3521EFAD1E8B200F0A0FCDD
S3510000DEE83462F268B06800EBC2011001B1FBF0F141F6FF70814288BF4FF0FF3024D8080A207061700021A1700C20E070A171207C00F07000000908BFE1740AD0207C012100F070000009401C01FA00F0DE
S3510000DF34C0B2401EE07401206075607C40F0C0006074207C40F0880020740020BDE8F0417047000008B5084602F006FF0020BDE808407047026A117911F02001FBD0416B491C416392F9070070470000A5
S3510000DF80036A1A7912F08002FBD0D971816B491C81637047006A807C10F040000CBF01200020704710B5A1F60251046A162900F2AF80DFE801F07A1C1E3243ADADADADAD120CADAD6659ADADAD4D51972F
S3510000DFCCA4A4A07800F010000009083044E0A07820F010011068092808BF41F01001A17093E0C06838E01368816801EBC3021901B2FBF1F1B1F5F85F88BF40F6092000F28580C360C1F3042020706170DB
S3510000E0187DE0016B1160416B5160816B9160C16BD160016C1161416C5161816C9161C06CD0616CE00021016341638163C163016441648164C16462E0207910F0800002E0207910F0200014BF01200020D0
S3510000E064106056E0A078012110F0020005D0A078022100F0010000B90321116049E0A07820F00301106801280CD0022802D0032803D005E041F0030104E041F0020101E00C2037E09FE7E17811F0200116
S3510000E0B00CD1116811F008011DBF617B41F009016173617B04BF01F0F6016173116811F0200120D0406800F0BBFC607B40F00200607318E01068012803BFE07800F0FB00E070E0781CBF40F00400E0703D
S3510000E0FC0BE0207900280CBF0120002010F04000F7D102E040F6092000E00020BDE81040704700002DE9F84183B005463020884617461E4602F0A8FD0446002808BF042021D040F2F93102F0B3FDC4F8DA
S3510000E148008067600A98A660E0600B98DFF8341020610C98DFF8302060610D98DFF82C30A0610E982062DFF828000090DFF8240001902846029401F0C9FC03B0BDE8F8417047C046A1E1000049E20000BA
S3510000E19479E200001DE400001DE50000F8B50D46016807464C6A1646616A29B1491C6162A16A8160002042E0206A103002F0C4FDE06208B904203AE04FF47F7102F06CFD216AE06A2A460160E06A0021BB
S3510000E1E04160E06A8160E06AC160A662BE60A069236804F11C0198470546C0B9606930B10096E069636940F6025100AA984716F010000CD016F0070018BF0C2507D163692BB1E06940F6155100AA9847EB
S3510000E22C0546002D02BF01206062284603D0E06A02F096FD2846BDE8F840704738B500680025446A606A401E60620AD162681AB1A069E16990470546E06A02F081FD0020E0622846BDE83840704700001D
S3510000E2782DE9FE4F00689146446A8A46A16A4D4601F00100019001F00200E669009001F0040701F0100BB6E00198002800F06B8042E0A16830468847C0F30708B8F1130F23D11EE0A16830468847C0F317
S3510000E2C40708B8F1110F16D0E26A51681068814211D2D168481CD060E06A401880F81080E26AD1681068814204BF0020D060E16A4868401C4860B8F1110FDDD116E0E26A51681068814211D2D168481CB1
S3510000E310D060E06A401880F81080E26AD1681068814204BF0020D060E16A4868401C4860E06A4168006881422BD22169304688470028B2D125E0A16830468847E26AC0F3070851681068814211D2D16809
S3510000E35C481CD060E06A401880F81080E26AD1681068814204BF0020D060E16A4868401C4860E06A41680068814204D22169304688470028D9D1E16A4868002833D00FD0401E4860E26A9168481C906026
S3510000E3A8E06A411891F81080826801688A4204BF002181600098B0B1B8F10D0F07D11FB1E26830460D2190474FF00A080BE0B8F1080F08D13FB1E268304608219047E26830462021904727B1E268304663
S3510000E3F448F3070190470AF8018B6D1E05E0BBF1000F18BFA9EB050902D1002D7FF446AF4846BDE8FE4F70472DE9F84F00688A46446A9146A06A551CE66900F0010B00F0020700F0100867E0BBF1000F09
S3510000E44046D03BE0A16830468847C1B213291FD11BE0A16830468847C1B2112915D0E06A43680268934210D2C3685A1CC260E06AC0180174E36ADA681868824204BF0020D860E26A5068401C50601129E9
S3510000E48CE1D115E0E06A43680268934210D2C3685A1CC260E06AC0180174E26AD1681068814204BF0020D060E16A4868401C4860E06A41680068814204D22169304688470028B9D13FB19AF900000A282B
S3510000E4D803D1E26830460D219047B8F1000F0CD0636953B1E06940F6155100AA984720B9009810B9A9EB050907E0E0691AF9011BE26890476D1E7FF495AF4846BDE8F84F7047000038B503681546D3F83A
S3510000E52424C040F60153002499420AD81DD20A2931D806292FD309D0092925D00A2923D029E040F60253994213D024E0DCF82C00406800281CBF0120106024D1DCF81C00DCF81010884728601DE0DCF841
S3510000E5702800106019E01368CCF8283013688360DCF814308BB1DCF81C000CE00F20106000244C205460906007E0DCF8143023B1DCF81C002A46984704462046BDE8384070470000052822D8DFE800F05C
S3510000E5BC03080D12171C4AF20000C4F2060070474BF20000C4F2060070474CF20000C4F2060070474DF20000C4F2060070474AF20000C4F20E0070474BF20000C4F20E00704700207047000010B5DFF80C
S3510000E60820000468D4F8AC0138B1D4F8B01100F013FFC4F88002C4E9A100BDE810407047C800FF1F08B5DFF8100002F00BF80020BDE808407047C0465C00FF1F38B5C0B0DFF8AC5000AA25F0010000F068
S3510000E654020142EA01042146FD2200F069FD05F0010044F2010344EA00010020C4F2060318709822581E0270587910F01000FBD144F20602C4F20602107800F00C0080080228F9D144F20405C4F2060553
S3510000E6A0182028700020A5F1FF3420700020C0F21310884758202070A87810F02000FBD044F20601C4F20601087810F04000FBD044F20001C4F20601087800F03F000870887900F00C0080080328F9D1EE
S3510000E6EC002040B0BDE838407047C04601E8000048F228014FF0FF32C4F204010A604A608A606FF48020C8600A614A618A61704742F200024CF22050C4F20502D0814DF62810D08111884FF6FE70084048
S3510000E7381080704747F20002C4F2040202F58250016841F00101016041F20400115841F4407111504FF4A06102F540508162C162016441648164C164016541658165C16502F58040016041608160C160EC
S3510000E784016141618161C161016241628162C162016341638163C16302F5A040016041608160C16001614161816170474CF20001C4F2000108604FF4166088600120C0F2070048607047000008B5FFF7BC
S3510000E7D0A5FFFFF737FFFFF791FF4DF20001C4F20001086820F001000860FFF7A7FFDFF80C00FFF7DDFFBDE808407047000000700CB44FF20003C4F201031A68196841F47F01196048F24401C4F2040133
S3510000E81C0860009800901A600CBC704705285FD8DFE800F00313243444514CF20000C4F204004FF450718161C161A0F5A04241F23400115841F480610EE04BF20000C4F204004FF45071C1600161A0F5A5
S3510000E868804241F23400115841F4006111503CE04CF20000C4F204004FF450718160C160A0F5A04241F23400115841F48051EDE74BF20000C4F204004FF4507101644164A0F5804241F23400115841F439
S3510000E8B40051EEE74BF20000C4F204004FF450718163C163A0F5804241F22800BDE74DF20000C4F204004FF4507101624162A0F5C04241F22800C0E70020C043704700207047000050B947F20002C4F24C
S3510000E900040241F23C00115841F00061115010E0012801BF47F20002C4F2040241F23000115804BF41F00061115002D00020C043704700207047000000F01F0210F4006104D0032A02D90020C0437047F3
S3510000E94C21B9022A02D10020C0437047182A1BD200F47041B1F5805F04BFDFF88400815C13D000F4C060B0F5806F00D018B9DFF87400815C09E0111FC8B203288EBF0021DFF86400415C00E0012111B94E
S3510000E9980020C0437047012908BF002020D04811052814D8DFE800F0130306090C0F49F200030AE04AF2000307E04BF2000304E04CF2000301E04DF20003C4F2040301F01F0153F8210020F4E06043F84A
S3510000E9E4210000207047C046C81D0100E01D0100F81D010048F23C01C4F20401086840F0005008600020704780B94CF20000C4F204004FF4087101624162A0F5A04241F23400115841F04001115002E099
S3510000EA300020C043704700207047000048F23801C4F20401086840F47850086000207047032809D0042801BF4FF440714DF20000C4F20400C16606E04BF200004FF44071C4F20400816400207047000079
S3510000EA7C4AF200614EF21400C0F20E01CEF2000040F80419072101604EF61C51CEF20001086840F080500860486840F0804048607047000010B542F2620001F0C1FD00204FF0005102F062FA0020FA216C
S3510000EAC800F0B6FA002859D1DFF8B60000F0E6FB0F2001F0E5F8DFF8AE100F20002201F081FF08B9262049E0FFF7C4FFDFF89A0004684AF20060C0F20E00C4F87C01642001F0D6F8D4F87C0101F0BAF8CE
S3510000EB14DFF87E00002101F0BDF801F011F878BBFFF768FF28B90420FEF7DCFF0120FFF763F9DFF86210DFF862000A68FFF78CF9DFF85A10DFF85A000A68FFF785F9DFF85640DFF856002146FEF7BCFB4D
S3510000EB60DFF84E002146FEF705F8DFF84A00FDF7A7FADFF84600DFF84610FBF7D9FDFFF741FD0020BDE81040704700A00000C5EB0000C800FF1FD1EB0000001D01008C00FF1F801D01009200FF1FB41D44
S3510000EBAC01009800FF1F9E00FF1FA500FF1FAB00FF1F301E01000000DFF804301847C04651FD00004EF21401CEF2000108684FF0000C20F07F40421C486820F07F43D1F8F00C10F080601EBF486820F049
S3510000EBF87F43944603B91346D01A604470470000DFF804301847C046CDE700007047000070B58A18521E22F00F060F31A6F1600421F00F01816106614461204660211D4600F00AFA002120460160049890
S3510000EC446060DFF8240020640598E062686840F0010060644FF08070A0646FF00200A062BDE870407047C0466D030100DFF864000168D1F8A001072884BF0720C1F8A00103D810B90120C1F8A001400121
S3510000EC9000F0E000C88241F600414FF0000CC023C1F6FF716820ACEB010213700CF1010C401EF8DC41F680614FF0000C4FF0FF33C1F6FF710420C1EB8C0213600CF1010C401EF8DC7047C046C800FF1FBF
S3510000ECDC70B5DFF86000056800202862D5F8FC00841C200102F02AF9064608B904201DE0052101F0D5FFC02111E036607660F481D5F8A0012018072828BFB18103D2400100F0E000B081286AB0602E62D1
S3510000ED2810362046641E0028E9D1286A68620020BDE870407047C046C800FF1F2DE9F84F8946DFF8B01004680E684568D6F8788182462046294642460023002702F0C2FC4FF0FF32101A77EB01003FBFE2
S3510000ED74C9F8002040F2E730C9F80400002037D34FF47A7BA4FB0B0104FB071105FB0B114246002302F0A8FC4FF47A720023044602F0A2FCC9F8000000FB0BF0201AC9F80400DAF808304FF4FA62A3FBB4
S3510000EDC0020103FB071107FB02114246002302F08DFCD6F88021002302F088FC421C41EB07005108D9F8043041EAC0715818C9F804000120BDE8F84F7047C046C800FF1F38B50468D1F800C045684B6833
S3510000EE0CB4EB0C049D41146055608368D1F808C063450AD2DFF820000068D0F880011B18601E65F1000110605160A3EB0C009060BDE838407047C046C800FF1F70B586B00446006803AD0E46294600F073
S3510000EE5857F8606800AC214600F0B2F828462146324600F021F806B0BDE870407047000010B5DFF8301084680968D1F880118C420DD3B4FBF1FC0268436812EB0C0243F100030CFB01F1611A02604360DF
S3510000EEA48160BDE810407047C800FF1F70B50468D1F800C045684B6814EB0C045D41146055608368DFF83000D1F808C00068D0F88061A6EB0C00834238BF03EB0C0007D3601C45F100011060ACEB0600D8
S3510000EEF0516018189060BDE870407047C800FF1F80F311887047000010B5DFF82420002412688C60D2F878C1A0FB0C2300FB043304FB0C330A604B60BDE810407047C046C800FF1F10B50022DFF8823086
S3510000EF3C8A60D3F804C00C46BCF1010F08D1DFF872201268B0FBF2F200200A6048602CE0DFF86220BCF1020FD2F800E012D1DEF878314FF0000CA0FB032100FB0C110CFB031110464FF47A72002302F078
S3510000EF88B1FB2060616012E0DEF878214FF47A7CBCFBF2FC0CFB02F2C3F800C0B2F57A7F04BF01225A60CCD002215960D9E7BDE810407047C046BC01FF1FC800FF1F00002DE9F0410D46DFF864100024A1
S3510000EFD4D1F80080D8F87811A0FB016700FB047704FB0177304639464FF47A72002302F07BFB28606960304639464FF47A72002302F078FBD8F88061A0FB062300FB043312F5FA7001FB063343EB04012D
S3510000F0204FF47A72002302F061FBA860BDE8F0417047C046C800FF1F10B501F099FC044608B900F037F92046BDE8104070470000032962D910F0010203D0002200F8012B491E10F0020203D0002220F8FA
S3510000F06C022B891E8B09002214E0026042608260C260026142618261C261026242628262C26202634263826300F13C0C4030CCF800205B1E002BE8D1C1F383020F2A36D8DFE802F035322F2C292623204A
S3510000F0B81D1A1714110E0B08002240F8042B002240F8042B002240F8042B002240F8042B002240F8042B002240F8042B002240F8042B002240F8042B002240F8042B002240F8042B002240F8042B00226D
S3510000F10440F8042B002240F8042B002240F8042B002240F8042B11F002021CBF002220F8022B11F001011CBF002101707047000010B5032A40F2A58010F0010304D010F8013B01F8013B521E10F002033A
S3510000F15004D030F8023B21F8023B921E930946E0D0F800C0C1F800C0D0F804C0C1F804C0D0F808C0C1F808C0D0F80CC0C1F80CC0D0F810C0C1F810C0D0F814C0C1F814C0D0F818C0C1F818C0D0F81CC019
S3510000F19CC1F81CC0D0F820C0C1F820C0D0F824C0C1F824C0D0F828C0C1F828C0D0F82CC0C1F82CC0D0F830C0C1F830C0D0F834C0C1F834C0D0F838C0C1F838C000F13C0C01F13C04DCF800C0403040313D
S3510000F1E8C4F800C05B1E002BB6D1C2F383030F2B45D8DFE803F044403C3834302C2824201C1814100C0850F8043B41F8043B50F8043B41F8043B50F8043B41F8043B50F8043B41F8043B50F8043B41F8C6
S3510000F234043B50F8043B41F8043B50F8043B41F8043B50F8043B41F8043B50F8043B41F8043B50F8043B41F8043B50F8043B41F8043B50F8043B41F8043B50F8043B41F8043B50F8043B41F8043B50F80A
S3510000F280043B41F8043B12F002031CBF30F8023B21F8023B12F001021CBF00780870BDE8104070474EF60851CEF200010A68086010467047DFF80C00DFF80C300068C06B1847C046C800FF1FE9F2000078
S3510000F2CC00000000EFF3088080F30988EFF3148040F0020080F3148802F004B980F308887047000038B5A0F1100CFA2820D80CF00303DD004EF200134901CEF2000301F0E0012CF0030E03F5407401FAC9
S3510000F31805FCFF21A94054F80E3023EA01014CEA010144F80E1012B100F00AF804E000F01DF801E00C2000E00020BDE838407047A0F11003FA2B0DD8012103F01F0001FA00F241F600705909C1F6FF70F1
S3510000F364C0EB8100026001E00C20704700207047A0F11003FA2B0ED8012103F01F0001FA00F24EF20011CEF20001580901EB8000C0F8802001E00C2070470020704700000FB408B5012000F0D9FB02AB7A
S3510000F3B023F00303DFF81010029A1B1D00F08CF8BDE8084004B0704709F4000008B5002310B90020C04314E0012902D0022903D005E0806810600BE01168816008E00368DB69002B08BF40F6092301D066
S3510000F3FC984703461846BDE8084070471CB5044611B90020C04311E00B689A6912B92C20C860F6E700AA10709B69084600A901229847012818BF4FF0FF342046BDE81C4070470000F8B50646DFF88A00F9
S3510000F4480D46046804F5167001F0BEF9D4F8747204F51D7012E0B968324601E0521C491C92F900C0BCF1000F04D091F900300BB19C45F3D091F9001011B13F688742EAD104F5167001F0DEF904F51D70CC
S3510000F494874208BF002017D0202001F0F1FB044690B1102101F000FC2760FB685BB1204631462A46984730B100F000FE204601F053FC002000E02046BDE8F8407047C800FF1F00002DE9F04F93B08246F2
S3510000F4E00020884617461E46009000240DE0002807D10098B0F1FF3F08BF4FF0FF34204621E25146C0470090641C17F9010B2528EDD197F90000252801D17F1CF1E70020069000200390029004904FF0AC
S3510000F52C200B09900190002023E02B2908DC16DA23291DDC20291BDB14D0232915D017E0302915DC2D2913DB02D0302904D00FE0012109917F1C0CE04FF0300BFAE701210491F7E701210391F4E70121FB
S3510000F5780291F1E7012097F9001009B10028D6D0002008902A2905D1361D301F00687F1C08900EE00A2106E0089817F9012B484310183038089097F90000302801DB3928F2DD97F900004FF000092E28BF
S3510000F5C419D17F1C97F900002A2805D1361D301FD0F800907F1C0EE00A2006E017F9012B09FB00F15118A1F1300997F90010302901DB3929F2DD17F9012B0BAD0AB92520D8E06D21682A05D06C2A03D0A8
S3510000F6104C2A01D06D2A02D151B217F9012B002000230A90642A21DC80F255804E2A0DDC80F2BC80492A00F3BE80432AC0F2BB8032D0442A47D0492A45D0B4E0582A0ADCB2F14F0000F1AF80DFE800F028
S3510000F65C7B8DADAD35AD3EADAD92632A1ED0A4E06F2A09DC80F26F80692A01DC2DD09CE06E2A00F0958098E0702A02DC00F0768093E0782A00F39180732AC0F28E8014D0752A1BD0782A00F0708086E0E8
S3510000F6A8361D301F01680BA80170C8B208B901200A904FF000090BA880F8019002E0361D301F056800204FF0200B029079E00123C3B1682904D1361D301FB0F9000002E0361D301F0068002803DA2D21F9
S3510000F6F40691404211E0049911B12B2106910CE0039951B12021F9E7682903D1361D301F008802E0361D301F006800214CF600220591C3F69A3203E00599801A491C05910028F9DB0023029329460A224D
S3510000F740002300F005F905982978C0B2081828703BE0682904D1361D301FB0F9000002E0361D301F006829460B22002300F0F0F80320019029E00123361D301F006810E00120012301900198401C019078
S3510000F78C40B20190682903D1361D301F008802E0361D301F00682946082200F0D3F80EE0361D301F00680460A9E610465146C047B0F1FF3F0CBF4FF0FF30601CBDE00A98291803E00A98491C401C0A9006
S3510000F7D808780028F8D108980028BCBF00200890B9F1000FB8BF4FF0000900200790B9F1000F01D1089820B3B9F1000F0BD00A98484508DD0BA8854202BF0A98A0EB09002D18CDF82890089818B10146BB
S3510000F8240A98081A0790069810B10798401E0790029840B10798401E07900198032802DA0798401E0790069830B1BBF1300F03D15146C0470090641C0298D0B1BBF1300F17D10198012808D13020514695
S3510000F870C04778205146C0470090641C0AE0022804D130205146C0475820F3E730205146C0470090641C099860B94FF0000906E058465146C0470090641C09F1010907988145F5DB069830B1BBF1200F0B
S3510000F8BC03D15146C0470090641C0298D0B1BBF1200F17D10198012808D130205146C04778205146C0470090641C0AE0022804D130205146C0475820F3E730205146C0470090641C4FF0000907E015F868
S3510000F908010B5146C0470090641C09F101090A988145F4DB099800283FF4F3ADBBF1300F08BF4FF0200B002505E058465146C0470090641C6D1C07988542F6DBE1E513B0BDE8F04F704700002DE9F84375
S3510000F95484B007460E46002100A800AC154601700B2A10D1611C0B2007F007023032FF0801F8012B401EF7DC00A890F90B1001F03301C17231E00A2A16D14FF0010904F101080EE038460A2101F0D6FF5A
S3510000F9A001F1300008F8010B38460A2101F0CEFF074609F10109A945EEDD18E04FF0010EDFF84C10DFF84CC0601C0CE0002B07F00F0814BF1CF9088011F9088000F8018B3F090EF1010E9645F0DD00E015
S3510000F9EC6D1E60573028FBD02DB96D1C03E060576D1E06F8010B002DF9DA04B0BDE8F8437047C046651E0100541E01002DE9F0470746DFF8F0001C4600230E461546D0F80080002900D00AB90C2067E072
S3510000FA3800203A464FF4806192F90090B9F13A0F08BF5B1C02D0B9F1000F03D0401C521C491EF1DC012B01D1012800D1E6E708F5167000F0B1FED8F8740220B908F51D70002101F093FBD8F8749208F50D
S3510000FA841D7A10E0D9F8081038464FF4806201F085FC30B908F5167000F0D6FE4FF4206030E0D9F80090D145ECD108F5167000F0CBFE2C2001F0E4F88146002808BF042020D00F2101F0F0F8C9E9027622
S3510000FAD0C9E904540898C9F818000998C9F81C000A98C9F820000B98C9F8240008F5167000F06EFE08F51D70494601F059FB08F5167000F0A3FE0020BDE8F0477047C046C800FF1F08B584B0DDF818C04A
S3510000FB1CCDF800C0DDF81CC0CDF804C04FF0000CCDF808C0DDF820C0CDF80CC0FFF76EFF04B0BDE808407047DFF81000DFF810300068012100F516701847C046C800FF1F29090100DFF83C1080B20968B8
S3510000FB68052816D8DFE800F00C0F12030609D1F880027047D1F884027047D1F888027047C869406F7047C869806F7047C869C06F704700207047C046C800FF1F70B506460D4600B109B9002061E045F211
S3510000FBB400720368CFF2864293429DBF436840F2E7329342002054D800220A80DFF8AA3002E00A88521C0A80B1F800C003EB8C02046852689442F4D253F82C00241A0CF2B270088080B200F065F80121E3
S3510000FC0069803421DFF87A204843121802E06888401C6880698852F821008442F7D2481E52F82000241A45F280112046C0F2010101F08CFE81B245F28010C0F201004843241A481CA88020464FF4616175
S3510000FC4C01F07EFEE88081B24FF461604843241A20463C2101F074FE288181B23C204843241A6C817068A8810120BDE870407047C046FC1E0100941E01000000DFF808100968C1F880017047C800FF1F44
S3510000FC98DFF808201268C2E961017047C800FF1FDFF808100968C1F870017047C800FF1FDFF808100968C1F878017047C800FF1F10B56421044601F02FFD31B920464FF4C87101F029FD002904E0E10F10
S3510000FCE4C1EB847011EBB0700CBF01200020BDE8104070473EB50446DFF84C1040680D68B0F57A7F0CD34FF47A7101F01DFE21680818206060684FF47A7101F015FE6160204600AC2146FFF78DF800F04E
S3510000FD30F7FE204605F5A67105F5AC72FFF760F800F0D4FEBDE83E407047C046C800FF1F70B5DFF8C6000668D6E95301401C41F10001C6E9530100F0DBFED6F8841121B1D6F888018847C6F8540106F520
S3510000FD7CA670FFF77BF8B6F86C51002D39D0D6F864016D1C33E0D6E953CE426C836CB2EB0C01046873EB0E0138BF012107D3BCEB02017EEB030134BF01210021494200291FDBB6F86C11491EA6F86C11AB
S3510000FDC8416802680A605160816821F48072826012F480610AD022F480618160016CC26B0A605160826B1189491E118100F0A4FA20466D1EC9D100F075FED6F8DC0200B18047D6F8180300B18047BDE875
S3510000FE1470407047C046C800FF1F000038B50546E8B1DFF84000046800F078FE04F5A67303CB2A4603C218681060D4F8841119B1D4F888018847A860284604F5AC712A46FFF72CF800F048FE2846FFF78B
S3510000FE600BF8BDE838407047C800FF1F3EB500AC05462046FFF7D4FF20462946FEF762FFBDE83E4070470000F8B506460D4600B109B90020A6E08089B0F57A7F0DD34FF47A7101F045FC718980B20818DD
S3510000FEAC7081B0894FF47A7101F03CFCB18170893C280BD33C2101F035FC318980B20818308170893C2101F02DFC718130893C280BD33C2101F026FCF18880B20818F08030893C2101F01EFC3181F08887
S3510000FEF818280BD3182101F017FCB18880B20818B080F088182101F00FFCF180B088012838BF002062D370880C280BD90C2101F003FC318880B20818308070880C2101F0FBFB7180318840F2B270814222
S3510000FF4438BF3080DFF8A0400D273088FFF7BAFE00FB07F172886118515CB3888B4213D9581AB080501C708080B20C28EDD90C2101F0DCFB318880B20818308070880C2101F0D4FB7180E0E7348840F603
S3510000FF9033018C4288BF002024D8DFF85410A4F2B27451F8241034244443DFF84800521E001950F82200091845F280105A1EC0F2010050430918F2884FF461605043091832893C20504309187089091877
S3510000FFDC2960B08968600120BDE8F8407047C046781E0100FC1E0100941E01002DE9F041DFF8721004460968B1F86C2101F5B27CEAB1D1F8643102F1010E15E0456C5F6C866CD3F84880EA1B76EB080213
S3510001002838BF012206D37A1B78EB060234BF012200225242002A04DA9C461B68BEF1010EE6D1426800681060426001F5B2706146224601F083F8A06840F48070A060FAF7F2F9BDE8F0417047C046C800CA
S35100010074FF1F000038B5DFF8341000280C6812D0E56905F14401FEF753FF00F047FD05F1440004F5A6710246FEF708FF2846FFF7A9FF00F021FDBDE838407047C800FF1FC26D01B102B9C1651046704760
S351000100C0DFF828100A68118B002919BF516BCB68D169CB6D00B133B9118B002919BF516BC860D169C86518467047C046C800FF1F70B5DFF8461004460D6808B9E86918E000F00EFDD5F80401A0F16C06FD
S3510001010CB5F80C01411C09E0F068A04203D100F0E7FC304607E0F06EA0F16C06491EF3D100F0DEFC0020BDE870407047C046C800FF1F0000DFF814000168088B002819BF486BC068C869C06D7047C04617
S35100010158C800FF1F70B5DFF8903016461D684FF6FE73B5F80C419C4228BF002039D2A0230B603AB9A03000F0F3FE064688B3042100F090FD3046A021FEF75EFFD5F8100184B2D5F88C01D5F8141144EA1F
S351000101A40040F060002914BF6C3105F5827105F5827006F16C0200F0D3FF324605F58271641CA4B2D06E1346A0F16C0204B901248A4203D0D06880B2A042F1D0C5F81431C5F810413046BDE870407047EE
S351000101F0C800FF1F2DE9F84F84B08B46DFF8241102920D68C268D5F8FC1082469946DDF838808A4208D905F52F71884204D00E20FFF74EFF002079E0B8F1000F12D00F9EB6F5BA7F01D80220F2E73046E4
S3510001023C03A94246FFF78CFF07460398361AB9F1000F12D0203E10E08068D42898BFD4200F3020F00F06103606F1200003B9304603A90022FFF774FF07460FB90A20D1E70320B86003983A181446B9F11D
S35100010288000F0ED002F1200491460423BAE80300A9E803005B1EF9D11068924640F0004010602046314600F03BF8296ADAF80C00A1EB0011F96139628889B8F1000FB884DAF81400B8621EBFB86A40F03E
S351000102D42000B86288892146009002983246019038465346FEF796FCC7F868A0DAF800007866D5F880027867D5F88402B867D5F88802F867C7F860B0B8F1000F03D13846394600F0C5FC384604B0BDE8A7
S35100010320F84F7047C800FF1F890846F26B12491CC7F2743201E040F8042B491EFBD17047DFF82410C269D1F800C0DCF8241053688A4288BFCCF8242002214360816019680160186050607047C800FF1F7F
S3510001036C10B5DFF82000046800F0D4FBE069D0F8840000B18047002000F006F8BDE810407047C046C800FF1F2DE9F843DFF8C01100280D6809D0D5F88C11C0F30F4289B28A4218BF122040F0D080FFF741
S351000103B89BFE074618B105F15001884201D11220C5E005F5987000F0FFF900F0A5FBB968092906D100F086FB05F5987000F032FAB4E0022907D1E86987421FBF78683968016048601FE001F48070002831
S3510001040410D01AD07868396801604860B5F86C01401EA5F86C01B86820F4807040F00300B8600AE011F4007007D07868396801604860B96B0889401E0881B86810F4806007D0386CF96B01604860B96BF4
S351000104500889401E08810920B86000F047FB0026102405EB8600D0F8181209B138468847761C641EF5DCF868EC6986B2B86A10F020001FD13846002100F018FC804611E03846414600F012FC8146BC427F
S3510001049C04D0404605F1500100F0FEFBB84502D0404600F05DFCC846B8F1000FEAD1D5F8F01209B1384688474FF00040F860B5F80C01012801BF0120C5F810010020C5F8140109D0D5F81001B04205D9AC
S351000104E8C5F81061386F6C38C5F81401386FF96E01604860B5F80C01401EA5F80C0105F5987000F09FF9A74216D100F005FB78683968016048603846FEF778FBB86A10F0200007D1384605F1500100F014
S35100010534B7FB384600F018FCF9F772FF3846FEF767FBB86A10F0200002D1384600F00CFC0020BDE8F8437047C800FF1F70B5DFF8CA000221056843F6F83028824FF4C57068820820286001206860E9811C
S351000105800F216981A981D5F89C1109B900F01CF90120C5F80001FEF76BFB05F15001E961E88A4FF6FF766883E88A00248884D5F88C0146EA0040C8600320886005F59270002100F0EFFD05F5B2700021EC
S351000105CC00F0EAFDD5F89C11002205E0C868844238BF0446521C2031086808B1B242F5D30320C5F8FC40C8F20000C5F8BC02DC20C5F8C402DFF82E000021C5F8CC02DFF82A00C5F8C002601CC5F8C802A5
S3510001061805F5827000F0C2FD0120C5F81001BDE870407047C046C800FF1FB100FF1F490B01000000DFF80810096808817047C046C800FF1F7CB5054640684FF449710F3020F00F04DFF858010460DFF86F
S3510001066458012060DFF8540120602046FEF7EEFC04F5C673062203CD03C3521EFBD1C4F89041D4F8940120F00F00C4F89401FFF765FF00F043FB08B100F094F8D4F8B46116B1D4F8985116E0D4F898017A
S351000106B0D4283CBFD420C4F89801D4F8980100F11005284600F042FB064610B9042000F07BF83046022100F0E9FA30462946FFF723FE7019401E20F00F00E063D42000F02DFB054610B9042000F066F8D2
S351000106FC2846012100F0D4FA05F1D400401E20F00F01A1F16000606605F10F00216620F00F00A066616EDFF8A0000160FEF7D8FA08B100F04BF804F5DE70012100F0F6F804F59870012100F0F1F8FEF71A
S35100010748B3F908B100F03CF8002200920192E16904F52F70C9680123FFF748FD054610B9042000F02DF82846FFF7E6FDD4F89C5115E0686910F0010010D0002300930193E169AA69C9682846FFF730FDBF
S35100010794064610B9042000F015F83046FFF7CEFD203528680028E6D1F9F738FE0020BDE87C407047C800FF1F102101000C210100C401FF1F08B500F0A9F9FEE738B5DFF8721004460D68298B09B10D2086
S351000107E02EE0416947F26D30C6F67740814218BF1F2025D100F094F9A069002810DCE96940F22B40886004F1080088634A6851F83C3B13605A6000F0CBFCF9F718FE01E0401EA06147F26D306169C6F6A5
S3510001082C7740814203D000F05BF91F2002E000F057F90020BDE838407047C800FF1F000038B5DFF8761005460C68416947F26D30C6F67740814218BF1F202BD100F05AF9A869002820DB288AF0B105F11C
S35100010878080000F0B9FC3C38816811F480710ED0416802680A605160B4F86C11491EA4F86C11816821F4807141F00301816000218163FFF749FDF9F7BCFD02E0A869401CA86100F017F90020BDE83840F4
S351000108C47047C800FF1F000070B51546DFF850200646146881610830002100F061FC00F01DF98DB9D4F8241107E0B14204D100F0FBF84FF482600FE0096804F592708142F3D1314600F052FC47F26D30BC
S35100010910C6F67740706100F0E9F80020BDE870407047C046C800FF1FDFF8043000221847CD08010038B50546DFF830000068C46900F0EEF8A0680B280AD00B20A060A56320464121FFF7AEFB606821685B
S3510001095C0160486000F0C4F8BDE838407047C046C800FF1F2DE9F84307460E46814238BF0C202CD3DFF85C20081A1468DFF85820401CC008C4F8F020DFF8502000F101094FEA8900A26200F06FF9054621
S351000109A808B9042015E003214FF0030800F07AF9A563E7622663A4F82093A4F82283002001E045F829004946A9F101090029F8D10020BDE8F8437047C800FF1F87A50000350901002DE9F0410F46DFF8E0
S351000109F4921080460C681646A16B21B91820FFF75DFB002039E0E16A884202D3216B884201D91420F3E700F081F8E06AA16BA8EB0000C00851F8205000E02D6915B128684045FAD1002D18BF6C6817D1FC
S35100010A40142000F083F92321054600F02FF9E06AA16BA8EB0000C00851F820002861E06AA16BA8EB0000C00841F82050DFF81A40C5F800806F60EE6000F038F82046BDE8F0417047C046C800FF1F350957
S35100010A8C0100000038B5DFF8521004460D68A96B21B91820FFF70EFB00201BE0E96A884202D3296B884201D91420F3E700F032F8E86AA96B201AC00851F8205000E02D6915B12868A042FAD100F00AF813
S35100010AD8002D14BFE8680020BDE838407047C800FF1F000008B5DFF82A000268D169486D60B1401E4865D069406D38B9108B10B1506B806800E0508BFEF7F6F9BDE808407047C800FF1F000010B5DFF8D3
S35100010B2420000468E069406D10B9E08AFEF7E6F9E169486D401C4865BDE810407047C046C800FF1FDFF846000168D1F8AC02401CC1F8AC02D1F8AC020028F6D1D1F8B002401CC1F8B002D1F8B00200284A
S35100010B70EDD1D1F8B402401CC1F8B402D1F8B4020028E4D1D1F8B802401CC1F8B802DEE7C046C800FF1F00002DE9F0478246DFF8E0000C460668FFF7BBFF47F26E60DAF81410C6F66540814203D0FFF7A5
S35100010BBC97FF39205AE0DAF8180040EA0408BAF8100000284BD0DAF808100AF10805002443E0A1F13C09D9F828000F6810F0800305D0D9F89C2002EA0800824205D09BBBD9F89C0010EA08002ED0486833
S35100010C080968016048602889401E2881D9F8080010F4807012D0D9F80400D9F8001001604860B6F86C01401EA6F86C01D9F8080020F4807040F00300C9F80800C9F838404846FFF779FBD9F89C0000EA14
S35100010C540801C9F89C10DAF82000084028EA00083946A942B9D1CAF81880FFF73DFFF9F7DAFB0020BDE8F0477047C046C800FF1F08B5DFF8181001230A6802F15001D2F8EC2200F087F9BDE8084070471D
S35100010CA0C800FF1FC968001F01807047002808BF002002D0801E01800120704770B50546DFF8560000290068D0F8EC6208BFF46802D00C3908680C18FFF722FF7269336912E0E868218980B281420BD15E
S35100010CEC00E092680AB1A242FBD3A24204D0FFF7F7FE04F10C0006E0206824189C42EAD3FFF7EEFE0020BDE870407047C046C800FF1F000008B5DFF82400026802F54970C2F8EC02D2F8942100F1300170
S35100010D38521A00F08FF80020BDE808407047C046C800FF1F08B5DFF8181000230A6802F15001D2F8EC2200F023F9BDE808407047C800FF1F38B5DFF8E81000280A6804D10120FFF7A1F9012066E0A0F1FE
S35100010D840C056C6846F27050A168C6F66D40814204D03820FFF792F9382057E0D0692989C06880B281421CBF4FF6FF70814204D00320FFF783F9032048E0FFF7AFFE606963690BB19D420ED22A6818461D
S35100010DD0A918994201BF19685118296099680CBFA960AB60656100210CE081688D4200D309B9012106E0E161FFF778FEFFF790FEE069DFE7B9B12A688368A918994201BF196851182960816806BF896863
S35100010E1CA960AB6002688118A94201BF296851180160A9680CBF816085606069A0616069E06160692062E0686062E068A062FFF74FFE0020BDE838407047C046C800FF1F38B5DFF868308A181C680F316C
S35100010E6821F00F0322F00F020261C360C362D11A196000219960586043618361C36103620546FFF749FED4F8E00220B904F53870002100F083F904F53870294600F084F9DFF82000C4F8F002FFF71CFE90
S35100010EB446F27050C6F66D40A8602846BDE838407047C046C800FF1FD10E01002DE9F0410746DFF86A0000240068B0F8E852D0F8E0026D1E066822E0D6F80C80FFF716FE10E0C6F82880FFF7F7FDFFF7F2
S35100010F000FFEB26AF868118980B2814204BF94601446106802EB000830698045EBD3FFF7E5FD03E02046A468FFF720FF002CF9D1366828466D1E0028D8D1BDE8F0417047C046C800FF1F000008B5DFF83F
S35100010F4C181001230A68D169D2F8EC2200F026F8BDE808407047C046C800FF1F08B5DFF8181000230A68D169D2F8EC2200F016F8BDE808407047C046C800FF1F08B5DFF81820136800220092DA69D3F8EA
S35100010F98EC3200F071F8BDE808407047C800FF1F2DE9F8438846174646F270519268C6F66D411E468A4201D0382056E000F10C09B9F1100F38BF4FF0100909F10F0020F00F09FFF7A1FD786942E0B8619E
S35100010FE4FFF782FDFFF79AFDBC697869844208BF25462068484533D3A0EB0902102A21BF04EB090144F809204F60A06823BF8860A160C4F80090814638BFA168786984420CBF7961A9607869B861F86154
S351000110303862F8687862B862D8F80C002081002060816760F86A844288BFFC62FFF74EFD2EB104F10C00A9F10C01FDF7F9FF04F10C0009E0A06825460028BAD1FFF73EFD0420FFF725F80020BDE8F84341
S3510001107C704700002DE9F0478946904646F270519A68C6F66D411F468A4201D038205DE000F10C0ABAF1100F38BF4FF0100A0AF10F0020F00F0AFFF735FDA9F10C06786906EB0A0545E0B861FFF712FD30
S351000110C8FFF72AFDB8697969884208BF044600F110010268B14234D88118A94231D3331AA2EB0A01C91A0360102921BF06EB0A0246F80A105760816827BF916082608A448268A260C6F800A0B2607969E9
S35100011114B961F9613962F9687962B962D8F80C103181002177607181F96A884288BFF862FFF7DAFC089820B14846AAF10C01FDF785FF484609E0044680680028B7D1FFF7CBFC0420FEF7B2FF0020BDE83C
S35100011160F047704770B504460E46154601B92646FFF7D6FC618931B12089884203D3FFF7B5FC00200AE03068286035606E6045602089401C2081FFF7A9FC0120BDE8704070470000002200604060028141
