S0030000FC
S3510000A000FFFB002021F9000087A5000087A5000087A5000087A5000087A500000000000000000000000000000000000059A4000087A500000000000001A5000087A5000087A5000087A5000087A500007F
S3510000A04C87A5000087A5000087A5000087A5000087A5000087A5000087A5000087A5000087A5000087A5000087A5000087A5000087A5000087A5000087A5000087A5000087A5000087A5000087A500007E
S3510000A09887A5000087A5000087A5000087A5000087A5000087A5000087A5000087A5000087A5000087A5000087A5000087A5000087A5000087A5000087A5000087A5000087A5000087A5000087A5000032
S3510000A0E487A5000087A5000087A5000087A5000087A5000087A5000087A5000087A5000087A5000087A5000087A5000087A5000087A5000087A5000087A5000087A5000087A5000087A5000087A50000E6
S3510000A13087A5000087A5000087A5000087A5000087A5000087A5000087A5000087A5000087A5000087A5000087A5000087A5000087A5000087A5000087A5000087A5000087A5000087A5000087A5000099
S3510000A17C87A5000087A5000087A5000087A5000087A5000087A5000087A5000087A5000087A5000087A5000087A5000087A5000087A5000087A5000087A5000087A5000087A5000087A5000087A500004D
S3510000A1C887A5000087A5000087A5000087A5000087A5000087A5000087A5000087A5000087A5000087A5000087A5000087A5000087A5000087A5000087A5000087A5000087A5000087A5000087A5000001
S3510000A21487A5000087A5000087A5000087A5000087A5000087A5000087A5000087A5000087A5000087A5000087A5000087A5000087A5000087A5000087A5000087A5000087A5000087A5000087A50000B4
S3510000A26087A5000087A5000087A5000087A5000087A5000087A5000087A5000087A5000087A5000087A5000087A5000087A5000087A5000087A5000087A5000087A5000087A5000087A5000087A5000068
S3510000A2AC87A5000087A5000087A5000087A5000087A5000087A5000087A5000087A5000087A5000087A5000087A5000087A5000087A5000087A5000087A5000087A5000087A5000087A5000087A500001C
S3510000A2F887A5000087A5000087A5000087A5000087A5000087A5000087A5000087A5000087A5000087A5000087A5000087A5000087A5000087A5000087A5000087A5000087A5000087A5000087A50000D0
S3510000A34487A5000087A5000087A5000087A5000087A5000087A5000087A5000087A5000087A5000087A5000087A5000087A5000087A5000087A5000087A5000087A5000087A5000087A5000087A5000083
S3510000A39087A5000087A5000087A5000087A5000087A5000087A5000087A5000087A5000087A5000087A5000087A5000087A5000087A5000087A5000087A5000087A5000087A5000087A5000087A5000037
S3390000A3DC87A5000087A5000087A5000087A5000087A5000087A5000087A5000087A5000087A50000FFFFFFFFFFFFFFFFFFFFFFFFFEFFFFFFCC
S3510000A42001DF704701DFFFF7FEBFDFF8C802D0F8000072B6B0F8181051B9D0F82410D0F81C20D2F81C30994200F0028062B603DF62B6704702DF70474DF804ED72B61EF0040F0CBFEFF30881EFF3098170
S3510000A46CD1F8181011F8021C032940F0048000F029F800F024B8012940F00880DFF86802D0F800005DF804EB00F047B8022940F01680DFF85402D0F80000D0F81C10D1F8082042F00102C1F80820D1F801
S3510000A4B80420D1F80030C2F80030C3F8042000F003F862B65DF804FB2DE90740DFF82002D0F8041011F0805F40F00C80EFF31182A2F1100280F82220DFF8082251EA0201C0F80410BDE8078072B6EFF332
S3510000A504098CDFF8F81191F80220EFF311832CE9FC4FDFF8DC01D0F80000D0F81C30C3F814C072B6D0F82410D1F800208A4240F01680D1F808105FEA01017FF4F5AF81F31188DFF8B811DFF8B82181F838
S3510000A550022062B6AFF3038072B6D0F82010FFF7E5BFC0F82410C0F81C20B2F82430A0F81A30D2F814C0BCE8FC4F83F311888CF3098862B6704772B64DF804EDDFF86431D3F80030B3F8181001F10101D9
S3510000A59CA3F81810DFF864014DF8040DEFF31182EFF30581D3F834002DE90700EFF30880C3F834004FEA0100D3F830200AB900F04BB8904200F24880D3F82C20811AC0F24380D3F838204FEAD1014FEAA1
S3510000A5E8810152F8011009B900F038B8D1F8002042B1824200F00880D1F8101011EA010F7FF4F4AF00F02AB8D1F80C00D1F8042062B64DF8043D90475DF8043B72B6BDE80700C3F834005DF8040BB3F811
S3510000A6341810491EA3F81810D3F81C20D2F8280010F4805F40F0098039B9D3F82410D1F80010914218BFFFF739FF62B65DF804FBD3F82820FFF7D6BF72B62DE9F100DFF88030D3F80030D3F834C00CF1D4
S3510000A680100C5CF804EBDFF8840020F00100CCF818009CE8FF005DF804CBACF1040C2CE9FF00BDE8F0008CF3088862B670472DE9024090F8001011F0800F03BF41F0800180F8001080EA00004FF0800061
S3510000A6CCBDE80280EFF309807047EFF308807047EFF303807047704670477846704762B6704772B670470000E807FF1F00ED00E00000001020ED00E0FF0000000000000021A600003EB505460C46042ACB
S3510000A71850D8DFE802F04F0338032222142007F07DFD02460292002A44D02846214610F095FF00283ED102980121009000A80171DFF8780000A9002207F0CAFE40F2817188422FD1DFF868002AE002AABC
S3510000A7640FF09CFC40BB02980321009000A80171DFF84C0000A9002207F0B4FE40F28171884219D1DFF8400014E002AA0FF086FC90B902980221009000A80171DFF8200000A9002207F09EFE40F28171D9
S3510000A7B0884203D1DFF8180005F02AFBBDE83E407047C046301FFF1F0002FF1F3102FF1F6402FF1FF0B585B0DFF81E01002101AF0026002407F0D4F8DFF812011421022207F036FE10B1204606F064FFD2
S3510000A7FC07F0E2F907F0CCF8DFF8FA1000200FF0BDFE00204FF4806104AA0FF0EFFF054660B90498DFF8E21010F01AFE054628B904980121002210F06FF8054607F0AAF90DB1FFF709FE0023DFF8B60040
S3510000A848009302A9042207F0E1FE397A0129F4D0032932D143F6FC7084422ED063203870012108E0613801FA00F0204207D097F90000401C387097F900007A28F2DD3A2078700020B8700298DFF8761043
S3510000A894DFF8762001AB00F03BF806460028CED0029997F90000087440B20121613801FA00F00443DFF83E0006F0AAFFBFE70229BDD1029D95F910006138C0B219280DD8DFF8220006F044FF304600F085
S3510000A8E0E7F895F910000121613801FA00F08443284607F099FBA4E7C046B021FF1F301FFF1FE8F1010068EA01009502FF1F9A02FF1F00002DE9FE43054618200C469146984607F0EDFA0746002800F096
S3510000A92CA380204600212A4600260EF08FFF4FF4FA70FC6006F056FA2046002105F0E0FA386040B9DFF8260105F05CFA384600F0A9F8002088E01A21002205F067FADFF81251284605F04EFA00AC386813
S3510000A9781621224605F05CFADFF8FE00009905F043FA38681721224605F052FADFF8EE00009905F039FA38681821224605F048FADFF8DE00009905F02FFA284605F02CFA38684946002208F089F928B1EB
S3510000A9C40AF06CFB0146DFF8C200C1E748460021C7F8109005F098FA786038B905F070FB0AF05CFB0146DFF8A600B1E7DFF8A20005F00CFA01200190786840F2231101AA05F018FA43F2AA0188420FD145
S3510000AA10DFF8860005F0FCF9786805F065FB7E60386908F0ABF93E6138684146002206E0DFF86A0005F0ECF97868019A41460BF09BF828B10AF02CFB0146DFF8560081E7DFF8520005F0DCF94046002174
S3510000AA5CC7F8148005F054FAB86000B976E7DFF83E0005F0CFF93846BDE8FE437047A102FF1FBA02FF1F0403FF1F3803FF1F5903FF1F7903FF1F9803FF1FBC03FF1FE003FF1F0B04FF1F2C04FF1F49046B
S3510000AAA8FF1F6404FF1F000038B50446002867D007F084F8DFF8D00005F0A6F9DFF8CC0005F0A2F9A06838B105F00AFB014619B1DFF8BC0005F098F9DFF8B800616905F093F9606958B10BF0BBF8054687
S3510000AAF438B140F60121884203D0DFF8A00005F085F9606868B1DFF8980005F07FF9606805F0E8FA024622B1DFF88800216905F075F9206988B1DFF8800005F06FF9206908F022F9024642B140F60120E1
S3510000AB40854204D0DFF86800216905F061F9206860B1DFF8600005F05BF9206805F0C4FA014619B1DFF8500005F052F907F010F8E06830B1DFF8440005F04AF9E06805F069FD204607F050FABDE8384062
S3510000AB8C7047C0467C04FF1FA504FF1FB604FF1FD704FF1FEC04FF1F1405FF1F2B05FF1F5505FF1F6A05FF1F9905FF1FAB05FF1FC605FF1F08B5DFF81200002112F0DEFEDFF80A0005F01EF9F5E7F8EA29
S3510000ABD801003606FF1F0000FEB5074624200E4607F03CFB044610B94AF6016026E0242104F0CCFC38462146324601F05FF90546B8B938462146324600F050FB054680B9DFF82E00DFF82E100090DFF850
S3510000AC242E00DFF82E200190DFF82A303846029405F0CAFD054615B1204607F0F3F92846BDE8FE40704735B0000061AC000039B0000015AF0000BDAF000000002DE9FE4F8146006888461746446A816838
S3510000AC7001E008F1010811F9010B0028F9D198F90000B0BB12B94AF6036040E1206800280FD1142007F0C6FA206010B94AF6016035E1082007F0BEFA606028B907F0BCF9F4E74AF604602AE139682068CA
S3510000ACBC00250160606845602168484601F000F9064600B105E06168484600F0EFFA064638B1206807F0A2F9606807F09FF92560656030460DE104F1080504F1100602B9C3E7206810B94AF6056002E1A1
S3510000AD085068012838BF4AF60660C0F0FC8002204FF0000A019004EB8A008069414613F071FA00B9C1E701980AF1010A401E0190F1DC4FF0000A01E00AF1010ABAF1020F04D204EB8A0080690028F5D12E
S3510000AD54BAF1020F08BF4AF6076000F0D6801C2007F05EFA834618B94AF601600090CBE055F82A0098B9202007F052FA45F82A0018B94AF601600090BBE02C2007F048FA46F82A0030B94AF601600090E6
S3510000ADA0AAE04FF0FF30B2E055F82A00CBF8000056F82A00CBF80400C9F804B07869401C400007F02FFA55F82A10C86055F82A207869D168401C01EB4000106155F82A00C16819B94AF6016000907EE0F2
S3510000ADEC55F82A00416155F82A10C868886155F82A00C0F800A0798855F82A008180398855F82A00C180B96956F82A00C161B96856F82A008160F96856F82A00C16056F82A00C0F800A0798856F82A0022
S3510000AE3881807868411E56F82A00816156F82A1088694861F96956F82A000162396A01B9012156F82A00416255F82A10484601F05FF90090C0BB56F82A10484600F07CFB009060BB404613F055F9401C71
S3510000AE8407F0CEF904F1180141F82A00E0B1002304EB8A0204E0906908F10108C4545B1C98F90040002CF6D151F82A000022C254788810F0020005D1484641F2011100F0B9F80246104620E056F82A10CF
S3510000AED0484600F0EBFB55F82A10484601F0ACF955F82A00C06807F09FF856F82A0007F09BF8002046F82A0055F82A0007F094F8002045F82A00584607F08EF80098BDE8FE4F70472DE9F0470168466829
S3510000AF1C4D6A824605F1080705F11008CEB90220396811B14AF608603EE03F1D401EF7DC6968504600F028FAB0BB2968504601F0DFF888BB686807F069F8286807F066F829E031680022D1F800907168D9
S3510000AF68002400F029FD7168504600F09BFBE8B93168504601F05CF9C0B9183555F8290007F04EF845F829403068C06807F048F8306807F045F8706807F042F8304607F03FF847F8294048F82940002052
S3510000AFB4BDE8F0477047000038B540680B46D0F800C0DCF814400CB900202EE0DCF81800001B00EBD070401008D5DCF81050DCF80C402C1B04EBD47400EB64005208904288BF1046002515E0DCF81420C4
S3510000B000128823F8022BDCF814201580DCF81420941CCCF81440DCF81020944224BFDCF80C20CCF81420401E0028E7D1581ABDE83840704700207047F8B506460D461446D0F804C0092901D82BD032E055
S3510000B04C41F20113C91A07292DD8DFE801F0040A0C12141A1C22DCF80410002200F084FB36E00021FAE7DCF80410002200F0A2FC2EE00021FAE7DCF80410002200F0E4FB26E00021FAE7DCF804100022DF
S3510000B09800F032FC1EE00021FAE7152010600020506008209060002014E030462946224600F04EFD074618B140F60921884209D130462946224600F009F840F60921884208BF3846BDE8F84070470000C4
S3510000B0E438B50368406896465B6A08B1D0F80CC041F21114091B0E2900F2CE80DFE801F0082937CCCCCC3B7BCCCCCCCCCCA2C0C0DFF89201026812B94AF60B60C0E046F20404C4F2030423684FF0000C24
S3510000B130AEFB03010EFB0C110CFB0311002313F06DFA4FF6FF71884288BF4AF6066000F2A980A060A5E04FF6FF70824288BF4AF6066000F29F8046F20C00C4F20300026097E0DFF83601426093E0DFF800
S3510000B17C2E0105681DB9704600F008F98CE046F20404C4F203042068A2FB0001B0FBF5F0411E4FF6FF70814288BF4AF6066000F27B8088B22060186918B1806A8069002814D046F20402C4F20302116844
S3510000B1C84FF6FF7081420EBF4FF6FF721068421C28200CFB00F146F21800C4F203000A5046F20001C4F20301086840F00100086053E04FF6FF70824288BF4AF606604DD846F20400C4F203000260186931
S3510000B21410B1806A8069A0B146F20402C4F2030211684FF6FF7081420EBF4FF6FF721068421C28200CFB00F146F21800C4F203000A50CFE710B94AF60A6029E04FF6FF718A4288BF4AF6036022D828213E
S3510000B2600CFB01F4816804EB810346F21801C4F203015A50806820B96158DFF8320040F82C10B1E746F20001C4F20301086820F47063100200F470601843ACE740F6092000E00020BDE838407047CC21D2
S3510000B2ACFF1FE821FF1F000000207047F8B50646006847F20002446AC4F20402206ADFF8C070057841F23C00115841F480011150A2F58831086840F080000860386910F0010019D1206A006A006806F07B
S3510000B2F81DFCF860206ADFF89010006A3246006806F0B8FBB860206A0122016A03C9C9B204F012FB386940F00100386146F20000C4F203000168002221F040010160016821F4402101600168282105FB9B
S3510000B34401F300F110015A545958002D41F47F4200F110015A50595821F47F0200F110015A5000F5883241F2180003BF115821F08001115011581CBF21F4004111500020BDE8F8407047C046CC21FF1FC8
S3510000B39011BB00000020704730B585B0DFF8C611054691F900200024B2F1FF3F54D14AF6AA22C0F2020200920722049207E0049A521E0492009A0292009A52080092049AB2F1FF3F02D0009A9042F0D30F
S3510000B3DC049A521C04924AF6AA22C0F26A0200920922039207E0039A521E0392009A0192009A52080092039AB2F1FF3F02D0009A9042F0D3039A521C0392049A082A06D1039A0A2A08BF4AF6066000F0D1
S3510000B4289980029B019A934207D2049A082A1FBF029A0192049A039252D1039A072A98BF01244DD9039A921FD4B20722039247E046F20002C4F20302126802F00C02082A12D82CD2042A35D8EAB1042AEA
S3510000B47401BF4AF6AA23C0F26A0391F90020C2F1090204BF23FA02F2019225E00C2A01BF4AF6AA23C0F26A0391F90020C2F1070204BF23FA02F2019216E091F900204AF6AA23C0F20203C2F1070223FA9A
S3510000B4C002F201920AE091F900204AF6AA23C0F26A03C2F1080223FA02F20192019A904288BF4AF6066039D8039A00230A70002141EA1041019A000413F090F8029002994FF6FF70814288BF4AF6066095
S3510000B50C26D80298411E46F20400C4F2030040F80419016821F00C010160A100026801F00C0111430160016841F001010160DFF82E100D60016821F4E04101600268039942EA01310160016841F0230104
S3510000B5580160002005B0BDE830407047C0466C06FF1FCC21FF1F00002DE9F8434468C869E56800F480308846B0F5803F18BF4AF60C6040F08580DFF80E01026872B1CA6801680068B2FBF1F148438242A1
S3510000B5A418BF4AF6066075D121610020606108E00120206100206061C868FFF7EBFE002868D146F20007C4F20307386840F470603860DFF8C600A66802683868002E40F00100386027D1D8F808E0D7F8EE
S3510000B5F004900023AEFB09010EFB03114FEAEE7C0CFB0911002313F009F8DFF8961041F8250079684FF6FF7081420EBF4FF6FF727868421C282005FB00F146F21800C4F203000A500120A06116E0D8F81F
S3510000B63C0890D7F804C00023A9FB0C0109FB03114FEAE97E0EFB0C11002312F0E1FF2821694301EB860207F11801505046F20001C4F203010868DFF8322040F001000860012052F82510B040084342F886
S3510000B6882500D8F81800C8F81400C8F828400020BDE8F8437047CC21FF1FE821FF1FE021FF1F000010B54168C8688968D1B946F20404C4F2030423684FF6FF7293420EBF4FF6FF742268541C282246F232
S3510000B6D418034243C4F20303D450A3F11804236843F0010323600EE00124282246F210038C40E4434243C4F2030312F803C0E4B20CEA0404D454DFF85A40012354F820C003FA01F12CEA010144F8201016
S3510000B72054F8201029B946F210010023C4F203015354DFF8361001EB80020220516969B9401EFBDC46F20001C4F20301086820F080000860DFF81600002101600020BDE810407047C046E021FF1FCC2146
S3510000B76CFF1FCC21FF1F000038B54168006832F48032406A036A1B7818BF4AF60C605AD119BBDFF8BAC0282103FB01F55CF8231046F2100241F00101C4F20302A9545CF823109C0011F001013AD0DFF80F
S3510000B7B896100B5902F10801103A6B50116841F00101116080680021C06981612AE0886860B9DFF8720050F823C0282003FB00F246F21800C4F2030042F800C046F20000C4F20300026842F0010202604F
S3510000B80400228A61282203FB02FC00F110021CF802308968012202FA01F141F00101C9B2194310300CF8001046F20002C4F2030280201168C0F20100084310600020BDE838407047C046E021FF1FE82158
S3510000B850FF1F000010B541680068406A006A90F800C032F4803018BF4AF60C6043D159B928200CFB00F246F21000C4F20300115821F0FF01115035E08C68002C0EDD28200CFB00F346F210000121C4F238
S3510000B89C0300A1401A58C9B222EA0101195023E028200CFB00F446F21800C4F203002358DFF83C2042F82C30A0F1140CDCF800304FF6FF7293420EBF4FF6FF72DCF80020521C225046F20002C4F20302F3
S3510000B8E8106840F001001060012088610020BDE810407047E821FF1F38B54168006832F48032406A036A93F800C018BF4AF60C604BD121BBDFF8983028210CFB01F553F82C1046F2100241F00101C4F2A6
S3510000B9340302A95453F82C104FEA8C0411F0010134D0DFF874100B5902F10801103A6B50116841F00101116080680021C069816124E08C68002C0DDD28200CFB00F346F210000121C4F20300A1401A5CAD
S3510000B980C9B21143195413E0DFF8300050F82C3028200CFB00F246F21800C4F203001350A0F11802106840F001001060002088610020BDE838407047E021FF1FE821FF1F10B541680068406A006A90F875
S3510000B9CC00C032F4803018BF4AF60C6040D149B928200CFB00F146F210000022C4F203000A5434E08C68002C0DDD28200CFB00F346F210000121C4F20300A1401A5CC9B21143195423E028200CFB00F4E0
S3510000BA1846F21800C4F203002358DFF8402042F82C30A0F1140CDCF800304FF6FF7293420EBF4FF6FF72DCF80020521C225046F20002C4F20302106840F001001060012088610020BDE810407047C0460A
S3510000BA64E821FF1F10B54468D0F80CC0616909B1481E44E0A18811F004013AD0D0F808E0BEF1000F0FDD28200CFB00F346F210000121C4F2030001FA0EF1C9431A5CC9B21140195425E028210CFB01FE55
S3510000BAB046F21801C4F203015EF80130DFF84C2042F82C30A1F1140CDCF800304FF6FF7293420EBF4FF6FF72DCF80020521C4EF8012046F20002C4F20302116841F00101116001218161206A10B1616A20
S3510000BAFC06F032F9A06960610020BDE810407047E821FF1F08B546F214000F21C4F2030001608162DFF82C00006808B100F00CFCDFF82400416809B14068804746F20001C4F20301086820F040000860E0
S3510000BB48BDE808407047C0460422FF1FCC21FF1FF8B544680068DFF85C73406A1646006A057841F20910081A1B2800F29C81DFE810F01C002F0036003F00690072007C0085009A019A019A019A01B5001A
S3510000BB94DA009A019A01FB000B011B019A019A019A019A012B0147015F017601880104B118E0DFF808030168680021FA00F010F0030018BF4AF6086040F07381284600F0E9FB6EE104B105E028463146CB
S3510000BBE000F084FC67E114B14AF6096063E12846314600F049FC5EE104B1F5E7284600F0A7FCC168142E21F00301C16008BFC16817D00C2E02BFC16841F00101C16010D0062E02BFC16841F00201C1607B
S3510000BC2C09D0022E02BFC16841F00301C16002D04AF6066039E1816841F01001816033E104B1CBE7284600F07DFC816821F01001F4E704B1C2E7284600F074FCC16841F00401C16020E104B1B8E7284638
S3510000BC7800F06AFCC16821F00401F4E704B1AFE7284600F061FC26B9416A21F0040141620CE1416A202E21F00301416202BF416A41F00F01416200F00181102E02BF416A41F00E01416200F0F980082E35
S3510000BCC402BF416A41F00D01416200F0F180042E02BF416A41F00C01416200F0E980ABE714B94AF60A60E4E005F06AFF284600F02DFCA16800EB810603E0A168284600F0C9FA306810F08000F7D13068F5
S3510000BD10012120F040003060A0683A6800EB450001FA00F01043386005F032FFC2E004B9D9E705F047FF284600F00AFCA16800EB810603E0A168284600F0A6FA306810F08000F7D13068012140F04000DC
S3510000BD5C3060A0683A6800EB450001FA00F022EA0000DAE796B204B138E74FF6FF70824288BF4AF6066000F29880284600F0E2FB866291E096B204B128E74FF6FF70824288BF4AF6066000F2888028467B
S3510000BDA800F0D2FBC66281E096B204B118E74FF6FF70824288BF4AF6066000F27880284600F0C2FB066371E004B109E7284600F0BBFB016A002E21F00301016201D1006A64E0012E02BF016A41F001010B
S3510000BDF401625DD0022E02BF016A41F00201016256D019E704B96CE7284600F09FFB2168C98801F01F01022918BF4AF60D6048D1016D21F470210165026D46F41001114301653DE012B94AF603603AE006
S3510000BE4004B950E7284600F083FB2168C98801F01F01022918BF4AF60D602CD1006D00F47020306026E004B93DE7284600F070FB2168C98801F01F01022918BF4AF60D6019D1016D41F40011D4E704B968
S3510000BE8C2BE7284600F05EFB2168C98801F01F01022918BF4AF60D6007D1016D21F40011C2E740F6092000E00020BDE8F84070470422FF1FF021FF1F0A620020704700002DE9F843074600680E46D0F821
S3510000BED82480D8F820000478204600F035FB054631680020082906D80CD2042907D849B1042907D003E00C2908BF012002D04AF60660F6E0D8F82020D16809B940F00200116909B940F00400DFF8DE11C6
S3510000BF2451F82090204602F06BFFD8F820104868042800F2BF80DFE800F04F7F03A3B0B08968B1F1FF3F2CD146F60040C0F2DC20814524BF0020A86080F0AD804008814524BF2020A86080F0A68041F60C
S3510000BF700030C0F2B700814524BF4020A86080F09C804008814524BF6020A86080F095804CF2C060C0F22D00814524BF6120A86080F08B80AFE7012000FA01F246F60040C0F2DC20B0FBF2F0484504D89D
S3510000BFBC480100F06000A86079E043F20060C0F26E10B0FBF2F0484501D848014EE094E78A68B2F1FF3F1ED146F60040C0F2DC20814524BF0020A86061D24008814524BF2020A8605BD241F60030C0F220
S3510000C008B700814524BF4020A86052D24008814524BF6020A8604CD271E7012046F600419040C0F2DC21B1FBF0F0484501D85001C1E764E78A68B2F1FF3F0ED14CF2C060C0F22D00814524BF6120A86097
S3510000C0544CF2C060C0F22D0081452CD351E7012043F200619040C0F26E11B1FBF0F0484505D8500100F0600040F001009FE740E78868B0F1FF3F08BF4AF6066033D0400100F0600040F0020091E78868C9
S3510000C0A0B0F1FF3F08BF4AF6066026D0400100F0600040F0030084E725E7A96830680843A860286A40F040002862D8F82000806905F030FDF060D8F820008069DFF826103A4605F0CBFCB060D8F82010CC
S3510000C0EC8869C9690122C9B203F024FC0020BDE8F8437047C04688EB010085C30000000008B500680A46406A8968006AD268806905F0AEFC0020BDE8084070472DE9F0470D46016847684E6A306A90F823
S3510000C1380080404600F008FADFF8EA104FEA480E0968044621FA0EF3E988EF6101F01F0C11F4006118BF4CF0200C00224FF00109022109FA02FA13EA0A0A02D0521C491EF7DC022A08BF4AF6076050D032
S3510000C1844CF0400140F82210C7F80C80DFF89A00BA60D0F800C0012302EB0E0103FA01F14CEA01010160DFF8860000EBC20040F82870E88800F470410A131EBF08F1010191424FF0FF302CD131680A7C3B
S3510000C1D022B100F4C061B1EB422F22D102F032FE08BB3268117C21B9E98801F4C061491211743168097C012902BFE16821F01001E16005D0022902BFE16841F01001E160E98801F01F01022905D14FF4E0
S3510000C21C1001216501E04FF0FF30BDE8F0477047C046F021FF1FF421FF1F000070B54068C5688668284600F085F9044605F0BCFC1F2044F82600012106EB450001FA00F4DFF82C000168A143016005F0A6
S3510000C26893FCDFF824000168A1430160DFF81C00002100EBC60040F825100020BDE870407047C0460422FF1FF021FF1FF421FF1F38B50C46054600F057F950F8241011F0800144D0DFF88E1001EBC40140
S3510000C2B451F825205369116833B100EB840000690090581E506134E013695B1E53618B8813F0100301BF00EB84000369886903800AD0D1F818C000EB84000069BCF8003080B21818ACF800008888536805
S3510000C30010F0100001D0586990B98869831C8B610869834224BFC86888618B694869834206D1831C4B610869834224BFC86848611046FFF799FBBDE838407047C046F421FF1F00002DE9F843DFF834602B
S3510000C34C002702244FF0000806EB8709022509EBC800406818B138464146FFF797FF08F101086D1EF3DC7F1C641EEBDCBDE8F8437047C046F021FF1F70B500680026406A0224006A057828463146FFF754
S3510000C3987FFF761C641EF8DCBDE870407047000008B500F0D1F810B94AF6066064E0016ACAB2416A036AC9B223F040030362436A036A13F08003FBD1436A13F040031FBF416A41F0400141624FF0FF3018
S3510000C3E44CD1C36C9BB203F1000C836CCCF30F0C9BB29C44436CCCF30F0C9BB29C44036CCCF30F0C9BB29C44C36BCCF30F0C9BB29C44836BCCF30F0C9BB29C44CCF30F0CCCF34F0303F500439BB2C3628A
S3510000C430C36E9BB203F1000C836ECCF30F0C9BB29C44436ECCF30F0C9BB29C44036ECCF30F0C9BB29C44C36DCCF30F0C9BB29C44836DCCF30F0C9BB29C44CCF30F0CCCF34F0303F500439BB2036341626A
S3510000C47C02620020BDE808407047000010B50C4600F060F814B94AF6036025E0002808BF4AF6066020D0816A2180C16CA173816C6173416C2173016C6181C16B2181816BE171C16A6180016DE173C16EC6
S3510000C4C82176816EE175416EA175016EA182C16D6182816D6174006BA0800020BDE810407047000010B50C4600F02EF814B94AF6036025E0002808BF4AF6066020D021888162A17BC164617B8164217B73
S3510000C5144164618901642189C163E17981636188C162E17B0165217EC166E17D8166A17D4166A18A0166618AC165617C8165A18801630020BDE810407047000010B1012805D009E04BF20000C4F20300DA
S3510000C56070474BF20000C4F20B0070470020704718B583B0044600F0E1F9002818BF4FF0FF3010D1DFF82800DFF828100090DFF82800DFF82820019000200290DFF82030204604F013F903B0BDE81840A8
S3510000C5AC7047C046D9C70000C5C500000DCB000061C70000D5C700002DE9F047804616465C200F46344605F095FC054600B98DE04FF47D7105F0B2FCC8F8045005F0ECFA002E00F08B80DFF864110123AD
S3510000C5F8DFF8602180E010F0004900F0748020F07F494FEA591E00F01F0903FA09FCBEF1140F80F0688052F82E901CEA090940F0628010F070605DD051F82E901CEA090959D14FF00009B0F1407F09D83F
S3510000C64423D2B0F1807F01D816D03FE0B0F1007F09D03BE0B0F1806F01D81FD036E0B0F1006F2AD032E005EB8E00D0F820A04AEA0C0AC0F820A02BE005EB8E00D0F834A04AEA0C0AC0F834A022E005EBDE
S3510000C6908E00D0F820A04AEA0C0AC0F820A0EFE705EB8E00D0F834A04AEA0C0AC0F834A0D0F848A04AEA0C0AC0F848A00AE005EB8E00D0F820A04AEA0C0AC0F820A0EFE74FF0FF39B9F1000F09D105EB9E
S3510000C6DC8E09D9F80C0040EA0C00C9F80C0008E0F5E705F04FFA284605F098FC4FF0FF3028E0241D206800287FF47BAF40463946324600F067F900B1EBE7DFF84460DFF83C400027052005EB8708326815
S3510000C728D8F80C10114346F8041BD8F82020D8F834102368114319437F1C44F8041B401EEBDC05F021FA0020BDE8F0477047C0462022FF1F0C22FF1F70B50646456805F02DFA30464FF442710022002447
S3510000C77403F060FB304640F20631002203F05AFBDFF844E0DFF844C0052005EB8406DEF80020F168DCF8003022EA01014EF8041B326A716B641C114323EA01014CF8041B401EEADC05F0EAF9284605F084
S3510000C7C033FC0020BDE870407047C0460C22FF1F2022FF1F0020704700207047002914BF02210021002814BF04200020002A14BF01220022084342EA0001DFF80800405C7047C046ADEB01002DE9FE4FFF
S3510000C80C4168814601294FF21401C4F20F0118D10B68C2681A430A600B6C02691A430A64D1F8803042691A43C1F88020D1F8C03082691A43C1F8C020D1F80021C06910431CE00B68C26823EA02020A603C
S3510000C8580B6C026923EA02020A64D1F88030426923EA0202C1F88020D1F8C030826923EA0202C1F8C020D1F80021C06922EA0000C1F8000105200026019009EB8608D8F82010D8F83400D8F84820084393
S3510000C8A442EA000BDFF88600002750F826A0202000254FEA0A040090012000FA07F2D8F80C00104219D0D8F83400D8F82010D8F84830104011401A40FFF77EFF000400F4702040F480702060D9F8040057
S3510000C8F028B95AF8050040F003004AF8050000987F1C241D2D1D401E0090D7DCBBF1000F07D0DFF8221006F16700895D012203F00FF80198761C401E0190B2DCBDE8FE4F7047B8EB0100A8EB0100000060
S3510000C93C08B502F01DFB0020BDE808407047000038B549F2A0014FF0FF32C4F2040104460A6001F58050026001F50050026001F54050026001F580400260DFF8625067202946002205F07CF810B90020B3
S3510000C988C04322E068202946002205F073F800B9F5E769202946002205F06CF800B9EEE76A202946002205F065F800B9E7E76B202946002205F05EF800B9E0E7204640F20731002200F09EF80020BDE831
S3510000C9D438407047C04649CF00000000F8B58AB006460F461546446849B391F9000030B3DFF8041138460B2211F068FC08B901200FE0DFF8F81038460C2211F05FFC00B9F5E7DFF8EC1038460A2211F005
S3510000CA2057FC10B9002060600CE0DFF8DC1038460B2211F04DFC002800D1F3E74FF0FF3057E0FBE73046FFF781FF00B1F6E7002D4BD06068012848D105A8142111F06CFC00A8142111F068FC012305A99F
S3510000CA6C00AA19E02EF07F4046090EF01F0003FA00F0C0F3070C1EF080401DBF52F8260040EA0C0042F8260051F8260004BF40EA0C0041F826002D1DD5F800E0BEF1000FE0D14FF204010098C4F20F0158
S3510000CAB808600598486001980864069848640298C1F880000798C1F884000398C1F8C0000898C1F8C4000498C1F800010998C1F804012046FFF78CFE00200AB0BDE8F8407047C0466D06FF1F7806FF1F14
S3510000CB048406FF1F8E06FF1F2DE9F04F9BB04668A1F20130DFF81C541446072800F20282DFE810F0080047008A003801DB00D2016E01B10105F044F823460122DFF8F81315E017F000400CD027F07F40F8
S3510000CB50450907F01F0002FA00F7142D03D251F82500384204D005F013F84FF0FF30DFE11B1D1F68002FE6D10123DFF8C01311E022F07F40450902F01F0006EB850203FA00F7D068241D3843D06051F8CF
S3510000CB9C2500384341F825002268002AEAD13046FFF72CFE04F0EEFFBBE17068012818BF4FF0FF3040F0B6812AB904F0FDFFF0684FF2040141E016A8142111F0AFFB04F0F3FF012216A918E015F00040E5
S3510000CBE813D025F07F40430905F01F0002FA00F5142B0AD206EB8300C06828421EBF51F82300284341F8230000D1A8E7241D2568002DE3D14FF204011698C4F20F010860179808641898C1F880001998DC
S3510000CC34C1F8C0001A984FE07068012818BF4FF0FF3040F073819AB904F0BAFFF0684FF20801C4F20F010860306908647069C1F88000B069C1F8C000F069C1F800019DE711A8142111F05EFB04F0A2FFFD
S3510000CC80012211A918E015F0004013D025F07F40430905F01F0002FA00F5142B0AD206EB8300C06828421EBF51F82300284341F8230000D157E7241D2568002DE3D14FF208011198C4F20F010860129886
S3510000CCCC08641398C1F880001498C1F8C0001598C7E77068012818BF4FF0FF3040F0228102B93CE70CA8142111F020FB07A8142111F01CFB04F060FF01200CAD07AF23E013F000411ED023F07F41490911
S3510000CD1803F01F0200FA02F2142915D206EB8108D8F80C8012EA08080ED013F080431DBF57F821301A4347F8212055F8213004BF1A4345F8212000E009E7241D2368002BD8D14FF204010798C4F20F016D
S3510000CD6408600C984860089808640D9848640998C1F880000E98C1F884000A98C1F8C0000F98C1F8C4000B98C1F800011098C1F804010BE7DFF8A47102AD022303CF03C55B1EFBD138682860706800B16B
S3510000CDB09DE702B99BE704F005FF02A901201DE017F0004218D027F07F42530907F01F0251F8235000FA02F7142B0DD206EB8302D2683A4208D02A683A42226814BF42F0804222F0804200E0B5E604C4EB
S3510000CDFC2768002FDED1D5E605200027019006EB8708D8F82010D8F83400D8F84820084342EA0009DFF820014FF0000A50F8275020204FF0010B2C46009019F0010016D028680BFA0AF220F4702028606A
S3510000CE48D8F83400D8F82010D8F84830104011401A40FFF7BFFC0004216800F47020084320600098241D2D1D401E4FEA59090AF1010A0090DBDC01987F1C401E0190C0DC51E0DFF8B8400025052006EB61
S3510000CE9485018B6C0A6A496B0027114343EA010854F82530202118F001021EBF1A6822F470221A604FEA58087F1C1B1D491EF2DC6D1C401EE3DC30E07068012808BF4FF0FF302BD0B26004F073FEACB924
S3510000CEE02A6802B3114604E0B14218BFB04203D0014608680028F7D1B14204BF1068286011D0B04204BF006808600CE0296821B92E6008E0B14203D0014608680028F9D1B14218BF0E6043E640F6092030
S3510000CF2C00E000201BB0BDE8F04F70470822FF1F0C22FF1F9C06FF1FB8EB010010B584B0DFF8960000680390002002903EE000220192DFF88A0001212AE0009222E0009B039C01FA03FC019B04EB830309
S3510000CF78DB681CEA030314D0019B50F82340009B54F8233013F080731FBF019B50F823C0009C5CF824301EBF43F080734CF824300291009B5B1C0093009B202BD9DB019B5B1C0193019B052BD1DB0298AE
S3510000CFC428B103990024896800208847029403980068039003980028BDD104B0BDE8104070470822FF1FB8EB0100000010B1012805D009E046F20000C4F20600704747F20000C4F2060070470020704703
S3510000D01010B1012802D003E02820704729207047002070470EB5DFF82420DFF824300092DFF8202001920291DFF81C10DFF81C2000F0B8FABDE80E407047C0460DD2000059D100009DD8000061D000006A
S3510000D05C01D100002DE9F041466904460A46304604F1180100F0A8FB074600283CD1A56930786C69FFF7C6FF804610B94AF6021032E0306904F0AAFFE86208B904202BE0F06804F0A3FFA8630028E86A6B
S3510000D0A804D104F0BDFF0020E862F1E740F2094104F046FFA86B40F20A4104F041FF404604F034FDE861DFF82A1040462A4604F0D1FCA8612878FFF797FF297A012202F02BFCA07840F04000A070384610
S3510000D0F4BDE8F0417047B5D20000000070B506460D4601B110B94AF603101FE04A69D17811F0200118BF4AF6011017D100249470D47040690078FFF771FFA969EA6904F0A3FCB06904F076FFB461E86A43
S3510000D14004F072FFA86BEC6204F06EFFAC630020BDE8704070470000F8B584690F466569164604F02FFDA87800F0BF00A87004F00FFD002001460FE0636B226B93420DD05A1C6263E26AD25C07F8012BD8
S3510000D18C636B2269934228BF6163401CB042EDD394F8222000A90A700A78012A28D8032284F8222094F8212012BBAA7842F01002AA70097801290CD1E97841F00201E970A97841F00401A970E97811F087
S3510000D1D88001FBD003E0A97841F02001A9700121616294F82310490041F001012971E16C491CE164A97841F04001A970BDE8F84070470000F8B584690F466569164604F0D5FCA87800F0BF00A87004F0A0
S3510000D224B5FC002011E0D4F83CC0E1680CF101038B4228BF0023216C8B4208D017F8012BA16B401C01F80C20E363B042EBD394F82220012A25D8022184F8221094F82110F9B9A978012A41F01001A97040
S3510000D2700CD1E97841F00201E970A97841F00401A970E97811F08001FBD003E0A97841F02001A9700121616294F8231049002971E16C491CE164A97841F04001A970BDE8F84070471CB54269446CD378DF
S3510000D2BC0021641C4162446494780DF1000C14F0200400F09980947814F0100453D013F001030ED0D17841F00201D170917801F0EF019170816D491C8165072180F8221057E190F82230022B19D1C46BB5
S3510000D308036C9C4202BF907800F0BF00907000F04A81D37843F00203D370046C01234362631C0364836B1B5D1371036CC2689342FAE0032B20D1D17841F00201D170917801F0EF019170816A012902BF9E
S3510000D354917841F008019170816A002901BF917801F0C701917007210FBF80F8221001214162107918BF8CF8000016E111E190F82230032B3BD1836ACBB3036B5B1C8CF800309CF8004003699C4228BF5D
S3510000D3A08CF800109CF80030416B8B4202BF907800F0BF00907000F0FA80D17841F00201D170816A491E816201BF917801F0C701917007210EBF80F8221001214162816A012902BF917841F00801917094
S3510000D3EC1379C26A016B53549CF800100163816C491C8164D5E0D0E013F010040DD0D17801F0EF01D170C16B0164416B0163016D491C0165062180F8221013F040014BD090F8211031B9C16B0164416B37
S3510000D4380163416D491C416513F004011BD090F82210022905D005291FBFC16B0164416B0163917841F010019170052180F82210C36B016C8B4202BF907800F0BF00907000F0998047E0D17841F0020182
S3510000D484D170917801F0EF01917090F82210032906D004291FBFC16B0164416B016306D1816A012902BF917841F008019170042180F822100121416210798CF8000074E0002C40F06E80917811F0100177
S3510000D4D039D013F001010BD0D17841F00201D170917801F0EF01917011798CF80010FFE690F82210022901D005291FD1C36B016C8B4202BF907800F0BF0090704FD0D17841F00201D170036C01214162B0
S3510000D51C591C0164816BC95C1171026CC1688A4228BF002128BF0164C16C491CC16438E0907800F0BF00907033E090F82210C91EC9B2012928D8816A31B3036B591C01638CF800309CF8003001698B42F5
S3510000D56824BF00218CF800109CF80030416B8B4202BF907800F0BF00907014D0D17841F00201D170816A491E8162012902BF917841F0080191700121416223E7CAE7D07840F00200D070BDE81C4070472C
S3510000D5B42DE9F04184B005462420884617461E4604F09CFC0446002808BF042020D040F2074104F0B7FCC4F8008067600A98A660E0600B98DFF8301020610C98DFF82C206061DFF82C00DFF82C3000901E
S3510000D600DFF828000190DFF8280002902846039403F05EF804B0BDE8F041704761D600009DD60000D9D60000C9D60000E9D6000035D6000038B5446A0546E06958B9626812B1A16920469047204604F0F8
S3510000D64CEDFC00206862002001E040F60A20BDE838407047F8B5074600680E46446A154604F0AAFAE06918B104F08CFA2C200CE00120E06104F086FA2562BD60226820463146904708B10021E161BDE8F0
S3510000D698F840704738B500680025446A04F08EFAE069401EE06105D162681AB1A16920469047054604F068FA2846BDE83840704708B50068406A83689847BDE80840704708B50068406AC3689847BDE875
S3510000D6E40840704708B500684FF0000C406A092901BF16201060C2F804C04A2008BF906004D0036913B18069984784466046BDE8084070472DE9F84FDFF860E0DFF860C04FF0FF3600240322DCF8009038
S3510000D73000254FEA0E0A4023DAF800B009FB0BFB01FB0BFBBBEB000B48BFCBF1000B5E4582BF5E462746A8466D1C0AF1040A5B1EEADC641C0CF1040C521EDFDCF8B2800100F0C00108F03F000843BDE852
S3510000D77CF84F7047D8EB0100CCEB01000EB5DFF82420DFF824300092DFF8202001920291DFF81C10DFF81C2000F038FBBDE80E407047C04655DB0000E1DA00009DD80000C5D7000069D80000F8B50646EA
S3510000D7C800780F46FFF710FC044610B94AF6021042E05C2004F090FB054608B904203BE040F20B4104F0ACFB307801F091FB3D60B4462B460222BCE8030003C3521EFAD1DCF8000018606C61707885F8E3
S3510000D8142100002085F8220085F823006862A862E86228636863A863E86328646864A864E86428656865A865A070E070B0784000207046F600407168C0F2DC20FFF762FF6070A07840F08000A0700020E7
S3510000D860BDE8F8407047000038B5054601B110B94AF603100FE04A69D17811F0200118BF4AF6011007D100249470D470806904F0CBFBAC610020BDE83840704738B5002500AB94464469032901D819D08D
S3510000D8AC0EE1A1F20141112900F20A81DFE811F08E00A30074007D008700CE00DA00BF00C70064002C004400E400ED00F8006B007000FF00E1781970197811F08001F9D0416A0029F6D1A17811F0100115
S3510000D8F804D0D0F83CC0016C8C45EDD1002A00F0E180187800F001001060DBE0A17811F0200100F0D78090F82210022904D0032902D0072940F0CE80012180F82210016CC163016B416300218162C3E028
S3510000D944A17801F0E701A170A17811F0200107BF21791970A17801F0DF0118BFA170E17841F01201E170016CC163016B4163002180F822108162E07810F02000FBD1A3E0002A0EBF4AF6031511688162E9
S3510000D9909CE0A07800F07F00A07097E0A07840F08000F9E790F82210002914BF4AF6011580F821508AE090F82210002912BF4AF60115012180F8211080E0002A0CBF4AF6031590F821005BE012B94AF643
S3510000D9DC031575E090F82200002818BF4AF6011540F06E8046F600401168C0F2DC20FFF78DFE607064E0002A08BF4AF603155FD0607800F0C0008109DFF8BE0050F82130607800F03F01DFF8B60050F8A2
S3510000DA28210046F60041C0F2DC215843B1FBF0F06AE7002A0EBF4AF60315116880F8231040E0002A0CBF4AF6031590F823001BE0002A08BF4AF6031534D01068C0B2400000F0FE0020702DE0002A08BF6E
S3510000DA744AF6031528D0207800F0FE00400845E7002A0CBF4AF6031590F8220018BF10601AE002B99FE700F14403032203CBACE80300521EFAD10FE045648564C56405654565856508E002B98DE7E07889
S3510000DAC010F020001ABF0120106015602846BDE838407047C046CCEB0100D8EB0100000008B58C468169134691F822E0CEF307024869012A28D8032281F8222091F8212012BB8278BEF1010F42F01002DA
S3510000DB0C82700CD1C27842F00202C270827842F004028270C27812F08002FBD003E0827842F02002827001224A6291F82320520042F001020271CA6C521CCA64624600F03BF8BDE80840704708B58C4621
S3510000DB588169134691F822E0CEF307024869012A26D8022281F8222091F8212002BB8278BEF1010F42F0100282700CD1C27842F00202C270827842F004028270C27812F08002FBD003E0827842F0200257
S3510000DBA4827001224A6291F8232052000271CA6C521CCA64624600F003F8BDE8084070477CB54FF0000C1DE1C47814F00205FBD000254D62857815F0200500F08580857815F010054DD014F001040FD03C
S3510000DBF0C37843F00203C370837803F0EF0383708B6D5B1C8B65072381F822306346F9E091F82240022C0FD19C4580F0F380C47844F00204C47001244C6212F8014B0471CC6C641CCC64E5E0032C23D1BF
S3510000DC3CC47844F00204C470847804F0EF0484708C6A012C02BF847844F0080484708C6A002C01BF837803F0C7038370072307BF81F82230634601244C621FBF057900AC2570ACF1010CBFE02DE091F8C1
S3510000DC882240032C29D18C6A002C26D09C4580F0B580C47844F00204C4708C6A641E8C6201BF837803F0C7038370072303BF81F822300CF101039C46012418BF4C628C6A012C02BF847844F0080484704E
S3510000DCD4047902F8014B8C6C641C8C6490E0C37843F00203C3708FE714F010060AD0C37803F0EF03C3700D6D63466D1C0D65062581F8225014F040053CD091F821501DB94D6D63466D1C4D6514F00404FD
S3510000DD2010D091F82240022C02D0052C18BF6346847844F010048470052481F822409C4560D26CE7C47844F00204C470847804F0EF04847091F82240032C03D0042C18BF634606D18C6A012C02BF8478BE
S3510000DD6C44F008048470042481F8224001244C62057900AC2570ACF1010C3DE0002E37D1857815F0100518D014F001040BD0C37843F00203C370837803F0EF038370047900AB1C7026E791F82240022C69
S3510000DDB801D0052C02D19C4520D22CE722E791F82240E41EE4B2012C13D88C6A8CB19C4514D2C47844F00204C4708C6A641E8C62012C02BF847844F00804847001244C626CE707E7C47844F00204C470D4
S3510000DE040CF1010C9C457FF6DFAE1846BDE87C40704700002DE9F04184B005462420884617461E4604F06AF80446002808BF042020D04FF4816104F085F8C4F8008067600A98A660E0600B98DFF83010F2
S3510000DE5020610C98DFF82C206061DFF82C00DFF82C300090DFF828000190DFF8280002902846039402F02CFC04B0BDE8F0417047C5DE000005DF000041DF000031DF000051DF000099DE000038B5446A37
S3510000DE9C0546E06958B9626812B16069A1699047204604F0BBF800206862002001E040F60A20BDE838407047F8B5074600680E46446A154603F078FEE06918B103F05AFE2C200EE00120E06103F054FEC6
S3510000DEE82562BD606069236804F118013246984708B10021E161BDE8F840704738B500680025446A03F05AFEE069401EE06105D162681AB1A16920469047054603F034FE2846BDE83840704708B50068F7
S3510000DF34406A83689847BDE80840704708B50068406AC3689847BDE80840704708B500684FF0000C406A092901BF17201060C2F804C04C2008BF906004D0036913B18069984784466046BDE808407047D2
S3510000DF804FF47A7148436021484301E0C046401E0028FBD17047000038B50546002410F001001ED003F00EFE4DF20001C4F20301086940F001000861DFF8DC000460DFF8DC000460DFF8D8004460046066
S3510000DFCC086920F0010008614FF0FF3088600120086003F0D7FD15F0020016D003F0ECFD4DF20001C4F20301086940F001000861086920F00100086101200860DFF8940000214160016003F0BDFD15F0F0
S3510000E018040039D04DF20001C4F20301086910F001001EBF086920F0010008614DF20002DFF868105220C4F2030203F01BFD10B902F036FF0446FCB94DF20001C4F20301486910F0100003D0086910F4BB
S3510000E06480700ED14DF20005C4F20305286940F4807028617D20FFF781FF686940F01000686152200421012201F058FC2046BDE8384070474422FF1F4022FF1F3422FF1FA9E0000038B54DF20003C4F24F
S3510000E0B0030358690121DFF8B45010F0030219D05A69042422F010025A614FF0FF329A6019605A6942F010025A6100F0020202B9002410F0010214BF082200222B6822431A432A6010F0040029D04DF2ED
S3510000E0FC0000C4F203008468DFF868000068844209D1286840F001002860686820F0010000F098F80021DFF850000068844209D1286840F002002860686820F0020000F089F80021012904D1686820F04F
S3510000E148010000F081F8AA6842B129686868084204D04DF20000C4F203009047BDE838407047C0463422FF1F4422FF1F4022FF1F38B5C20FC2EB80710024054612EBB1710CD16421012410F067FA01B9EA
S3510000E194002428464FF4C87110F060FA01B901242046BDE838407047F8B50746008840F2B274A0F2B27140F26D1001FB00F504E0A0B2FFF7D7FF2D18641C38888442F7D30126DFF854400BE004EB4600C0
S3510000E1E0801E00882D18022E03D13888FFF7C4FF2D18761C78888642F0D3B8883989401E2D183C2001FB00F345F28010C0F2010005FB00F2F9884FF46160484310187C8918182018BDE8F8407047C04608
S3510000E22CD8EC01004DF20002C4F20302516921F01001516100681060506940F0100050617047000010F0030101BF4FF0FF314DF20000C4F2030081601DD003290ED1DFF838000168DFF8340002688A425B
S3510000E27888BF0A464DF20000C4F203008260704710F0010014BFDFF81800DFF8100001684DF20000C4F20300816070474022FF1F4422FF1F18B589B0012816D14DF20000C4F20300006805AC049000903A
S3510000E2C40020019000A8214602F0C6FA204602AC214602F03BFC204602F068FB0FE002AC204602F025FC204605AC214602F0B4FA2046FFF759FF049004A8FFF797FF002009B0BDE81840704700B585B00C
S3510000E310DFF82C300093DFF82C300193DFF82830029303910492DFF82410DFF82420DFF8243000F04DF905B05DF804EB7047C04631E4000045E4000055E4000059E3000009E4000019E400002DE9F0411F
S3510000E35C804654200F4603F0CDFD064608B9042048E0D8F80450E8B200F076FB044610B94FF480303EE03E6033460422B8E8030003C3521EFAD1E8B200F0CEFC3462F268B06800EBC2011001B1FBF0F1FE
S3510000E3A841F6FF70814288BF4FF0FF3024D8080A207061700021A1700C20E070A171207C00F07000000908BFE1740AD0207C012100F070000009401C01FA00F0C0B2401EE07401206075607C40F0C00087
S3510000E3F46074207C40F0880020740020BDE8F0417047000008B5084603F00CFE0020BDE808407047026A117911F02001FBD0416B491C416392F9070070470000036A1A7912F08002FBD0D971816B491CD7
S3510000E44081637047006A807C10F040000CBF01200020704710B5A1F60251046A162900F2AF80DFE801F07A1C1E3243ADADADADAD120CADAD6659ADADAD4D5197A4A4A07800F010000009083044E0A07877
S3510000E48C20F010011068092808BF41F01001A17093E0C06838E01368816801EBC3021901B2FBF1F1B1F5F85F88BF40F6092000F28580C360C1F30420207061707DE0016B1160416B5160816B9160C16B53
S3510000E4D8D160016C1161416C5161816C9161C06CD0616CE00021016341638163C163016441648164C16462E0207910F0800002E0207910F0200014BF01200020106056E0A078012110F0020005D0A078DD
S3510000E524022100F0010000B90321116049E0A07820F00301106801280CD0022802D0032803D005E041F0030104E041F0020101E00C2037E09FE7E17811F020010CD1116811F008011DBF617B41F00901CD
S3510000E5706173617B04BF01F0F6016173116811F0200120D0406800F003FD607B40F00200607318E01068012803BFE07800F0FB00E070E0781CBF40F00400E0700BE0207900280CBF0120002010F040008A
S3510000E5BCF7D102E040F6092000E00020BDE81040704700002DE9F84183B005463020884617461E4603F08EFC0446002808BF042021D040F2F93103F0A9FCC4F8008067600A98A660E0600B98DFF8341044
S3510000E60820610C98DFF8302060610D98DFF82C30A0610E982062DFF828000090DFF8240001902846029402F0CDF803B0BDE8F8417047C04651E60000F9E6000029E70000CDE80000CDE90000F8B50D46FD
S3510000E654016807464C6A1646616A29B1491C6162A16A8160002042E0206A103003F0BAFCE06208B904203AE04FF47F7103F062FC216AE06A2A460160E06A00214160E06A8160E06AC160A662BE60A06902
S3510000E6A0236804F11C0198470546C0B9606930B10096E069636940F6025100AA984716F010000CD016F0070018BF0C2507D163692BB1E06940F6155100AA98470546002D02BF01206062284603D0E06AE5
S3510000E6EC03F09CFC2846BDE8F840704738B500680025446A606A401E60620AD162681AB1A069E16990470546E06A03F087FC0020E0622846BDE83840704700002DE9FE4F00689146446A8A46A16A4D4636
S3510000E73801F00100019001F00200E669009001F0040701F0100BB6E00198002800F06B8042E0A16830468847C0F30708B8F1130F23D11EE0A16830468847C0F30708B8F1110F16D0E26A51681068814212
S3510000E78411D2D168481CD060E06A401880F81080E26AD1681068814204BF0020D060E16A4868401C4860B8F1110FDDD116E0E26A51681068814211D2D168481CD060E06A401880F81080E26AD168106813
S3510000E7D0814204BF0020D060E16A4868401C4860E06A4168006881422BD22169304688470028B2D125E0A16830468847E26AC0F3070851681068814211D2D168481CD060E06A401880F81080E26AD16859
S3510000E81C1068814204BF0020D060E16A4868401C4860E06A41680068814204D22169304688470028D9D1E16A4868002833D00FD0401E4860E26A9168481C9060E06A411891F81080826801688A4204BF86
S3510000E868002181600098B0B1B8F10D0F07D11FB1E26830460D2190474FF00A080BE0B8F1080F08D13FB1E268304608219047E26830462021904727B1E268304648F3070190470AF8018B6D1E05E0BBF178
S3510000E8B4000F18BFA9EB050902D1002D7FF446AF4846BDE8FE4F70472DE9F84F00688A46446A9146A06A551CE66900F0010B00F0020700F0100867E0BBF1000F46D03BE0A16830468847C1B213291FD1EA
S3510000E9001BE0A16830468847C1B2112915D0E06A43680268934210D2C3685A1CC260E06AC0180174E36ADA681868824204BF0020D860E26A5068401C50601129E1D115E0E06A43680268934210D2C3685A
S3510000E94C5A1CC260E06AC0180174E26AD1681068814204BF0020D060E16A4868401C4860E06A41680068814204D22169304688470028B9D13FB19AF900000A2803D1E26830460D219047B8F1000F0CD021
S3510000E998636953B1E06940F6155100AA984720B9009810B9A9EB050907E0E0691AF9011BE26890476D1E7FF495AF4846BDE8F84F7047000038B503681546D3F824C040F60153002499420AD81DD20A2931
S3510000E9E431D806292FD309D0092925D00A2923D029E040F60253994213D024E0DCF82C00406800281CBF0120106024D1DCF81C00DCF81010884728601DE0DCF82800106019E01368CCF828301368836068
S3510000EA30DCF814308BB1DCF81C000CE00F20106000244C205460906007E0DCF8143023B1DCF81C002A46984704462046BDE8384070470000052822D8DFE800F003080D12171C4AF20000C4F20600704711
S3510000EA7C4BF20000C4F2060070474CF20000C4F2060070474DF20000C4F2060070474AF20000C4F20E0070474BF20000C4F20E00704700207047000010B5DFF820000468D4F8AC0138B1D4F8B01101F0E7
S3510000EAC821FAC4F88002C4E9A100BDE810407047E807FF1F08B500F033FAB8B942F20C11C4F20701087840F080000870087810F08000FBD142F200100021C4F20700017059200421012200F017FF002054
S3510000EB14BDE8084070470000002812BF002042F20000C4F207007047002814BF002059207047000008B5DFF8100002F003FD0020BDE808407047C046B806FF1F38B5C0B0DFF8AC5000AA25F0010000F0E3
S3510000EB60020142EA01042146FD2200F085FD05F0010044F2010344EA00010020C4F2060318709822581E0270587910F01000FBD144F20602C4F20602107800F00C0080080228F9D144F20405C4F2060526
S3510000EBAC182028700020A5F1FF3420700020C0F21310884758202070A87810F02000FBD044F20601C4F20601087810F04000FBD044F20001C4F20601087800F03F000870887900F00C0080080328F9D1DD
S3510000EBF8002040B0BDE838407047C0460DED000048F228014FF0FF32C4F204010A604A608A606FF48020C8600A614A618A61704742F200024CF22050C4F20502D0814DF62810D08111884FF6FE70084026
S3510000EC441080704747F20002C4F2040202F58250016841F00101016041F20400115841F4407111504FF4A06102F540508162C162016441648164C164016541658165C16502F58040016041608160C160DB
S3510000EC90016141618161C161016241628162C162016341638163C16302F5A040016041608160C16001614161816170474CF20001C4F2000108604FF4166088600120C0F2070048607047000008B5FFF7AB
S3510000ECDCA5FFFFF737FFFFF791FF4DF20001C4F20001086820F001000860FFF7A7FFDFF80C00FFF7DDFFBDE808407047000000700CB44FF20003C4F201031A68196841F47F01196048F24401C4F2040122
S3510000ED280860009800901A600CBC704705285FD8DFE800F00313243444514CF20000C4F204004FF450718161C161A0F5A04241F23400115841F480610EE04BF20000C4F204004FF45071C1600161A0F594
S3510000ED74804241F23400115841F4006111503CE04CF20000C4F204004FF450718160C160A0F5A04241F23400115841F48051EDE74BF20000C4F204004FF4507101644164A0F5804241F23400115841F428
S3510000EDC00051EEE74BF20000C4F204004FF450718163C163A0F5804241F22800BDE74DF20000C4F204004FF4507101624162A0F5C04241F22800C0E70020C043704700207047000050B947F20002C4F23B
S3510000EE0C040241F23C00115841F00061115010E0012801BF47F20002C4F2040241F23000115804BF41F00061115002D00020C043704700207047000000F01F0210F4006104D0032A02D90020C0437047E2
S3510000EE5821B9022A02D10020C0437047182A1BD200F47041B1F5805F04BFDFF88400815C13D000F4C060B0F5806F00D018B9DFF87400815C09E0111FC8B203288EBF0021DFF86400415C00E0012111B93D
S3510000EEA40020C0437047012908BF002020D04811052814D8DFE800F0130306090C0F49F200030AE04AF2000307E04BF2000304E04CF2000301E04DF20003C4F2040301F01F0153F8210020F4E06043F839
S3510000EEF0210000207047C046D8ED0100F0ED010008EE010048F23C01C4F20401086840F0005008600020704780B94CF20000C4F204004FF4087101624162A0F5A04241F23400115841F04001115002E0E7
S3510000EF3C0020C043704700207047000048F24801C4F204010868A1F1440200F00F000860086840F0020008601068143940F4A0201060086840F48020086000207047000048F23801C4F20401086840F45D
S3510000EF887850086000207047032809D0042801BF4FF440714DF20000C4F20400C16606E04BF200004FF44071C4F2040081640020704700004AF200614EF21400C0F20E01CEF2000040F80419072101604F
S3510000EFD44EF61C51CEF20001086840F080500860486840F0804048607047000010B542F2620002F06BFA00204FF0005103F040F90020FA2100F0B8FA002859D1DFF8B60000F0E8FB0F2001F0A1FCDFF8F1
S3510000F020AE100F20002202F029FD08B9262049E0FFF7C4FFDFF89A0004684AF20060C0F20E00C4F87C01642001F092FCD4F87C0101F076FCDFF87E00002101F079FC01F0CDFB78BBFFF74EFF28B904205D
S3510000F06CFEF794FF0120FFF71BF9DFF86210DFF862000A68FFF744F9DFF85A10DFF85A000A68FFF73DF9DFF85640DFF856002146FEF774FBDFF84E002146FDF7BDFFDFF84A00FDF75FFADFF84600DFF865
S3510000F0B84610FBF791FDFFF7F9FC0020BDE81040704700A0000005F10000E807FF1F11F1000010ED0100E806FF1F90ED0100EE06FF1FC4ED0100F406FF1FFA06FF1F0107FF1F0707FF1F40EE01000000D1
S3510000F104DFF804301847C046090A01004EF21401CEF2000108684FF0000C20F07F40421C486820F07F43D1F8F00C10F080601EBF486820F07F43944603B91346D01A604470470000DFF804301847C0460D
S3510000F150D9EC00007047000070B58A18521E22F00F060F31A6F1600421F00F01816106614461204660211D4600F00CFA00212046016004986060DFF8240020640598E062686840F0010060644FF0807073
S3510000F19CA0646FF00200A062BDE870407047C04631110100DFF864000168D1F8A001072884BF0720C1F8A00103D810B90120C1F8A001400100F0E000C88241F600414FF0000CC023C1F6FF716820ACEBFE
S3510000F1E8010213700CF1010C401EF8DC41F680614FF0000C4FF0FF33C1F6FF710420C1EB8C0213600CF1010C401EF8DC7047C046E807FF1F70B5DFF86000056800202862D5F8FC00841C200102F0F8FF5B
S3510000F234064608B904201DE0052102F083FEC02111E036607660F481D5F8A0012018072828BFB18103D2400100F0E000B081286AB0602E6210362046641E0028E9D1286A68620020BDE870407047C04639
S3510000F280E807FF1F2DE9F84F8946DFF8B01004680E684568D6F878818246204629464246002300270FF0BAF94FF0FF32101A77EB01003FBFC9F8002040F2E730C9F80400002037D34FF47A7BA4FB0B01FE
S3510000F2CC04FB071105FB0B11424600230FF0A0F94FF47A72002304460FF09AF9C9F8000000FB0BF0201AC9F80400DAF808304FF4FA62A3FB020103FB071107FB0211424600230FF085F9D6F88021002367
S3510000F3180FF080F9421C41EB07005108D9F8043041EAC0715818C9F804000120BDE8F84F7047C046E807FF1F38B50468D1F800C045684B68B4EB0C049D41146055608368D1F808C063450AD2DFF82000E5
S3510000F3640068D0F880011B18601E65F1000110605160A3EB0C009060BDE838407047C046E807FF1F70B586B00446006803AD0E46294600F059F8606800AC214600F0B4F828462146324600F021F806B0C8
S3510000F3B0BDE870407047000010B5DFF8301084680968D1F880118C420DD3B4FBF1FC0268436812EB0C0243F100030CFB01F1611A026043608160BDE810407047E807FF1F70B50468D1F800C045684B683E
S3510000F3FC14EB0C045D41146055608368DFF83000D1F808C00068D0F88061A6EB0C00834238BF03EB0C0007D3601C45F100011060ACEB0600516018189060BDE870407047E807FF1F00BA704780F3118801
S3510000F4487047000010B5DFF82420002412688C60D2F878C1A0FB0C2300FB043304FB0C330A604B60BDE810407047C046E807FF1F10B50022DFF882308A60D3F804C00C46BCF1010F08D1DFF8722012688C
S3510000F494B0FBF2F200200A6048602CE0DFF86220BCF1020FD2F800E012D1DEF878314FF0000CA0FB032100FB0C110CFB031110464FF47A7200230FF0A7F82060616012E0DEF878214FF47A7CBCFBF2FC33
S3510000F4E00CFB02F2C3F800C0B2F57A7F04BF01225A60CCD002215960D9E7BDE810407047C0464822FF1FE807FF1F00002DE9F0410D46DFF864100024D1F80080D8F87811A0FB016700FB047704FB01770A
S3510000F52C304639464FF47A7200230FF071F828606960304639464FF47A7200230FF06EF8D8F88061A0FB062300FB043312F5FA7001FB063343EB04014FF47A7200230FF057F8A860BDE8F0417047C04626
S3510000F578E807FF1F10B502F03FFA044608B900F0B9F92046BDE8104070470000032962D910F0010203D0002200F8012B491E10F0020203D0002220F8022B891E8B09002214E0026042608260C2600261A1
S3510000F5C442618261C261026242628262C26202634263826300F13C0C4030CCF800205B1E002BE8D1C1F383020F2A36D8DFE802F035322F2C292623201D1A1714110E0B08002240F8042B002240F8042B30
S3510000F610002240F8042B002240F8042B002240F8042B002240F8042B002240F8042B002240F8042B002240F8042B002240F8042B002240F8042B002240F8042B002240F8042B002240F8042B002240F8E2
S3510000F65C042B11F002021CBF002220F8022B11F001011CBF002101707047000010B5032A40F2A58010F0010304D010F8013B01F8013B521E10F0020304D030F8023B21F8023B921E930946E0D0F800C027
S3510000F6A8C1F800C0D0F804C0C1F804C0D0F808C0C1F808C0D0F80CC0C1F80CC0D0F810C0C1F810C0D0F814C0C1F814C0D0F818C0C1F818C0D0F81CC0C1F81CC0D0F820C0C1F820C0D0F824C0C1F824C026
S3510000F6F4D0F828C0C1F828C0D0F82CC0C1F82CC0D0F830C0C1F830C0D0F834C0C1F834C0D0F838C0C1F838C000F13C0C01F13C04DCF800C040304031C4F800C05B1E002BB6D1C2F383030F2B45D8DFE8FF
S3510000F74003F044403C3834302C2824201C1814100C0850F8043B41F8043B50F8043B41F8043B50F8043B41F8043B50F8043B41F8043B50F8043B41F8043B50F8043B41F8043B50F8043B41F8043B50F8E3
S3510000F78C043B41F8043B50F8043B41F8043B50F8043B41F8043B50F8043B41F8043B50F8043B41F8043B50F8043B41F8043B50F8043B41F8043B50F8043B41F8043B12F002031CBF30F8023B21F8023BDE
S3510000F7D812F001021CBF00780870BDE8104070474EF60851CEF200010A680860104670472DE9FE4F0646DFF8E4000068D0F81C80DFF8DC0000F000FBDFF8D800D8F80C203146434600F0F8FAFAF756FF77
S3510000F8248246FAF756FF0546FAF75BFF0446FAF756FF0746FAF750FF00950190DFF8AC0021463A46534600F0E1FADFF8A40000F0DDFADFF8A0B04FF000094FEA0A0708240AEB890188680090C8680190F6
S3510000F87057F8102B4B68584600F0CAFA09F10409641EEFDCDFF86C0000F0C2FA00274FEA0509082405EB870188680090C8680190DFF8540059F8102B4B6800F0B1FA3F1D641EEFDC02F06CF9D8F8080044
S3510000F8BC0B281FBF0B20C8F80800C8F83860D8F804001EBFD8F800100160486002F074F9BDE8FE4F7047C046E807FF1F0D07FF1F2D07FF1F5B07FF1F9707FF1FAA07FF1FDFF80C00DFF80C300068C06BD1
S3510000F9081847C046E807FF1F39F90000000000000000000000000000EFF3088080F30988EFF3148040F0020080F314880EF074BD80F308887047000038B5A0F1100CFA2820D80CF00303DD004EF2001315
S3510000F9544901CEF2000301F0E0012CF0030E03F5407401FA05FCFF21A94054F80E3023EA01014CEA010144F80E1012B100F00AF804E000F01DF801E00C2000E00020BDE838407047A0F11003FA2B0DD84C
S3510000F9A0012103F01F0001FA00F241F600705909C1F6FF70C0EB8100026001E00C20704700207047A0F11003FA2B0ED8012103F01F0001FA00F24EF20011CEF20001580901EB8000C0F8802001E00C2088
S3510000F9EC704700207047000008B510B90020C04306E003689B6913B92C21C160F6E79847BDE80840704700002DE9F04100240646D0B1DFF83A80374611E0284600F01AF858B14FF0FF307F2D98BF284614
S3510000FA384044407810F0010018BF20353555641C7F1C97F90050002DE9D10020BDE8F041704734F2010000007F2888BF4FF0FF30411CDFF80C00405C00F001007047C04634F201007F2888BF4FF0FF306A
S3510000FA84411CDFF80C00405C00F017007047C04634F20100F8B5074690F9000080B1DFF8266000250424701939460EF0ADFB18B9DFF81600405903E00C35641EF3DC0020BDE8F84070475022FF1F5822D3
S3510000FAD0FF1F0000DFF81430002204219818806818B90C32491EF9DC002070475022FF1FDFF81CC0002204210CEB02039B68834208BF012003D00C32491EF5DC002070475022FF1F70B5DFF83EC00E4676
S3510000FB1C1546002204210CEB0204A36883420CD120460EF0FDFA854298BF022009D9304621460EF0FFFA002003E00C32491EEADC0120BDE870407047C0465022FF1F000010B5DFF836E0002304220EEBD5
S3510000FB680304D4F808C0BCF1000F08D1DFF82220D050204608220EF01DFB002003E00C33521EECDC0420BDE810407047C0465022FF1F5822FF1F000010B5DFF82CC0002204210CEB0204A368834201BF68
S3510000FBB40020DFF81C108850207003D00C32491EF1DC1C20BDE810407047C0465022FF1F5822FF1F2DE9F84F00268246894690461F460BB901203CE0551E3C4601E0761C641CAE4208DA94F900B058462E
S3510000FC00FFF73CFF10B1BBF13A0FF2D1B8573A2814D1741C38575C2801D02F280ED1B9F1000F1CBF0120C9F8000050463946721C0EF0C4FA00200AF8040013E0B9F1000F1CBF0020C9F800000A980EF005
S3510000FC4C6FFAA8F1010104468842A8BF002004DA0A9950460EF06EFA2046BDE8F84F70472DE9F84F84B01746804638460D461E460EF056FA4FF0000B0E98CDF80CB0CDF808B00090404602A932463B4662
S3510000FC98FFF79EFF02998044C146012908BF3F185C2088F80000002088F8010097F9000001242F2801D05C2800D155E06D1C012054E095F9000000284BD0284603A93246AA4600F053F8054608B39AF9D0
S3510000FCE400002E281DD19AF901002E2819D1C14514D002E0A9F10109641EC14503D099F900005C28F6D1C14504BF002089F801002FD0002009F80109641E2AE04FF00C0B29E09AF9000020B32E2822D0E0
S3510000FD3099F900005C281FBF09F101095C2089F80000641C039AA418B4420DDA09F1010051460EF033FA039800214844417008EB0400A0F1010906E0DAE70198012804D13D4600200190002DA7D15846D9
S3510000FD7C04B0BDE8F84F704700230B6008E00B68401C5B1C0B609342C4BF002008600BDC90F900301BB12F2B01D05C2BEFD15C2B01D02F2B00D1401C704700000FB408B503AB23F00303DFF81C10039A7C
S3510000FDC802A81B1D00F0A2F9029900220A70BDE8084004B07047C046E5FD00000B685A1C0A6018707047000008B510B90020C04306E003685B6913B92C21C160F6E79847BDE80840704700000FB408B59B
S3510000FE14012000F0FFFC02AB23F00303DFF81010029A1B1D00F074F9BDE8084004B07047D5FE000008B5002310B90020C04314E0012902D0022903D005E0806810600BE01168816008E00368DB69002B79
S3510000FE6008BF40F6092301D0984703461846BDE80840704711B90020C04370478A69002A02BF01228A61C86101D00020C043704708B510B90020C04319E0012A04D0022A03D0032A05D006E001E00269F4
S3510000FEAC5118016102E04269FAE7EDE7816821F0080181600168CB6913B10721002298470020BDE8084070471CB5044611B90020C04311E00B689A6912B92C20C860F6E700AA10709B69084600A90122F2
S3510000FEF89847012818BF4FF0FF342046BDE81C4070470000F8B50646DFF88A000D46046804F5167001F022FCD4F8747204F51D7012E0B968324601E0521C491C92F900C0BCF1000F04D091F900300BB1DA
S3510000FF449C45F3D091F9001011B13F688742EAD104F5167001F05CFC04F51D70874208BF002017D0202001F0C9FF044690B1102101F0E8FF2760FB685BB1204631462A46984730B100F056FF204602F02E
S3510000FF904BF8002000E02046BDE8F8407047E807FF1F000010B504460B460AB900200DE000210170104621461A4600F00BF8B0F1FF3F02D194F9000000B12046BDE81040704700002DE9F84381460C4697
S3510000FFDC20B9002008704FF0FF303AE0A2F101080AB96FF00048484600F036F8B0F1FF3F02BF002020704FF0FF302AD0D9F80810002601F00407202515E037B1082804D136B1641E2570761E02E004F8CE
S35100010028010B761C484600F019F8B0F1FF3F02BF002020704FF0FF300DD00A2803D00D2801D04645E3DB464502DB4946FFF70EFF002020703046BDE8F843704708B510B90020C04315E0816921B1002137
S351000100748161C069C0B20EE001684B6913B92C21C160EFE700A901229847012806BF00A800784FF0FF30BDE80840704708B510B90020C04308E00168CB69002B08BF002002D0032100229847BDE80840B2
S351000100C07047000000280CBF4FF0FF30C068704710B90020C0437047806810F0080014BF012000207047000038B5054610B90020C0430BE00168096911B901F095FFF6E788470446284601F08FFF204616
S3510001010CBDE83840704700002DE9F04F93B082460020884617461E46009000240DE0002807D10098B0F1FF3F08BF4FF0FF34204621E25146C0470090641C17F9010B2528EDD197F90000252801D17F1CE4
S35100010158F1E70020069000200390029004904FF0200B09900190002023E02B2908DC16DA23291DDC20291BDB14D0232915D017E0302915DC2D2913DB02D0302904D00FE0012109917F1C0CE04FF0300B45
S351000101A4FAE701210491F7E701210391F4E701210291F1E7012097F9001009B10028D6D0002008902A2905D1361D301F00687F1C08900EE00A2106E0089817F9012B484310183038089097F90000302897
S351000101F001DB3928F2DD97F900004FF000092E2819D17F1C97F900002A2805D1361D301FD0F800907F1C0EE00A2006E017F9012B09FB00F15118A1F1300997F90010302901DB3929F2DD17F9012B0BAD53
S3510001023C0AB92520D8E06D21682A05D06C2A03D04C2A01D06D2A02D151B217F9012B002000230A90642A21DC80F255804E2A0DDC80F2BC80492A00F3BE80432AC0F2BB8032D0442A47D0492A45D0B4E002
S35100010288582A0ADCB2F14F0000F1AF80DFE800F07B8DADAD35AD3EADAD92632A1ED0A4E06F2A09DC80F26F80692A01DC2DD09CE06E2A00F0958098E0702A02DC00F0768093E0782A00F39180732AC0F2E2
S351000102D48E8014D0752A1BD0782A00F0708086E0361D301F01680BA80170C8B208B901200A904FF000090BA880F8019002E0361D301F056800204FF0200B029079E00123C3B1682904D1361D301FB0F99B
S35100010320000002E0361D301F0068002803DA2D210691404211E0049911B12B2106910CE0039951B12021F9E7682903D1361D301F008802E0361D301F006800214CF600220591C3F69A3203E00599801A1E
S3510001036C491C05910028F9DB0023029329460A22002300F005F905982978C0B2081828703BE0682904D1361D301FB0F9000002E0361D301F006829460B22002300F0F0F80320019029E00123361D301FA9
S351000103B8006810E00120012301900198401C019040B20190682903D1361D301F008802E0361D301F00682946082200F0D3F80EE0361D301F00680460A9E610465146C047B0F1FF3F0CBF4FF0FF30601C79
S35100010404BDE00A98291803E00A98491C401C0A9008780028F8D108980028BCBF00200890B9F1000FB8BF4FF0000900200790B9F1000F01D1089820B3B9F1000F0BD00A98484508DD0BA8854202BF0A9827
S35100010450A0EB09002D18CDF82890089818B101460A98081A0790069810B10798401E0790029840B10798401E07900198032802DA0798401E0790069830B1BBF1300F03D15146C0470090641C0298D0B1AB
S3510001049CBBF1300F17D10198012808D130205146C04778205146C0470090641C0AE0022804D130205146C0475820F3E730205146C0470090641C099860B94FF0000906E058465146C0470090641C09F116
S351000104E8010907988145F5DB069830B1BBF1200F03D15146C0470090641C0298D0B1BBF1200F17D10198012808D130205146C04778205146C0470090641C0AE0022804D130205146C0475820F3E7302080
S351000105345146C0470090641C4FF0000907E015F8010B5146C0470090641C09F101090A988145F4DB099800283FF4F3ADBBF1300F08BF4FF0200B002505E058465146C0470090641C6D1C07988542F6DBC7
S35100010580E1E513B0BDE8F04F704700002DE9F84384B007460E46002100A800AC154601700B2A10D1611C0B2007F007023032FF0801F8012B401EF7DC00A890F90B1001F03301C17231E00A2A16D14FF011
S351000105CC010904F101080EE038460A210EF050F901F1300008F8010B38460A210EF048F9074609F10109A945EEDD18E04FF0010EDFF84C10DFF84CC0601C0CE0002B07F00F0814BF1CF9088011F90880D7
S3510001061800F8018B3F090EF1010E9645F0DD00E06D1E60573028FBD02DB96D1C03E060576D1E06F8010B002DF9DA04B0BDE8F8437047C04675EE010064EE01002DE9F0418046DFF870000025046804F544
S35100010664167001F07DF8D4F8747204F51D761FE0B96840464FF480620DF028FEB8B9396A79B138468847054658B97868396801604860B4F87C02401EA4F87C02384601F0C1FC04F5167001F0B3F8284663
S351000106B008E03F68B742DDD104F5167001F0AAF840F60120BDE8F0417047C046E807FF1F2DE9F0470746DFF8F0001C4600230E461546D0F80080002900D00AB90C2067E000203A464FF4806192F90090CD
S351000106FCB9F13A0F08BF5B1C02D0B9F1000F03D0401C521C491EF1DC012B01D1012800D1E6E708F5167001F01FF8D8F8740220B908F51D70002102F073FAD8F8749208F51D7A10E0D9F8081038464FF4A1
S3510001074880620DF0C1FD30B908F5167001F05EF84FF4206030E0D9F80090D145ECD108F5167001F053F82C2001F0C6FB8146002808BF042020D00F2101F0E2FBC9E90276C9E904540898C9F81800099834
S35100010794C9F81C000A98C9F820000B98C9F8240008F5167000F0DCFF08F51D70494602F04BFA08F5167001F02BF80020BDE8F0477047C046E807FF1F08B584B0DDF818C0CDF800C0DDF81CC0CDF804C0D2
S351000107E04FF0000CCDF808C0DDF820C0CDF80CC0FFF76EFF04B0BDE808407047DFF81000DFF810300068012100F516701847C046E807FF1F91190100DFF83C1080B20968052816D8DFE800F00C0F120305
S3510001082C0609D1F880027047D1F884027047D1F888027047C869406F7047C869806F7047C869C06F704700207047C046E807FF1F70B506460D4600B109B9002061E045F200720368CFF2864293429DBF83
S35100010878436840F2E7329342002054D800220A80DFF8AA3002E00A88521C0A80B1F800C003EB8C02046852689442F4D253F82C00241A0CF2B270088080B200F065F8012169803421DFF87A204843121844
S351000108C402E06888401C6880698852F821008442F7D2481E52F82000241A45F280112046C0F201010DF0C8FF81B245F28010C0F201004843241A481CA88020464FF461610DF0BAFFE88081B24FF461606A
S351000109104843241A20463C210DF0B0FF288181B23C204843241A6C817068A8810120BDE870407047C0460CEF0100A4EE01000000DFF808100968C1F880017047E807FF1FDFF808201268C2E96101704710
S3510001095CE807FF1FDFF808100968C1F870017047E807FF1FDFF808100968C1F878017047E807FF1F10B5642104460DF06BFE31B920464FF4C8710DF065FE002904E0E10FC1EB847011EBB0700CBF0120CC
S351000109A80020BDE8104070473EB50446DFF84C1040680D68B0F57A7F0CD34FF47A710DF059FF21680818206060684FF47A710DF051FF6160204600AC2146FEF7D1FC01F0EDF8204605F5A67105F5AC72D6
S351000109F4FEF7A4FC01F0CAF8BDE83E407047C046E807FF1F70B5DFF8C6000668D6E95301401C41F10001C6E9530101F0D1F8D6F8841121B1D6F888018847C6F8540106F5A670FEF7BFFCB6F86C51002D25
S35100010A4039D0D6F864016D1C33E0D6E953CE426C836CB2EB0C01046873EB0E0138BF012107D3BCEB02017EEB030134BF01210021494200291FDBB6F86C11491EA6F86C11416802680A605160816821F4C4
S35100010A8C8072826012F480610AD022F480618160016CC26B0A605160826B1189491E118100F02AFB20466D1EC9D101F06BF8D6F8DC0200B18047D6F8180300B18047BDE870407047C046E807FF1F0000DD
S35100010AD838B50546E8B1DFF84000046801F06EF804F5A67303CB2A4603C218681060D4F8841119B1D4F888018847A860284604F5AC712A46FEF770FC01F03EF82846FEF74FFCBDE838407047E807FF1FB9
S35100010B24DFF808000068D0F878017047E807FF1F3EB500AC05462046FFF7CCFF20462946FEF79EFBBDE83E4070470000F8B506460D4600B109B90020A6E08089B0F57A7F0DD34FF47A710DF079FD71895D
S35100010B7080B208187081B0894FF47A710DF070FDB18170893C280BD33C210DF069FD318980B20818308170893C210DF061FD718130893C280BD33C210DF05AFDF18880B20818F08030893C210DF052FD48
S35100010BBC3181F08818280BD318210DF04BFDB18880B20818B080F08818210DF043FDF180B088012838BF002062D370880C280BD90C210DF037FD318880B20818308070880C210DF02FFD7180318840F206
S35100010C08B270814238BF3080DFF8A0400D273088FFF7B2FE00FB07F172886118515CB3888B4213D9581AB080501C708080B20C28EDD90C210DF010FD318880B20818308070880C210DF008FD7180E0E7C2
S35100010C54348840F633018C4288BF002024D8DFF85410A4F2B27451F8241034244443DFF84800521E001950F82200091845F280105A1EC0F2010050430918F2884FF461605043091832893C2050430918CD
S35100010CA0708909182960B08968600120BDE8F8407047C04688EE01000CEF0100A4EE010010B5DFF832100346096818B90C2000F0B3F80DE0CC6903CB04F1440203C21868106000F06FFF204600F022F8BE
S35100010CEC00F050FFBDE810407047E807FF1F000070B5DFF82C1006460C6870B1E56900F05BFFD4E953018019686441F100012846A96400F007F800F035FFBDE870407047E807FF1F2DE9F041DFF872101C
S35100010D3804460968B1F86C2101F5B27CEAB1D1F8643102F1010E15E0456C5F6C866CD3F84880EA1B76EB080238BF012206D37A1B78EB060234BF012200225242002A04DA9C461B68BEF1010EE6D14268A7
S35100010D8400681060426001F5B2706146224601F023FFA06840F48070A060F9F756FBBDE8F0417047C046E807FF1F000070B5DFF8361006460C6818B90C2000F03BF80EE0E56900F0FDFE304604F5A6718C
S35100010DD005F14402FEF70CFB2846FFF7A9FF00F0D7FEBDE870407047C046E807FF1F000038B5DFF8341000280C6812D0E56905F14401FEF739FB00F0DDFE05F1440004F5A6710246FEF7ECFA2846FFF7D4
S35100010E1C89FF00F0B7FEBDE838407047E807FF1FC26D01B102B9C16510467047DFF828100A68118B002919BF516BCB68D169CB6D00B133B9118B002919BF516BC860D169C86518467047C046E807FF1F7A
S35100010E6870B5DFF8461004460D6808B9E86918E000F0A4FED5F80401A0F16C06B5F80C01411C09E0F068A04203D100F07DFE304607E0F06EA0F16C06491EF3D100F074FE0020BDE870407047C046E807D0
S35100010EB4FF1F0000DFF814000168088B002819BF486BC068C869C06D7047C046E807FF1F70B5DFF8903016461D684FF6FE73B5F80C419C4228BF002039D2A0230B603AB9A03001F0B5F9064688B304216A
S35100010F0001F022F83046A021FEF744FBD5F8100184B2D5F88C01D5F8141144EA0040F060002914BF6C3105F5827105F5827006F16C0201F053FE324605F58271641CA4B2D06E1346A0F16C0204B901243E
S35100010F4C8A4203D0D06880B2A042F1D0C5F81431C5F810413046BDE870407047E807FF1F10B50446C068C0F30F41DFF83C000068D0F88C01814203D01220FFF757FF0FE000F01AFEA068022803D100F0FC
S35100010F98FBFD1120F3E7204600F0B0F800F0F4FDF9F73FFABDE810407047C046E807FF1F2DE9F84F84B08B46DFF8241102920D68C268D5F8FC1082469946DDF838808A4208D905F52F71884204D00E207B
S35100010FE4FFF728FF002079E0B8F1000F12D00F9EB6F5BA7F01D80220F2E7304603A94246FFF766FF07460398361AB9F1000F12D0203E10E08068D42898BFD4200F3020F00F06103606F1200003B93046DD
S3510001103003A90022FFF74EFF07460FB90A20D1E70320B86003983A181446B9F1000F0ED002F1200491460423BAE80300A9E803005B1EF9D11068924640F0004010602046314600F03BF8296ADAF80C001A
S3510001107CA1EB0011F96139628889B8F1000FB884DAF81400B8621EBFB86A40F02000B86288892146009002983246019038465346FEF754F8C7F868A0DAF800007866D5F880027867D5F88402B867D5F83A
S351000110C88802F867C7F860B0B8F1000F03D13846394600F031FF384604B0BDE8F84F7047E807FF1F890846F26B12491CC7F2743201E040F8042B491EFBD17047DFF82410C269D1F800C0DCF824105368D4
S351000111148A4288BFCCF8242002214360816019680160186050607047E807FF1F10B5DFF82000046800F044FDE069D0F8840000B18047002000F006F8BDE810407047C046E807FF1F2DE9F843DFF8C011CC
S3510001116000280D6809D0D5F88C11C0F30F4289B28A4218BF122040F0D080FFF775FE074618B105F15001884201D11220C5E005F5987000F0E7FA00F015FDB968092906D100F0F6FC05F5987000F034FB8D
